S00600004844521B
S32500000000705A0120F9EC0200FFEC020001ED020003ED020003ED020003ED02000000000055
S3250000002000000000000000000000000003ED020003ED02000000000003ED020003ED0200F2
S3250000004003ED020003ED020003ED020003ED020003ED020003ED020003ED020003ED02000A
S3250000006003ED020003ED020003ED020003ED020003ED020003ED020003ED020003ED0200EA
S3250000008003ED020003ED02008576020049CE020003ED0200A5AB020003ED0200B7CE0200A3
S325000000A003ED020003ED020003ED020003ED020003ED020003ED020003ED020003ED0200AA
S325000000C003ED0200BDA6020003ED0200C5AB020003ED020003ED020003ED020003ED020097
S325000000E003ED020003ED020003ED020003ED020003ED020003ED020003ED020003ED02006A
S3250000010003ED020003ED020003ED020003ED020003ED020003ED020003ED020003ED020049
S3250000012003ED020003ED020003ED020003A5020003ED020003ED020003ED0200F5AB0200C1
S3250000014003ED020003ED020003ED020003ED0200000000000000000003ED020003ED0200ED
S3250000016003ED020003ED02000000000003ED020003ED020003ED020003ED020003ED0200DB
S3250000018003ED020003ED020003ED020059CF020003ED020003ED020003ED020003ED020091
S325000001A003ED020003ED020003ED020079CF020003ED020003ED020003ED020003ED020051
S325000001C003ED020003ED020003ED020003ED020003ED020003ED020003ED020003ED020089
S325000001E003ED020003ED020003ED020003ED020003ED020003ED020003ED020003ED020069
S30D0000020003ED020000000000FE
S3250000020800B5ADF1140DADF80E10ADF80C002EF0C6FD4FF080402EF081FDBDF90C0050B9A1
S32500000228BDF90E00B0F5805F02D100F051F804E000F07DF801E000F01CF8A7480290029813
S32500000248B0F5005F00D9FEE7029AA448A4492DF040FCA349A348401A0190A0490198401864
S325000002680090BDF90C00009ABDF90E10904705B000BD08B59E499D48B1F90020B0F900006B
S32500000288994940EA022008809B499A48B1F90020B0F90000BA4940EA02200880B949002068
S325000002A8087031202DF090FEB7482EF09FFBB749B54809684FF4614266232EF083F9B24894
S325000002C82EF04CFCC82000F089F900F0A7F908BD08B587498548B1F90020B0F90000824963
S325000002E840EA0220088084498248B1F90020B0F90000A34940EA02200880A24900200870CF
S325000003084B202DF061FEB4482EF070FB9F49B24809684FF4164266232EF054F9AE482EF06D
S325000003281DFCC82000F05AF900F094F908BD08B5B549088840F040000880B449088820F049
S3250000034840000880B24900200880B2484FF4947200212DF023FDB04800214FF494722DF004
S325000003681DFD08BD08B5ADF80210ADF80000BDF90000BDF9021001F0E3F808BDADF1180DA5
S325000003880192ADF81010009000980290002003900399019888420CD90298411C02919DF887
S325000003A8101001700398401C0390019803998842F2D806B07047ADF1180D02920191009065
S325000003C80098039001980490002005900599029888420ED90499039811F8012B0491411CBA
S325000003E8039102700598401C0590029805998842F0D806B07047ADF1080D8DF80410009048
S325000004089DF8040010B10098006C01E00098C06B02B07047ADF1080D01910090019800995C
S32500000428486402B07047ADF1080D0090009881690020490901D3002100E0012101B1012098
S3250000044802B07047ADF1080D009000988069400902D20098006801E04FF0FF3002B070478C
S32500000468ADF1080D8DF804100090009880698009FBD29DF804000099086002B07047ADF11A
S32500000488080D0090009881690020090901D3012100E0002101B1012002B07047ADF1080D0F
S325000004A800907A4940F601200860794900980860794878490860774800688008FBD2774835
S325000004C8006840F60121014202D04FF0FF3000E0002002B07047C046B4140000A0BF002015
S325000004E8080200006D03000010FB00200AFB002008FB00200EFB00200CFB0020ADF1100DF6
S32500000508029201910090614942F2016008600298002828D001985E4920F07F0008600EE091
S32500000528009B0198B74A53F8041B009300F07C0011500198001D01900298001F0290019883
S3250000054810F07C0F02D1B048006810B902980028E6D1AF48AD490860AC4800684008FBD2C7
S3250000056802980028D6D14D48006842F20161014202D04FF0FF3000E0002004B07047C0467D
S3250000058812FB00204F51012000E0004040480120ADF1080D8DF805208DF8041000909DF87B
S325000005A80410009A9DF8050042F8210002B07047ADF1080D0191009001980099086002B000
S325000005C87047ADF1080D009000980830016841F00201016002B0704700200140ADF1080DC8
S325000005E8ADF800000020ADF8020004E0BDF80200401CADF80200BDF80000BDF8021088429D
S32500000608F4DC02B07047C046480300A04A0300A0A2480120D83D0120B03C012008B5B449AD
S32500000628002008807C49002008807C484FF494720021FFF7A3FEB34800214FF49472FFF777
S325000006489DFE74480621002201F012F8AE490120087008BD08B5A649002008806E49002071
S3250000066808806E484FF494720021FFF787FEA54800214FF49472FFF781FE69480421002285
S3250000068800F0F6FFA0490120087008BD14D00F4000D00F4008D00F40020042A40CD00F4094
S325000006A808B560480121FFF7A6FE00905D480099FFF7B0FE94480078012809D05948FFF7AC
S325000006C8B2FE002800F09D805648FFF7BBFE98E0009810F4B06F6AD15248FFF7A4FE002812
S325000006E800F081804F48FFF7ADFE8149854AB1F9001050547E48B0F9000048B9814800781B
S32500000708532870D17A49B1F90000401C08806AE077487C49B0F90000085C412806DB7448DD
S325000007287849B0F90000085C5A2830DD70487549B0F90000085C612806DB6D487149B0F949
S325000007480000085C7A2822DD69486E49B0F90000085C302806DB66486A49B0F90000085C6A
S32500000768392814DD62486749B0F90000085C2E280DD05F486349B0F90000085C2C2806D0F5
S325000007885B486049B0F90000085C0D280BD15848B0F90000B0F5947F25DA5549B1F9000099
S325000007A8401C08801FE05249002008801BE00098C00A05D3B949B1F9000040F00400088068
S325000007C80098000A05D3B549B1F9000040F0020008800098400A14D3B049B1F9000040F093
S325000007E8010008800DE042484649B0F90000401E085C0D2805D14449002008700649012051
S32500000808088008BD00D10F4030D00F4020D00F40010042A400700040A2480120D83D0120F7
S325000008280050064000E0004008B5B6480121FFF7E2FD0090B3480099FFF7ECFD324800784D
S32500000848012809D0AF48FFF7EEFD002800F0A680AC48FFF7F7FDA1E0009810F4B06F73D114
S32500000868A848FFF7E0FD002800F08A80A548FFF7E9FD1F49234AB1F9001050541C48B0F97C
S32500000888000048B91F480078532879D11849B1F90000401C088073E015481A49B0F90000FA
S325000008A8085C412806DB12481649B0F90000085C5A2839DD0E481349B0F90000085C6128D6
S325000008C806DB0B480F49B0F90000085C7A282BDD07480C49B0F90000085C30280ADB04488D
S325000008E80849B0F90000085C39281DDD02E0C0465248012095480349B0F90000085C2E2802
S3250000090812D003E0B03C01204F5101208F489049B0F90000085C2C2806D08C488C49B0F9FD
S325000009280000085C0D280BD18848B0F90000B0F5947F25DA8549B1F90000401C08801FE0A9
S325000009488249002008801BE00098C00A05D35349B1F9000040F0040008800098000A05D365
S325000009684E49B1F9000040F0020008800098400A14D34A49B1F9000040F0010008800DE0C2
S3250000098872487349B0F90000401E085C0D2805D170490020087070490120088008BD08B528
S325000009A8ADF80000BDF9000050B36C480621012200F05EFE42F21070FFF710FE0020ADF804
S325000009C802000BE0BDF902006549095C6548FFF747FDBDF90200401CADF80200BDF90000F9
S325000009E8BDF902108842EDDC5E48FFF748FD0128FAD05A480621002200F03AFEFFF70EFEA5
S32500000A0808BD08B5ADF80000BDF9000050B356480421012200F02CFE42F21070FFF7DEFD63
S32500000A280020ADF802000BE0BDF902004C49095C3448FFF715FDBDF90200401CADF8020005
S32500000A48BDF90000BDF902108842EDDC2D48FFF716FD0128FAD044480421002200F008FE3D
S32500000A68FFF7F8FD08BDADF1100D0192ADF80C100090002002900299019888420CD90098EC
S32500000A88811C0091BDF80C1001800298401C0290019802998842F2D804B070477448012030
S32500000AA808B500900098FFF7F9FC08BD0EB50191009001A810F0030F02D04FF0FF3006E0CD
S32500000AC8009901984FF48072FFF718FD00200EBD0EB5019100900020ADF8080001A810F050
S32500000AE8030F04D04FF0FF30ADF8080007E0009901984FF48072FFF701FDADF80800BDF942
S32500000B0808000EBD00200140ADF1080D8DF800009DF80000302808DB9DF80000392804DCB5
S32500000B289DF800003038C0B20DE09DF80000412808DB9DF80000462804DC9DF80000373883
S32500000B48C0B200E0202002B07047C04652480120B03C01204F510120A24801200070004042
S32500000B68D83D012000E000400050064000B5ADF1140D0090C04900200870C0490020088025
S32500000B88BF4900200860BF4900200860BE4900200870BE4900200870BD4900200870BD4945
S32500000BA800200870009810F8011B5329009002D04FF0FF3050E1009AAF4912F8010B00921C
S32500000BC830380870009911F8010B0091FFF79CFF8DF80C00009911F8010B0091FFF794FFFE
S32500000BE88DF80B009DF80C109DF80B0000EB01108DF80A00A7499DF80A0008709F49088004
S32500000C0811E09E48A1490088C01E08701BE09B489E490088001F087015E098489B49008802
S32500000C28401F08700FE0944800780028E9D0401EE7D0401EEBD0401EEFD0001FEDD0401E26
S32500000C48E5D0401EDDD00020019090E0009911F8010B0091FFF758FF8DF80C00009911F8E6
S32500000C68010B0091FFF750FF8DF80B009DF80C109DF80B0000EB01108DF80A0085499DF8B5
S32500000C880A200878801808709DF80A000190009911F8010B0091FFF737FF8DF80C000099C7
S32500000CA811F8010B0091FFF72FFF8DF80B009DF80C109DF80B0000EB01108DF80A00754932
S32500000CC89DF80A2008788018087001999DF80A0000EB01200190009911F8010B0091FFF7AC
S32500000CE813FF8DF80C00009911F8010B0091FFF70BFF8DF80B009DF80C109DF80B0000EB38
S32500000D0801108DF80A0063499DF80A2008788018087001999DF80A0000EB012001900099BB
S32500000D2811F8010B0091FFF7EFFE8DF80C00009911F8010B0091FFF7E7FE8DF80B009DF84C
S32500000D480C109DF80B0000EB01108DF80A0051499DF80A2008788018087001999DF80A001C
S32500000D6800EB0120019016E06FF0010074E0424800780028AFD0401EADD0401E87D0401E87
S32500000D883FF464AF001F3FF461AF401E3FF47FAF401EA0D0E8E70198394908603B493848BA
S32500000DA80A78006837498018401E08600020ADF8080028E0009911F8010B0091FFF7A4FEB1
S32500000DC88DF80C00009911F8010B0091FFF79CFE8DF80B009DF80C109DF80B0000EB0110C8
S32500000DE88DF80A002B499DF80A20087880180870254ABDF908109DF80A005054BDF9080055
S32500000E08401CADF808002148BDF9081000788842D0DC009911F8010B0091FFF775FE8DF869
S32500000E280C00009911F8010B0091FFF76DFE8DF80B009DF80C2016499DF80B0000EB0210AB
S32500000E48087014481249007809784840FF2801D1002001E06FF0030005B000BDADF1080D53
S32500000E6800900098000D02D04FF0FF3002E00098800B00B202B070472040012022400120CB
S32500000E8824400120284001202C4001202C4101202D4101202E41012008B5A94800780128AD
S32500000EA814D0A7480078022810D0A548007803280CD0A3480078072808D0A1480078082868
S32500000EC804D09F480078092840F0A0809D480078002840F39B809C480068FFF7BFFF9149A3
S32500000EE8088091498F48B1F90010B0F90000884207D095480068FFF7D3FD8A488A4900886F
S32500000F08088092480068FFF7A9FF8649088086498448B1F90010B0F90000884207D08B4892
S32500000F280068FFF7BDFD7F487F490088088086487E49006820F0FF00086084487C4900687F
S32500000F4820F0FF0008607B49784809680068884216D07948B0F90000002804DD754877490F
S32500000F680068FFF7A3FD75484FF6FF718022FFF77AFD7149002008806C486E490068086047
S32500000F887148006800F0FF00ADF800006D49BDF900000978C0F5807000F07FFBADF80200EB
S32500000FA8664BBDF90000C849BDF90220C018FFF702FA6149BDF90220B1F9000080180880BD
S32500000FC85B485A490068096888421FD057485B490068FFF76BFD59484FF6FF718022FFF734
S32500000FE842FD5848BDF9022053490078801A0880B548BDF90210504A0918B2F900204F4814
S32500001008FFF7D9F94A484B49006808604C480078072807D04A480078082803D048480078DD
S3250000102809280BD14448B0F90000002804DD414842490068FFF73AFD002000E0012008BDC8
S32500001048ADF1080DADF80000A049BDF80000088002B0704708B5ADF80000BDF900100A2049
S3250000106891FBF0F0ADF80000BDF900000A2290FBF2F15143401AADF80000BDF9000020B9DF
S325000010884FF48070FFF7DCFF45E0BDF90000012804D14FF40070FFF7D3FF3CE0BDF9000018
S325000010A8022804D14FF48060FFF7CAFF33E0BDF90000032804D14FF40060FFF7C1FF2AE015
S325000010C8BDF90000042803D10120FFF7B9FF22E0BDF90000052803D10220FFF7B1FF1AE002
S325000010E8BDF90000062803D10420FFF7A9FF12E0BDF90000072803D10820FFF7A1FF0AE015
S32500001108BDF90000082803D11020FFF799FF02E02020FFF795FF08BDD9480088C011400816
S32500001128FAD370476A48012092480120E43301203C4801204448012090480120304101203A
S32500001148204001202C410120244001202840012010B5ADF5887DADF80001BDF80001ADF8F7
S325000011680201BDF90201002811D4BDF90211584BBDF90201564A595C401C1154BDF90201A4
S32500001188401EADF80201BDF902010028EDD55049002008704FF4807268460021FFF7EEF887
S325000011A80020ADF80201BDF9020104281ADABDF90241BDF90211464B454A012000EB44004E
S325000011C813F81110105CBDF9022101EB00212DF81210BDF90201401CADF80201BDF90201C6
S325000011E80428E4DBD2480088ADF806010020ADF80801D048008880134008FAD2CE4900205C
S3250000120808800020ADF80401BDF90401042811DABDF90411BDF90421C8483DF8111020F878
S325000012281210BDF90401401CADF80401BDF904010428EDDBBDF80601BE49000240F0010018
S325000012480880BC49088840F480400880B948008880134008FAD2BDF80801B0F57A7F11DA70
S32500001268B4480088C01340080CD3B3480088400808D3B14900200880BDF80801401CADF8DB
S325000012880801D7E7CF49002008800020ADF80201BDF90201B0F5947F13DABDF90201CA4AC6
S325000012A800211154BDF90201094A00211154BDF90201401CADF80201BDF90201B0F5947FDA
S325000012C8EBDB44B010BDC0462C40012034000080D83D012010B5ADF58C7D95490020088006
S325000012E80020ADF810014FF4807200216846FFF745F863480088C0114008C0F00D816048A1
S325000013088B49008800F47C5008805D48008800F03F00ADF810010020ADF8000125E000201E
S32500001328ADF80201BDF90201042819DABDF90021C248BDF90211BDF9003100EBC200BDF92B
S32500001348022130F811000DEBC30121F81200BDF90201401CADF80201BDF902010428E5DBDA
S32500001368BDF90001401CADF80001BDF81001BDF900118842D3DCB2480088ADF80A01BDF8B9
S325000013881001C000ADF810010020ADF8080165E0BDF90801811000EB5170C010ADF804012F
S325000013A8BDF90801811000EB517121F00701401A00EBD0704010ADF80601BDF9080100EBDE
S325000013C8D07121F00101401A15D1BDF90411BDF90601BDF90A41BDF908210DEBC1017A4B84
S325000013E831F810001219C11100EB116121F0FF01401A985412E0BDF90411BDF90601BDF9C5
S325000014080A310DEBC101704A31F81000BDF90811C41100EB1460C91800125054BDF90A215B
S32500001428BDF9080168498018085C0D2805D08449B1F90000401C088003E081490020088078
S3250000144812E0BDF90A11BDF908014018B0F5947F0ADCBDF90801401CADF80801BDF8100177
S32500001468BDF90811884293DC7548B0F9000000284DD10020ADF80C010020ADF80E0106E01E
S32500001488480300A0BDF90C01401CADF80C01BDF90C014D49085C5328F4D104E0BDF80E01DD
S325000014A8401CADF80E01BDF80E014749085C0D28F4D1BDF80E01401CADF80E01BDF90C11B5
S325000014C8BDF80E01401AADF80E010020ADF804010FE0BDF90C41BDF904013B4ABDF9041165
S325000014E8394B0019105C5854BDF90401401CADF80401BDF80E01BDF904118842E9DCBDF895
S325000015080E01314A002111542E49012008804F49088840F0400008804A49088840F0040016
S3250000152808804949088840F00400088046B010BD94480120460300A0440300A0000200A005
S325000015480EB5ADF80210ADF8000044494FF0FF300880434900200860424900200880012073
S32500001568ADF804000020ADF80600BDF90400002857D0BDF90200B0F5005F07D1BDF9000096
S3250000158820B9FFF7C9FDFFF7A5FE0CE0BDF9000010B9FFF749F901E0FFF782F80948B0F921
S325000015A800000028F2D00848FFF7E0FA00280DD52D492120087026490D20087025490A202E
S325000015C808700CE0A2480120B03C01202649062008701F490D2008701E490A200870FFF768
S325000015E85BFCADF80400BDF9000060B9BDF90200B0F5805F03D10320FFF703FA06E00320DF
S32500001608FFF7A6FD02E00320FFF7C9F9BDF90600411CADF80610FFF71DFDBDF904000028A0
S32500001628A7D1124800684FF47A71B0FBF1F10A48FEF7BEFF0848FEF7C4FFFEE7000400A012
S325000016484E480120580300A0600300A0480300A0D93D0120DA3D0120001000409248012022
S325000016684448012090480120D83D0120404801201CB58DF805208DF8041000909DF804405A
S325000016889DF804309DF8052000980121A1409A40C9B2D2B2FEF77CFF1CBDADF1080D0191B7
S319000016A8009001980099884201DD009800E0019802B0704744
S325000016C000B5ADF12C0DADF810000021142205A82CF068FBB549BDF9100040F2262202FB05
S325000016E00010B3492DF0A6F9B349BDF9100031F91020B049742010FB02F07438085AADF8C3
S325000017001200BDF8120040B9BDF91000AA49AB4A31F91010002022F81100BDF912001CF0DA
S3250000172099FF01281ED0BDF912001CF065FF012836D0BDF91000A04931F91020A049742007
S3250000174010FB02F07438085A50BBBDF910009A49984A31F91010742010FB01F0002174383B
S3250000176011521DE0BDF912001CF046FF012817D0BDF9100090498F4A31F91010742010FB79
S3250000178001F0002174381152BDF910008A498C4A31F91010742010FB01F0002174381152A9
S325000017A0BDF812100A20B1FBF0F030308DF81400BDF812000A2290FBF2F15143401A3030EE
S325000017C08DF81500BDF91000784940F2262202FB0010142205A92DF038F8BDF910007349A8
S325000017E040F2262202FB0010714905222DF02DF8BDF91000704931F910004FF4D05111FB10
S3250000180000F07049A0F5D050401803C842F2107200232CF0B0F902AA82E8030003200090D7
S3250000182002200190BDF9100002A991E80C001DF0CDF90BB000BD00B5ADF12C0DADF810006D
S325000018400021142205A82CF0ADFA5849BDF9100040F2262202FB001055492DF0EBF8564990
S32500001860BDF9100031F910205249742010FB02F07438085AADF81200BDF8120040B9BDF9DB
S3250000188010004D494D4A31F91010002022F81100BDF912001CF0DEFE01281ED0BDF91200E1
S325000018A01CF0AAFE012836D0BDF91000424931F910204349742010FB02F07438085A50BB5E
S325000018C0BDF910003C493B4A31F91010742010FB01F00021743811521DE0BDF912001CF057
S325000018E08BFE012817D0BDF910003349314A31F91010742010FB01F0002174381152BDF9CC
S3250000190010002D492E4A31F91010742010FB01F0002174381152BDF812100A20B1FBF0F02C
S3250000192030308DF81400BDF812000A2290FBF2F15143401A30308DF81500BDF910001B4935
S3250000194040F2262202FB0010142205A92CF07DFFBDF91000154940F2262202FB0010144976
S3250000196005222CF072FFBDF91000134931F910004FF4D05111FB00F01349A0F5D050401888
S3250000198003C842F2107200232CF0F5F802AA82E803000320009002200190BDF9100002A9A4
S325000019A091E80C001DF012F90BB000BDF42401204A5101202C310120E4470120B84701202D
S325000019C034310120001200201812002030B5ADF12C0DADF81C00002101220DF126002CF0FE
S325000019E0E1F900210E2203A82CF0DCF9884ABDF91C10012022F81100BDF91C00854940F248
S32500001A00262212FB00F0085C8DF826009DF826003038ADF82000BDF91C008049BDF91C30E7
S32500001A2040F2262212FB00F07B4A085C40F2262111FB03F150547749BDF91C00BDF91C304F
S32500001A4040F2262212FB00F0754A085C40F2262111FB03F150540020ADF81E0087E1BDF9C8
S32500001A601E40BDF91C106F4A092040F2262300EB440003FB0121405C8DF826009DF8260072
S32500001A803038ADF82200BDF91E40BDF91C10654A082040F2262300EB440003FB0122C94C64
S32500001AA0BDF91E10BDF91C30825C01EBC10040F226210A3001FB03414254BDF91E40BDF95C
S32500001AC01C10584A092040F2262300EB440003FB0122BC4CBDF91E10BDF91C30825C01EB86
S32500001AE0C10040F226210B3001FB03414254B649BDF92220742010FB02F07438085AADF85A
S32500001B002400BDF8240080B1BDF91C00AF4931F9100003AA4100885E401C8852BDF92200AB
S32500001B2003AA4100885E401C8852BDF924001CF091FD012818D0BDF924001CF05DFD0128A7
S32500001B402AD0BDF92220A249742010FB02F07438085A08BBBDF922109B4A742010FB01F0E3
S32500001B6000217438115217E0BDF924001CF044FD012811D0BDF92210934A742010FB01F0B2
S32500001B80002174381152BDF92210914A742010FB01F0002174381152BDF91E10BDF824408F
S32500001BA0BDF91C20874B0A2001EBC101B4FBF0F040F226240C31303004FB02328854BDF916
S32500001BC01E20BDF824007F4DBDF91C400A2302EBC20290FBF3F10D32594340F22623401A0D
S32500001BE0303003FB04515054BDF9220074494FF4D05212FB00F0A0F5D05008580090009854
S32500001C00002811D420208DF82A000098019011E014480120871E0120FC240120861E01205F
S32500001C20FD240120801E0120A0208DF82A000098404201900198000E02900298402802D076
S32500001C4002980D2807D10298401C02909DF82A0008308DF82A00BDF91E00BDF91C20594B3F
S32500001C609DF8081040F2262400EBC0000F3004FB02328154019820F07F4002900298000CA3
S32500001C8002900298402802D002980D2807D10298401C02909DF82A00001D8DF82A00BDF968
S32500001CA01E00BDF91C20474B9DF8081040F2262400EBC000103004FB0232815401986FF365
S32500001CC01F4002900298000A02900298402802D002980D2807D10298401C02909DF82A0015
S32500001CE0801C8DF82A00BDF91E00BDF91C20354B9DF8081040F2262400EBC000113004FB39
S32500001D0002328154019800F0FF0002900298402802D002980D2807D10298401C02909DF802
S32500001D202A00401C8DF82A00BDF91E00BDF91C20244B9DF8081040F2262400EBC00012301D
S32500001D4004FB02328154BDF91E00BDF91C201D4B9DF82A1040F2262400EBC0000E3004FB14
S32500001D6002328154BDF91E00401CADF81E00BDF92000BDF91E1088423FF771AE0020ADF8C3
S32500001D801E00BDF91E00072815DABDF91E000DEB4000B0F90C0028B9BDF91E100D4A002030
S32500001DA022F81100BDF91E00401CADF81E00BDF91E000728E9DB00208DF826000BB030BDC5
S32500001DC0B8100020F42401202C310120E447012034310120B8470120F0B5ADF1340DADF843
S32500001DE01C00002101220AA82BF0DCFF00210E2203A82BF0D7FFB04ABDF91C10022022F8D0
S32500001E001100BDF91C00AD4940F2262212FB00F0085C8DF828009DF828003038ADF822006F
S32500001E20BDF91C00A649BDF91C3040F2262212FB00F0A44A085C40F2262111FB03F15054F3
S32500001E409E49BDF91C00BDF91C3040F2262212FB00F09D4A085C40F2262111FB03F15054E2
S32500001E600020ADF81E002FE2BDF91E40BDF91C10964A092040F2262300EB440003FB01219F
S32500001E80405C8DF828009DF828003038ADF82400BDF91E40BDF91C108C4A082040F2262396
S32500001EA000EB440003FB0121CF4CBDF91E20BDF91C30415C40F22625D00000EB82100A301B
S32500001EC005FB03428154BDF91E40804ABDF91C10092040F2262300EB440003FB0121C24C21
S32500001EE0BDF91E20BDF91C30415C40F22625D00000EB82100B3005FB034281540020ADF865
S32500001F002000BDF920000A2880F2B2810020ADF82600BDF9240065494FF4D05212FB00F019
S32500001F20A0F5D050BDF92020085E904202DC1320ADF82600BDF92420AC49742010FB02F05C
S32500001F407438085AD8B1BDF92420A849594B742010FB02F074380A5A5549500000EB820059
S32500001F60085EB3F97420824209DDBDF924209F49742010FB02F07438085AADF82600BDF80A
S32500001F80260080B1BDF91C00994931F9100003AA4100885E401C8852BDF9240003AA410024
S32500001FA0885E401C8852BDF926001CF053FB012818D0BDF926001CF01FFB01282AD0BDF9DD
S32500001FC024208C49742010FB02F07438085A08BBBDF92410854A742010FB01F0002174386A
S32500001FE0115217E0BDF926001CF006FB012811D0BDF924107D4A742010FB01F00021743880
S325000020001152BDF924107B4A742010FB01F0002174381152BDF91E30BDF82660BDF92010C3
S32500002020BDF91C40704D0A20DA00B6FBF0F0C1EBC10102EB8312303040F2262352180C32C3
S3250000204003FB04515054BDF91E50BDF92020BDF82600654FBDF91C600A24EB00C2EBC2021E
S3250000206090FBF4F103EB851361439B1840F22624401A0D33303004FB06715854BDF924009B
S32500002080A649BDF920204FF4D05313FB00F0A0F5D050401850F8220000900098002817D43F
S325000020A020208DF82C000098019017E02C110020925001209050012014480120871E012065
S325000020C0861E0120FC240120FD240120801E0120A0208DF82C000098404201900198000E30
S325000020E002900298402802D002980D2807D10298401C02909DF82C0008308DF82C00BDF9E5
S325000021001E30BDF92000BDF91C40374D9DF80820D900C0EBC00001EB831140F226230918E2
S325000021200F3103FB04500A54019820F07F4002900298000C02900298402802D002980D28D4
S3250000214007D10298401C02909DF82C00001D8DF82C00BDF91E30BDF92000BDF91C40224D2F
S325000021609DF80820D900C0EBC00001EB831140F226230918103103FB04500A5401986FF350
S325000021801F4002900298000A02900298402802D002980D2807D10298401C02909DF82C004E
S325000021A0801C8DF82C00BDF91E30BDF92000BDF91C400D4D9DF80820D900C0EBC00001EB99
S325000021C0831140F226230918113103FB04500A54019800F0FF000290029840280CD0029845
S325000021E00D2811D108E0C046F42401202C310120E4470120343101200298401C02909DF82E
S325000022002C00401C8DF82C00BDF91E30BDF92000BDF91C40C74D9DF80820D900C0EBC0007E
S3250000222001EB831140F226230918123103FB04500A54BDF91E30BDF92000BDF91C40BD4D93
S325000022409DF82C20D900C0EBC00001EB831140F2262309180E3103FB04500A54BDF9200072
S32500002260401CADF82000BDF920000A28FFF64EAEBDF92400B0494FF4D05212FB00F0A0F574
S32500002280D050085E0A280FDABDF9240024494FF4D05212FB00F0A0F5D05041F22C22401860
S325000022A0115A41F480711152BDF92400A24A4FF4D05111FB00F00021A0F5D0501152BDF90F
S325000022C01E00401CADF81E00BDF92200BDF91E1088423FF7C9AD0020ADF81E00BDF91E00D2
S325000022E0072815DABDF91E000DEB4000B0F90C0028B9BDF91E100B4A002022F81100BDF9DE
S325000023001E00401CADF81E00BDF91E000728E9DB00208DF828000DB0F0BDC046D410002072
S3250000232000000020B8470120F0B5ADF1340DADF81C00002101220AA82BF034FD00210E227F
S3250000234003A82BF02FFDAF4ABDF91C10022022F81100BDF91C00AC4940F2262212FB00F01F
S32500002360085C8DF828009DF828003038ADF82200BDF91C00A549BDF91C3040F2262212FB11
S3250000238000F0A34A085C40F2262111FB03F150549D49BDF91C00BDF91C3040F2262212FB98
S325000023A000F09C4A085C40F2262111FB03F150540020ADF81E002DE2BDF91E40BDF91C10D8
S325000023C0954A092040F2262300EB440003FB0121405C8DF828009DF828003038ADF82400EE
S325000023E0BDF91E40BDF91C108B4A082040F2262300EB440003FB01214E4CBDF91E20BDF9D6
S325000024001C30415C40F22625D00000EB82100A3005FB03428154BDF91E407F4ABDF91C10F0
S32500002420092040F2262300EB440003FB0121414CBDF91E20BDF91C30415C40F22625D00036
S3250000244000EB82100B3005FB034281540020ADF82000BDF920000A2880F2B0810020ADF84F
S325000024602600BDF9240034494FF4D05212FB00F0A0F5D050BDF92020085E904202DC132083
S32500002480ADF82600BDF924206449742010FB02F07438085AD8B1BDF924206049604B7420BA
S325000024A010FB02F074380A5A5E49500000EB8200085EB3F97420824209DDBDF924205749BB
S325000024C0742010FB02F07438085AADF82600BDF8260080B1BDF91C00534931F9100003AA2B
S325000024E04100885E401C8852BDF9240003AA4100885E401C8852BDF926001CF0ABF80128E1
S325000025001CD0BDF926001CF077F801282ED0BDF924204649742010FB02F07438085A28BB40
S32500002520BDF924103D4A742010FB01F00021743811521BE0F42401202C110020BDF92600F7
S325000025401CF05AF8012811D0BDF92410334A742010FB01F0002174381152BDF92410334A7F
S32500002560742010FB01F0002174381152BDF91E30BDF82660BDF92010BDF91C40BB4D0A202C
S32500002580DA00B6FBF0F0C1EBC10102EB8312303040F2262352180C3203FB04515054BDF9AA
S325000025A01E50BDF92020BDF82600B04FBDF91C600A24EB00C2EBC20290FBF4F103EB851325
S325000025C061439B1840F22624401A0D33303004FB06715854BDF92400A349BDF920204FF407
S325000025E0D05313FB00F0A0F5D050401850F822000090009800281BD420208DF82C00009875
S3250000260001901BE014480120871E0120861E0120FC240120FD240120801E01202C31012060
S325000026209050012092500120E447012034310120A0208DF82C000098404201900198000EFB
S3250000264002900298402802D002980D2807D10298401C02909DF82C0008308DF82C00BDF97F
S325000026601E30BDF92000BDF91C40804D9DF80820D900C0EBC00001EB831140F22623091834
S325000026800F3103FB04500A54019820F07F4002900298000C02900298402802D002980D286F
S325000026A007D10298401C02909DF82C00001D8DF82C00BDF91E30BDF92000BDF91C406B4D81
S325000026C09DF80820D900C0EBC00001EB831140F226230918103103FB04500A5401986FF3EB
S325000026E01F4002900298000A02900298402802D002980D2807D10298401C02909DF82C00E9
S32500002700801C8DF82C00BDF91E30BDF92000BDF91C40564D9DF80820D900C0EBC00001EBEA
S32500002720831140F226230918113103FB04500A54019800F0FF0002900298402802D00298E9
S325000027400D2807D10298401C02909DF82C00401C8DF82C00BDF91E30BDF92000BDF91C4024
S32500002760424D9DF80820D900C0EBC00001EB831140F226230918123103FB04500A54BDF9FE
S325000027801E30BDF92000BDF91C40384D9DF82C20D900C0EBC00001EB831140F22623091837
S325000027A00E3103FB04500A54BDF92000401CADF82000BDF920000A28FFF650AEBDF9240058
S325000027C02B494FF4D05212FB00F0A0F5D050085E0A280FDABDF9240026494FF4D05212FB2C
S325000027E000F0A0F5D05041F22C224018115A41F480711152BDF924001D4A4FF4D05111FBB0
S3250000280000F00021A0F5D0501152BDF91E00401CADF81E00BDF92200BDF91E1088423FF7DA
S32500002820CBAD0020ADF81E00BDF91E00072815DABDF91E000DEB4000B0F90C0028B9BDF9ED
S325000028401E10D44A002022F81100BDF91E00401CADF81E00BDF91E000728E9DB00208DF87C
S3250000286028000DB0F0BDC04604110020F42401202C1100200000002030B5ADF1340DADF866
S32500002880100000210E2268462BF08CFA002101220DF12E002BF086FA002114220DF11A0008
S325000028A02BF080FABC49BDF9100031F91000002840F30F81BDF91000B74931F9100006285F
S325000028C000F30781BDF91000B34931F91020DA49742010FB02F07438085A0A21B0FBF1F0E2
S325000028E030308DF81A00BDF91000AB4931F91020D149742010FB02F07438085A0A2290FB4F
S32500002900F2F15143401A30308DF81B00BDF91000CA4940F2262202FB001014220DF11A0131
S325000029202BF093FFBDF91000C44940F2262202FB0010D54905222BF088FFBDF910009649FE
S3250000294031F91020D149742010FB02F07438085A0A21B0FBF1F030308DF81A00BDF91000E2
S325000029608D4931F91020C949742010FB02F07438085A0A2290FBF2F15143401A30308DF803
S325000029801B00BDF91000844931F91020BF49742010FB02F07438085AADF81800BDF81800F8
S325000029A040B9BDF910007C497A4A31F91010002022F81100BDF918001BF04CFE01281ED0FA
S325000029C0BDF918001BF018FE012836D0BDF91000714931F91020CF49742010FB02F07438A4
S325000029E0085A50BBBDF910006B49A84A31F91010742010FB01F00021743811521DE0BDF93B
S32500002A0018001BF0F9FD012817D0BDF9100062499E4A31F91010742010FB01F00021743887
S32500002A201152BDF910005C49BA4A31F91010742010FB01F0002174381152BDF910007F4926
S32500002A4040F2262202FB001014220DF11A012BF0FCFEBDF91000794940F2262202FB001076
S32500002A60894905222BF0F1FED7480088ADF81800BDF91000BDF8181006F058FABDF9100038
S32500002A806E4940F2262202FB00107F4905222BF0DCFECE480088ADF81800BDF91000BDF838
S32500002AA0181006F043FABDF91000644940F2262202FB0010744905222BF0C7FED148008856
S32500002AC0ADF81800BDF91000BDF8181006F0A0F9B5E1BDF91000304931F91000002840F09A
S32500002AE0AE81BDF91000D74940F2262212FB00F0085C8DF82E009DF82E003038ADF8140049
S32500002B0000208DF82E000020ADF8120038E0BDF91240BDF91010CC4A062040F2262300EB6D
S32500002B20440003FB0121BDF91240444BBDF91020415C40F22625082005FB023200EB440009
S32500002B408154BDF91240C04ABDF91010072040F2262300EB440003FB0121BDF91240374B37
S32500002B60BDF91020415C40F22625092005FB023200EB44008154BDF91200401CADF8120013
S32500002B80BDF91400BDF912108842C0DA0020ADF812002FE1B8470120E4470120BDF91240CE
S32500002BA0BDF91010A84A092040F2262300EB440003FB0121405C8DF82E009DF82E003038DA
S32500002BC0ADF81600BDF910001C4940F2262202FB00102D4905222BF038FEBDF91620164949
S32500002BE0742010FB02F07438085A0A21B0FBF1F030308DF81A00BDF916200F49742010FB97
S32500002C0002F07438085A0A2290FBF2F15143401A30308DF81B00BDF91000084940F2262295
S32500002C2002FB001014220DF11A012BF00EFEBDF91000024904E0C0462E310120F424012057
S32500002C4040F2262202FB00100F4905222BF0FDFDBDF916200D49742010FB02F07438085A72
S32500002C600A21B0FBF1F030308DF81A00BDF916200649742010FB02F07438085A0A2290FB07
S32500002C80F2F1514304E0C0464A5101202C310120401A30308DF81B00BDF91620CD497420A3
S32500002CA010FB02F07438085AADF81800BDF8180088B1FFE7BDF91000D04931F910006A4691
S32500002CC04100885E401C8852BDF916006A464100885E401C8852BDF918001BF0BBFC0128FF
S32500002CE01AD0BDF918001BF087FC01282CD0BDF916200849742010FB02F07438085A18BBB4
S32500002D00BDF91610B34A742010FB01F000217438115219E034310120BDF918001BF06CFC54
S32500002D20012811D0BDF91610AA4A742010FB01F0002174381152BDF91610CE4A742010FB60
S32500002D4001F0002174381152BDF91000D64940F2262202FB001014220DF11A012BF075FD04
S32500002D60BDF91000D04940F2262202FB0010CF4905222BF06AFD14480088ADF81800BDF9CF
S32500002D801000BDF8181006F0D1F8BDF91000C64940F2262202FB0010C44905222BF055FD84
S32500002DA00A480088ADF81800BDF91000BDF8181006F0BCF8BDF91000BB4940F2262202FBE8
S32500002DC00010BA49052203E09A480120AC4801202BF03BFD0B480088ADF81800BDF9100007
S32500002DE0BDF8181006F014F8BDF91200401CADF81200FFE7BDF91400BDF9121088423FF78B
S32500002E00CDAE01E0604801200020ADF81200BDF91200072813DABDF912003DF9100028B9DD
S32500002E20BDF91210B84A002022F81100BDF91200401CADF81200BDF912000728EBDB0DB012
S32500002E4030BDC046871E0120801E012030B5ADF1340DADF8100000210E2268462AF0A2FFC1
S32500002E60002101220DF12E002AF09CFF002114220DF11A002AF096FF6049BDF9100031F970
S32500002E801000002840F3D780BDF910005B4931F91000062800F3CF80BDF91000574931F9C6
S32500002EA01020DA49742010FB02F07438085A0A21B0FBF1F030308DF81A00BDF910004F4906
S32500002EC031F91020D149742010FB02F07438085A0A2290FBF2F15143401A30308DF81B0051
S32500002EE0BDF91000704940F2262202FB001014220DF11A012BF0A9FCBDF910006A4940F20C
S32500002F00262202FB0010694905222BF09EFCBDF910003A4931F910202E49742010FB02F01D
S32500002F207438085A0A21B0FBF1F030308DF81A00BDF91000314931F910202649742010FB1F
S32500002F4002F07438085A0A2290FBF2F15143401A30308DF81B00BDF91000284931F9102052
S32500002F601C49742010FB02F07438085AADF81800BDF8180040B9BDF910002049624A31F9BF
S32500002F801010002022F81100BDF918001BF062FB012821D0BDF918001BF02EFB01283DD038
S32500002FA0BDF91000154931F910203249742010FB02F07438085A88BBBDF910000F49054AC3
S32500002FC031F91010742010FB01F000217438115224E0C0462C310120BDF918001BF00CFB79
S32500002FE001281BD0BDF910000449D74A31F91010742010FB01F0002102E0C046E447012054
S3250000300074381152BDF91000D6491A4A31F91010742010FB01F0002174381152BDF9100082
S32500003020214940F2262202FB001014220DF11A012BF00BFC67E1BDF91000CA4931F91000CD
S32500003040002840F06081BDF91000D14940F2262212FB00F0085C8DF82E009DF82E00303898
S32500003060ADF8140000208DF82E000020ADF8120040E0C04634310120BDF91240BDF910105D
S32500003080D34A062040F2262300EB440003FB0121BDF91240CF4BBDF91020415C40F22625FB
S325000030A0082005FB023203E0F42401204A51012000EB44008154BDF91240C54ABDF91010E5
S325000030C0072040F2262300EB440003FB0121BDF91240C04BBDF91020415C40F226250920BD
S325000030E005FB023200EB44008154BDF91200401CADF81200BDF91400BDF912108842BBDAB6
S325000031000020ADF81200DCE0B8470120BDF91240BDF91010AE4A092040F2262300EB44004D
S3250000312003FB0121405C8DF82E009DF82E003038ADF81600BDF91000A64940F2262202FB08
S325000031400010B44905222BF080FBBDF916202F49742010FB02F07438085A0A21B0FBF1F0E5
S3250000316030308DF81A00BDF916202849742010FB02F07438085A0A2290FBF2F15143401AC6
S3250000318030308DF81B00BDF91000924940F2262202FB001014220DF11A012BF056FBBDF990
S325000031A010008C4940F2262202FB0010994905222BF04BFBBDF916206349742010FB02F00A
S325000031C07438085A0A21B0FBF1F030308DF81A00BDF916205C49742010FB02F07438085AF5
S325000031E00A2290FBF2F15143401A30308DF81B00BDF916205449742010FB02F07438085A19
S32500003200ADF81800BDF8180098B101E02E310120BDF91000534931F910006A464100885E01
S32500003220401C8852BDF916006A464100885E401C8852BDF918001BF00DFA012818D0BDF9D2
S3250000324018001BF0D9F901282AD0BDF916207249742010FB02F07438085A08BBBDF916106B
S32500003260394A742010FB01F000217438115217E0BDF918001BF0C0F9012811D0BDF9161096
S32500003280314A742010FB01F0002174381152BDF91610614A742010FB01F0002174381152A6
S325000032A0BDF910004B4940F2262202FB001014220DF11A012BF0C9FABDF91200401CADF831
S325000032C01200BDF91400BDF9121088423FF71EAF0020ADF81200BDF91200072813DABDF9F6
S325000032E012003DF9100028B9BDF91210CE4A002022F81100BDF91200401CADF81200BDF9C3
S3250000330012000728EBDB0DB030BD0EB5ADF808001449BDF9080031F91000D3494FF47472EC
S3250000332012FB00F0A0F57470085AADF80A000020009000200190BDF90A20BDF90800D31717
S325000033401BF044FC0EBDC0462C3101200EB5ADF808000449BDF9080031F91000D2494FF4BA
S32500003360747201E0E447012012FB00F0A0F57470085AADF80A000020009000200190BDF996
S325000033800A20BDF90800D3171BF020FC0EBDC046871E01200EB5ADF80800D949BDF9080047
S325000033A031F91000C1494FF4747212FB00F0A0F57470085AADF80A000320009000200190AF
S325000033C0BDF90A20BDF90800D3171BF0FFFB0EBD801E0120F42401200EB5ADF80800C84916
S325000033E0BDF9080031F91000B1494FF4747212FB00F0A0F57470085AADF80A000120009074
S3250000340000200190BDF90A20BDF90800D3171BF0DDFB0EBD4A5101203431012030B5ADF1FA
S325000034201C0DADF80800002101220DF112002AF0B9FCB349BDF9080031F91000002821DD73
S32500003440BDF90800AE4931F9100006281ADCBDF90800AB4931F9100096494FF4747212FB52
S3250000346000F0A0F57470085AADF810000120009000200190BDF91020BDF90800D3171BF0CB
S32500003480A5FB93E0BDF908009D4931F91000002840F08C80BDF90800874940F2262212FBBC
S325000034A000F0085C8DF812009DF812003038ADF80C000020ADF80A0038E0BDF90A40BDF9BE
S325000034C00810D04A062040F2262300EB440003FB0121BDF90A40CC4BBDF90820415C40F200
S325000034E02625082005FB023200EB44008154BDF90A40C44ABDF90810072040F2262300EBB2
S32500003500440003FB0121BDF90A40BF4BBDF90820415C40F22625092005FB023200EB4400B3
S325000035208154BDF90A00401CADF80A00BDF90C00BDF90A108842C0DA0020ADF80A002FE011
S32500003540BDF90A40BDF90810AE4A092040F2262300EB440003FB0121405C8DF812009DF8E4
S3250000356012003038ADF80E00BDF90E0051494FF4747212FB00F0A0F57470085AADF8100004
S325000035800120009001200190BDF91020BDF90800D3171BF01BFBBDF90A00401CADF80A0048
S325000035A0BDF90C00BDF90A108842C9DC00208DF8120007B030BD0EB5ADF808005049BDF9EA
S325000035C0080031F9100091494FF4747212FB00F0A0F57470085AADF80A0000200090022047
S325000035E00190BDF90A20BDF90800D3171BF0EEFA4349BDF9080031F9100085494FF474723E
S3250000360012FB00F0A0F57470085AADF80A000020009000200190BDF90A20BDF90800D31734
S325000036201BF0D4FA0EBDC046B84701200EB5ADF808003349BDF9080031F91000C5494FF485
S32500003640747212FB00F0A0F57470085AADF80A000220009000200190BDF90A20BDF90800F6
S32500003660D3171BF0B3FA0EBDA4F700200EB5ADF808002349BDF9080031F91000B6494FF406
S32500003680747212FB00F0A0F57470085AADF80A000020009000200190BDF90A20BDF90800B8
S325000036A0D3171BF093FA0EBDA0F70020A6F70020A8F70020AAF70020871E012000B5ADF1AA
S325000036C01C0DADF810000E49BDF9100031F91000BE494FF4747212FB00F0A0F57470085AA7
S325000036E00FFA90F000F0FF00ADF818000020009000200190BDF91820BDF9100002E0C04692
S32500003700E4470120D3171BF061FACA49BDF9100031F91000AE494FF4747212FB00F0A0F542
S325000037207470401802900020ADF81200BDF912000F2827DA02980088ADF816000298801CCB
S32500003740029002980088ADF81400BDF81410BDF8160000EB01400390012000900120019030
S32500003760039ABDF91000D3171BF030FA0298801C0290BDF91200401CADF81200BDF9120056
S325000037800F28D7DBBDF91000AA4931F9100091494FF4747212FB00F0A0F5747040180290E4
S325000037A00020ADF81200BDF912000F2827DA02980088ADF816000298801C02900298008865
S325000037C0ADF81400BDF81410BDF8160000EB014003900120009001200190039ABDF9100001
S325000037E0D3171BF0F3F90298801C0290BDF91200401CADF81200BDF912000F28D7DB07B0D7
S3250000380000BDC046801E0120F4240120ACF70020AEF7002000B5ADF11C0DADF81000854960
S32500003820BDF9100031F910006B494FF4747212FB00F0A0F57470085E0FFA90F000F0FF0051
S32500003840ADF818000020009000200190BDF91820BDF91000D3171BF0B9F97649BDF9100064
S3250000386031F910005D494FF4747212FB00F0A0F57470401802900020ADF81200BDF912003A
S325000038800F2827DA02980088ADF816000298801C029002980088ADF81400BDF81410BDF8DC
S325000038A0160000EB014003900320009001200190039ABDF91000D3171BF088F90298801CB9
S325000038C00290BDF91200401CADF81200BDF912000F28D7DBBDF91000564931F91000C34919
S325000038E04FF4747212FB00F0A0F57470401802900020ADF81200BDF912000F2827DA0298C8
S325000039000088ADF816000298801C029002980088ADF81400BDF81410BDF8160000EB0140EB
S3250000392003900320009001200190039ABDF91000D3171BF04BF90298801C0290BDF912005D
S32500003940401CADF81200BDF912000F28D7DB07B000BDC046B0F70020B4F700200EB5ADF829
S3250000396008003449BDF9080031F91000A0494FF4747212FB00F0A0F57470085AADF80A002B
S325000039800020009002200190BDF90A20BDF90800D3171BF01BF92749BDF9080031F91000AF
S325000039A094494FF4747212FB00F0A0F57470085AADF80A000120009000200190BDF90A2032
S325000039C0BDF90800D3171BF001F90EBDACF90020B0F90020ECF9002032F9002034F900203E
S325000039E030B5ADF1240DADF800000021012207A82AF0D8F90021142202A82AF0D3F90D494D
S32500003A00BDF9000031F91000002839DDBDF90000084931F91000062832DCBDF900000549F1
S32500003A2031F910207449742010FB02F07438085A0A2101E0E4470120B0FBF1F030308DF801
S32500003A400800BDF90000D34931F910206A49742010FB02F07438085A0A2290FBF2F15143AC
S32500003A60401A30308DF80900BDF90000D24940F2262202FB0010142202A92AF0E6FEB3E02E
S32500003A80BDF90000C34931F91000002840F0AC80BDF90000C94940F2262212FB00F0085CFD
S32500003AA08DF81C009DF81C003038ADF8040000208DF81C000020ADF8020038E0BDF9024005
S32500003AC0BDF90010BE4A062040F2262300EB440003FB0121BDF90240B74BBDF90020415CB5
S32500003AE040F22625082005FB023200EB44008154BDF90240B24ABDF90010072040F2262387
S32500003B0000EB440003FB0121BDF90240AA4BBDF90020415C40F22625092005FB023200EB2B
S32500003B2044008154BDF90200401CADF80200BDF90400BDF902108842C0DA0020ADF80200FE
S32500003B404CE0BDF90240BDF900109D4A092040F2262300EB440003FB0121405C8DF81C005E
S32500003B609DF81C003038ADF80600BDF90000924940F2262202FB0010AD4905222AF065FEC9
S32500003B80BDF906201C49742010FB02F07438085A0A21B0FBF1F030308DF80800BDF90620BF
S32500003BA01549742010FB02F07438085A0A2290FBF2F15143401A30308DF80900BDF90000D6
S32500003BC07D4940F2262202FB0010142202A92AF03CFEBDF90200401CADF80200BDF90400E8
S32500003BE0BDF902108842ACDC09B030BD70F90020B8F70020B6F700202E31012000B5ADF107
S32500003C002C0DADF810000021142206A82AF0CAF86049BDF9100031F9100086494FF474722E
S32500003C2012FB00F0A0F57470085A0290BDF91000029905F0D7F96049BDF9100040F2262205
S32500003C4002FB00107A4905222AF0FFFD7A48B0F90000B0F5805F0CD1002002900020009023
S32500003C6002200190029ABDF9100000231AF0AEFF0BE0012002900020009002200190029AB2
S32500003C80BDF9100000231AF0A1FFBDF91000414931F9100069494FF4747212FB00F0A0F594
S32500003CA07470401803900020ADF81200BDF91200082851DA03980088ADF81400BDF914008F
S32500003CC0C11100EB11600012ADF81600BDF91600302803DBBDF91600392807DDBDF9160004
S32500003CE041280ADBBDF916005A2806DCBDF912109DF816000DEB41010876BDF91400C11169
S32500003D0000EB116121F0FF01401AADF81600BDF91600302803DBBDF91600392807DDBDF951
S32500003D20160041280CDBBDF916005A2808DCBDF912209DF81610012000EB420068440176D1
S32500003D400398801C0390BDF91200401CADF81200BDF912000828ADDBBDF91000164940F2E1
S32500003D60262202FB0010142206A92AF06EFD3248B0F90000B0F5805F0ED100200290002026
S32500003D80009001200190029ABDF9100000231AF01DFF0EE0E447012028F0FAF8029000203A
S32500003DA0009001200190BDF91000029A00231AF00DFF0BB000BDC046F4240120871E0120A3
S32500003DC0801E01200EB5ADF80400D449BDF9040031F9100017494FF4747212FB00F0A0F586
S32500003DE07470085A00900099BDF9040005F0B6F9CB49BDF9040040F2262202FB00100C4946
S32500003E0005222AF022FDC549BDF9040031F910000B494FF4747212FB00F0A0F57470085AE5
S32500003E200090BDF90400009905F098F90EBDC0464A51012014FB00205C48012018FB00205F
S32500003E4016FB002010B5ADF1400DADF82000002101220FA829F0A6FF002114220AA829F0DB
S32500003E60A1FFBDF92000B049BDF9203040F2262212FB00F0AD4A085C40F2262111FB03F17C
S32500003E805054AB49BDF92000BDF9203040F2262212FB00F0A34A085C40F2262111FB03F167
S32500003EA05054A349BDF9200040F2262212FB00F0085C8DF83C009DF83C003038ADF82400F8
S32500003EC0BDF9240010B90A20ADF8240000208DF83C00BDF92010924840F2262202FB01002D
S32500003EE0944905222AF0B1FCBDF920008B4931F91000D6494FF4747212FB00F0A0F574704F
S32500003F00085A07900020009002200190BDF92000079AD3171AF05AFECD4800680790002048
S32500003F20009002200190BDF92000079AD3171AF04DFEBDF920007949BDF92430C54A31F9A7
S32500003F4010104FF4BE64982014FB01F110FB03F0A1F5BE61983889180918B1F90200079095
S32500003F600020009002200190BDF92000079AD3171AF02CFEBDF920006849BDF92430B54AB3
S32500003F8031F910104FF4BE64982014FB01F110FB03F0A1F5BE619838891809184868079027
S32500003FA00020009002200190BDF92000079AD3171AF00CFEBDF920005849BDF92430A54AB3
S32500003FC031F910004FF4BE64982114FB00F011FB03F1A0F5BE6098398018085E0A2190FB4C
S32500003FE0F1F030308DF82800BDF920004B49BDF92430984A31F910004FF4BE64982114FB10
S3250000400000F011FB03F1A0F5BE6098398018085E0A2290FBF2F15143401A30308DF8290092
S32500004020BDF920103E4840F2262202FB010014220AA92AF00AFCBDF92010394840F22622AC
S3250000404002FB01003B4905222AF0FFFBBDF92410324A982010FB01F0BDF9201032F9111051
S325000040604FF4BE6212FB01F17A4A9838A1F5BE6189180918C86807900220009002200190A1
S32500004080BDF92000079AD3171AF0A0FDBDF92410224A982010FB01F0BDF9201032F91110D6
S325000040A04FF4BE6212FB01F16A4A9838A1F5BE61891809180869079003200090022001902F
S325000040C0BDF92000079AD3171AF080FDBDF92410124A982010FB01F0BDF9201032F91110C6
S325000040E04FF4BE6212FB01F15A4A9838A1F5BE6189180918486907900020009002200190C2
S32500004100BDF92000079AD3171AF060FDBDF92410024A982010FB01F00EE0C046E4470120A7
S32500004120F4240120FE240120861E0120FD240120871E01204A510120BDF9201032F9111042
S325000041404FF4BE6212FB01F1424A9838A1F5BE6189180918183103C9002342F2107229F01D
S325000041600AFD04AA82E803000320009002200190BDF9200004A991E80C001AF027FDBDF9C5
S325000041802410CB4A982010FB01F0BDF9201032F911104FF4BE6212FB01F12E4A9838A1F5AA
S325000041A0BE6189180918086A07900020009002200190BDF92000079AD3171AF007FDBDF987
S325000041C02410BB4A982010FB01F0BDF9201032F911104FF4BE6212FB01F11E4A9838A1F58A
S325000041E0BE6189180918486A07900020009002200190BDF92000079AD3171AF0E7FCBDF928
S325000042002410AB4A982010FB01F0BDF9201032F911104FF4BE6212FB01F10E4A9838A1F569
S32500004220BE6189180918886A02AA4001C11782E80300094802AA00210CCA904299410DDAEC
S325000042400548002102AA82E8030015E0B6FA002068520120009C0020FFE0F505934802AA15
S325000042604FF0FF310CCA82428B4105DA8F484FF0FF3102AA82E803000020009002200190C2
S32500004280BDF9200002A991E80C001AF09FFCBDF92410874A982010FB01F0BDF9201032F9ED
S325000042A011104FF4BE6212FB01F1CF4A9838A1F5BE6189180918C86A07900020009002207A
S325000042C00190BDF92000079AD3171AF07FFCBDF92410774A982010FB01F0BDF9201032F9F1
S325000042E011104FF4BE6212FB01F1BF4A9838A1F5BE6189180918086B079000200090022009
S325000043000190BDF92000079AD3171AF05FFCBDF92410674A982010FB01F0BDF9201032F9E0
S3250000432011104FF4BE6212FB01F1AF4A9838A1F5BE6189180918888EADF82600BDF92000FD
S32500004340BDF8261004F064FDBDF92010B94840F2262202FB0100B84905222AF076FABDF950
S325000043602410534A982010FB01F0BDF9201032F911104FF4BE6212FB01F19B4A9838A1F5D3
S32500004380BE6189180918B1F9360007900020009002200190BDF92000079AD3171AF016FCDF
S325000043A0BDF92410424A982010FB01F0BDF9201032F911104FF4BE6212FB01F18A4A983895
S325000043C0A1F5BE6189180918B1F9380007900020009002200190BDF92000079AD3171AF019
S325000043E0F5FBBDF92410324A982010FB01F0BDF9201032F911104FF4BE6212FB01F17A4A55
S325000044009838A1F5BE6189180918B1F93A0007900020009002200190BDF92000079AD31710
S325000044201AF0D4FBBDF92410214A982010FB01F0BDF9201032F911104FF4BE6212FB01F100
S32500004440694A9838A1F5BE6189180918B1F93C0007900020009002200190BDF92000079A05
S32500004460D3171AF0B3FBBDF92410114A982010FB01F0BDF9201032F911104FF4BE6212FBF9
S3250000448001F1594A9838A1F5BE6189180918B1F93E0007900020009002200190BDF9200082
S325000044A0079AD3171AF092FB04E0C046011F0AFAE447012061480088ADF82600BDF8261093
S325000044C0BDF9200004F032FDBDF92010594840F2262202FB0100584905222AF0B6F9BDF997
S325000044E02000D549BDF924303F4A31F910104FF4BE64982014FB01F110FB03F0A1F5BE61CA
S32500004500983889180918B1F84000ADF82600BDF92000BDF8261004F009FDBDF92010454821
S3250000452040F2262202FB0100434905222AF08DF943480088ADF82600BDF92000BDF826100B
S3250000454004F066FCBDF920103A4840F2262202FB0100394905222AF078F932480088ADF844
S325000045602600BDF92000BDF8261004F051FC2E480088ADF82600BDF92000BDF8261004F08F
S3250000458047FC2A480088ADF82600BDF92000BDF8261004F03DFC26480088ADF82600BDF9A8
S325000045A02000BDF8261004F033FCBDF92000A249BDF924300C4A31F910104FF4BE6498203F
S325000045C014FB01F110FB03F0A1F5BE61983889180918423106910020ADF82200BDF92200C6
S325000045E028281CDA02E0C046009C00200698008807900020009001200190079ABDF9200035
S32500004600D3171AF0E3FA0698801C0690BDF92200401CADF82200BDF922002828E6DB10B04F
S3250000462010BDC04662480120644801206648012068480120F42401204A5101209A48012071
S325000046406048012010B5ADF1400DADF81C00002101220EA829F0A6FB0021142209A829F045
S32500004660A1FBBDF91C007B49BDF91C3040F2262212FB00F0784A085C40F2262111FB03F1EA
S3250000468050547649BDF91C00BDF91C3040F2262212FB00F0724A085C40F2262111FB03F1CD
S325000046A050546E49BDF91C0040F2262212FB00F0085C8DF838009DF838003038ADF8200035
S325000046C0BDF9200010B90A20ADF8200000208DF83800C949BDF91C0040F2262202FB0010FE
S325000046E0C64905222AF0B1F8BDF91C00524931F91000C3494FF4747212FB00F0A0F5747069
S32500004700085A06900020009002200190069ABDF91C00D3171AF05AFABA480068069000205E
S32500004720009002200190069ABDF91C00D3171AF04DFABDF91C004049BDF92030B24A31F9FC
S3250000474010104FF4BE64982014FB01F110FB03F0A1F5BE61983889180918B1F9020006908E
S325000047600020009002200190BDF91C00069AD3171AF02CFABDF91C002F49BDF92030A24A08
S3250000478031F910104FF4BE64982014FB01F110FB03F0A1F5BE619838891809184868069020
S325000047A00020009002200190BDF91C00069AD3171AF00CFABDF91C001F49BDF92030924A08
S325000047C031F910004FF4BE64982114FB00F011FB03F1A0F5BE6098398018085E0A2190FB44
S325000047E0F1F030308DF82400BDF91C001249BDF92030854A31F910004FF4BE64982114FB60
S3250000480000F011FB03F1A0F5BE6098398018085E0A2290FBF2F15143401A30308DF825008E
S32500004820BDF91C00744940F2262202FB0010142209A92AF00AF801E0E4470120BDF91C0059
S325000048406D4940F2262202FB00106C49052229F0FCFF07E0861E0120FD240120871E012071
S32500004860FE240120BDF92010CC4A982010FB01F0BDF91C1032F911104FF4BE6212FB01F1AF
S32500004880614A9838A1F5BE6189180918C86806900220009002200190BDF91C00069AD31799
S325000048A01AF094F9BDF92010BC4A982010FB01F0BDF91C1032F911104FF4BE6212FB01F12B
S325000048C0514A9838A1F5BE6189180918086906900320009002200190BDF91C00069AD31727
S325000048E01AF074F9BDF92010AC4A982010FB01F0BDF91C1032F911104FF4BE6212FB01F11B
S32500004900414A9838A1F5BE618918091849696420484306900220009002200190BDF91C0031
S32500004920069AD3171AF052F9BDF920109B4A982010FB01F0BDF91C1032F911104FF4BE6282
S3250000494012FB01F1304AA1F5BE618918A04A98380918183103C9002329F00DF904AA82E838
S3250000496003000120009002200190BDF91C0004A991E80C001AF02AF9002006900020009033
S3250000498002200190BDF91C00069AD3171AF01EF9002006900020009002200190BDF91C00F6
S325000049A0069AD3171AF012F9BDF920107B4A982010FB01F0BDF91C1032F911104FF4BE6262
S325000049C012FB01F1104A9838A1F5BE6189180918886A02AA4001C11782E803007D4802AA9C
S325000049E000210CCA9042994110DA7A48002102AA82E8030018E0C046F42401204A51012035
S32500004A00B6FA002068520120009C0020724802AA4FF0FF310CCA82428B4105DA6E484FF01A
S32500004A20FF3102AA82E803000020009002200190BDF91C0002A991E80C001AF0C7F80020D9
S32500004A4006900020009002200190BDF91C00069AD3171AF0BBF800200690002000900220B6
S32500004A600190BDF91C00069AD3171AF0AFF8BDF920104A4A982010FB01F0BDF91C1032F957
S32500004A8011104FF4BE6212FB01F1554A9838A1F5BE6189180918888EADF82200BDF91C00F8
S32500004AA0BDF8221004F0B4F9BDF91C00B64940F2262202FB00104949052229F0C6FE00205A
S32500004AC006900020009002200190BDF91C00069AD3171AF07BF8BDF92010304A982010FBDB
S32500004AE001F0BDF91C1032F911104FF4BE6212FB01F13B4A9838A1F5BE6189180918B1F9B9
S32500004B00380006900020009002200190BDF91C00069AD3171AF05AF8BDF920101F4A98209F
S32500004B2010FB01F0BDF91C1032F911104FF4BE6212FB01F12A4A9838A1F5BE618918091828
S32500004B40B1F93A0006900020009002200190BDF91C00069AD3171AF039F800200690002005
S32500004B60009002200190BDF91C00069AD3171AF02DF8002006900020009000200190BDF994
S32500004B801C00069AD3171AF021F80020ADF81E00BDF91E00282818DA02E0C046E447012019
S32500004BA0002006900020009001200190069ABDF91C00D3171AF00AF8BDF91E00401CADF89A
S32500004BC01E00BDF91E002828EADB10B010BDC04640420F00FFE0F505011F0AFA4A510120EB
S32500004BE0009C002030B5ADF1240DADF814000021012207A829F0D6F8D649BDF9140040F291
S32500004C00262212FB00F0085C8DF81C009DF81C003038ADF8180000208DF81C000020ADF8E8
S32500004C20160038E0BDF91640BDF91410D44A062040F2262300EB440003FB0121BDF9164040
S32500004C40514BBDF91420415C40F22625082005FB023200EB44008154BDF91640C84ABDF97A
S32500004C601410072040F2262300EB440003FB0121BDF91640444BBDF91420415C40F226257A
S32500004C80092005FB023200EB44008154BDF91600401CADF81600BDF91800BDF91610884256
S32500004CA0C0DA0020ADF81600E2E0BDF91400B44940F2262202FB0011BDF91620092000EB68
S32500004CC04200405C8DF81C009DF81C003038ADF81A00BDF91A004FF4747111FB00F0D0496A
S32500004CE0A0F57470085E04900220009001200190BDF91400049AD31719F068FFBDF91A0045
S32500004D004FF4747111FB00F05E49A0F57470085A04900020009001200190BDF91400049A89
S32500004D20D31719F053FFBDF91A004FF4747111FB00F05549A0F57470085A04900020009077
S32500004D4001200190BDF91400049AD31719F03EFFBDF91A004FF4747111FB00F0AF49A0F582
S32500004D607470085802AA4001C11782E80300AD4802AA00210CCA9042994107DAA948002180
S32500004D8002AA82E803000FE0F4240120AE4802AA4FF0FF310CCA82428B4105DAAA484FF045
S32500004DA0FF3102AA82E803000020009001200190BDF9140002A991E80C0019F007FFBDF983
S32500004DC01A004FF4747111FB00F0CE49A0F57470085A04900020009001200190BDF91400DD
S32500004DE0049AD31719F0F2FEBDF91A004FF4747111FB00F0C449A0F57470085A049000209C
S32500004E00009001200190BDF91400049AD31719F0DDFEBDF91A004FF4747111FB00F0BB491C
S32500004E20A0F57470085A04900020009001200190BDF91400049AD31719F0C8FEBDF91A00AA
S32500004E404FF4747111FB00F0B149A0F57470085A04900020009001200190BDF91400049AF5
S32500004E60D31719F0B3FEBDF91600401CADF81600BDF91800BDF9161088423FF716AF09B07D
S32500004E8030BDC04640FA002042FA002030B5ADF1240DADF814000021012207A828F082FF6A
S32500004EA02C49BDF9140040F2262212FB00F0085C8DF81C009DF81C003038ADF8180000203B
S32500004EC08DF81C000020ADF8160038E0BDF91640BDF914102A4A062040F2262300EB44000E
S32500004EE003FB0121BDF916408A4BBDF91420415C40F22625082005FB023200EB4400815447
S32500004F00BDF916401E4ABDF91410072040F2262300EB440003FB0121BDF916407D4BBDF9C2
S32500004F201420415C40F22625092005FB023200EB44008154BDF91600401CADF81600BDF923
S32500004F401800BDF916108842C0DA0020ADF81600CEE0C046871E0120BDF91400084940F251
S32500004F60262202FB0011BDF91620092000EB4200405C8DF81C009DF81C00303802E0C04655
S32500004F80801E0120ADF81A00BDF91A004FF4747111FB00F02249A0F57470085E0490022099
S32500004FA0009001200190BDF91400049AD31719F00DFE002004900020009001200190BDF977
S32500004FC01400049AD31719F001FE002004900020009001200190BDF91400049AD31719F0B6
S32500004FE0F5FDBDF91A004FF4747111FB00F00B49A0F57470085802AA4001C11782E8030066
S32500005000084802AA00210CCA904299410CDA0548002102AA82E8030018E0C04644FA002022
S32500005020B0F70020FFE0F505074802AA4FF0FF310CCA82428B4109DA03484FF0FF3102AAB1
S3250000504082E8030002E0C046011F0AFA0020009001200190BDF9140002A991E80C0019F06C
S32500005060B5FD002004900020009001200190BDF91400049AD31719F0A9FDBDF91A004FF44E
S32500005080747111FB00F02049A0F57470085A04900020009001200190BDF91400049AD3179D
S325000050A019F094FDBDF91A004FF4747111FB00F01649A0F57470085A0490002000900120BD
S325000050C00190BDF91400049AD31719F07FFD002004900020009001200190BDF91400049AE4
S325000050E0D31719F073FDBDF91600401CADF81600BDF91800BDF9161088423FF72DAF09B025
S3250000510030BDC0464EFA002050FA002052FA002056FA0020F424012000B5ADF1140DADF896
S325000051200C00C949BDF90C0031F91000C7494FF4747212FB00F0A0F57470085E0290002088
S32500005140009002200190029ABDF90C00D31719F03DFDBD49BDF90C0031F91000CC494FF421
S32500005160747212FB00F0A0F57470085E02900120009002200190029ABDF90C00D31719F020
S3250000518025FDB149BDF90C0031F91000C1494FF4747212FB00F0A0F57470085E0290002030
S325000051A0009002200190029ABDF90C00D31719F00DFDA549BDF90C0031F91000B6494FF41F
S325000051C0747212FB00F0A0F57470085E02900020009002200190029ABDF90C00D31719F0C1
S325000051E0F5FC9949BDF90C0031F91000C7494FF4747212FB00F0A0F57470085E0290002013
S32500005200009002200190029ABDF90C00D31719F0DDFC8D49BDF90C0031F91000BC494FF401
S32500005220747212FB00F0A0F57470085E02900020009002200190029ABDF90C00D31719F060
S32500005240C5FC8149BDF90C0031F91000B1494FF4747212FB00F0A0F57470085E0290002010
S32500005260009002200190029ABDF90C00D31719F0ADFC7549BDF90C0031F91000A6494FF4FF
S32500005280747212FB00F0A0F57470085E02900020009002200190029ABDF90C00D31719F000
S325000052A095FC6949BDF90C0031F910009B494FF4747212FB00F0A0F57470085E029000200E
S325000052C0009002200190029ABDF90C00D31719F07DFC5D49BDF90C0031F9100090494FF4FD
S325000052E0747212FB00F0A0F57470085A02900220009000200190029ABDF90C00D31719F0A4
S3250000530065FC05B000BD00B5ADF1140DADF80C00002002900020009000200190029ABDF92A
S325000053200C00D31719F052FC05B000BD0EB5ADF808004549BDF9080031F9100079494FF4AD
S32500005340747212FB00F0A0F57470085AADF80A000020009002200190BDF90A20BDF90800D9
S32500005360D31719F033FC3849BDF9080031F91000D0494FF4747212FB00F0A0F57470085A72
S32500005380ADF80A000020009000200190BDF90A20BDF90800D31719F019FC0EBD0EB5ADF81E
S325000053A008002949BDF9080031F91000C2494FF4D05212FB00F0A0F5D050085AADF80A0042
S325000053C00020009000200190BDF90A20BDF90800D31719F0FBFB0EBD0EB5ADF808001A4941
S325000053E0BDF9080031F91000B4494FF4747212FB00F0A0F57470085AADF80A000020009052
S3250000540002200190BDF90A20BDF90800D31719F0DDFB0D49BDF9080031F91000A8494FF4E8
S32500005420747212FB00F0A0F57470085AADF80A000020009000200190BDF90A20BDF90800FA
S32500005440D31719F0C3FB0EBDE44701204EF8002000B5ADF1140DADF80C00D149BDF90C0017
S3250000546031F91000CD494FF4747212FB00F0A0F57470085802900220009000200190029A46
S32500005480BDF90C00D31719F0A1FB05B000BDC04654F8002056F8002050F800200EB5ADF893
S325000054A00800BF49BDF9080031F91000BD494FF4747212FB00F0A0F57470085AADF80A0028
S325000054C00020009002200190BDF90A20BDF90800D31719F07BFBB249BDF9080031F9100069
S325000054E0B1494FF4747212FB00F0A0F57470085AADF80A000320009000200190BDF90A20B8
S32500005500BDF90800D31719F061FB0EBD52F8002058F800205AF800205CF800205EF8002077
S3250000552060F8002068F8002000B5ADF12C0DADF80C00002114220DF1160028F033FC00205E
S32500005540ADF810000220009002200190BDF91020BDF90C00D31719F039FB0020ADF8100087
S325000055600220009002200190BDF91020BDF90C00D31719F02BFB0020ADF810000220009078
S3250000558002200190BDF91020BDF90C00D31719F01DFB0020ADF81000022000900220019065
S325000055A0BDF91020BDF90C00D31719F00FFB0020ADF810000220009002200190BDF9102020
S325000055C0BDF90C00D31719F001FB7549BDF90C0031F9100075494FF4747212FB00F0A0F5E1
S325000055E07470401802900020ADF80E00BDF90E00082851DA02980088ADF81200BDF9120044
S32500005600C11100EB11600012ADF81400BDF91400302803DBBDF91400392807DDBDF91400B2
S3250000562041280ADBBDF914005A2806DCBDF90E109DF814000DEB41018875BDF91200C1119A
S3250000564000EB116121F0FF01401AADF81400BDF91400302803DBBDF91400392807DDBDF9FE
S32500005660140041280CDBBDF914005A2808DCBDF90E209DF81410012000EB42006844817503
S325000056800298801C0290BDF90E00401CADF80E00BDF90E000828ADDBBDF90C00C54940F2EB
S325000056A0262202FB001014220DF1160129F0CDF80BB000BD6AF80020A010002064F8002020
S325000056C066F800200EB5ADF808003549BDF9080031F9100036494FF4D05212FB00F0A0F5EA
S325000056E0D050085AADF80A000020009002200190BDF90A20BDF90800D31719F067FA2849AD
S32500005700BDF9080031F910002A494FF4D05212FB00F0A0F5D050085AADF80A00022000903E
S3250000572002200190BDF90A20BDF90800D31719F04DFA1B49BDF9080031F910001E494FF4D2
S32500005740D05212FB00F0A0F5D050085AADF80A000020009002200190BDF90A20BDF908005D
S32500005760D31719F033FA0E49BDF9080031F9100012494FF4D05212FB00F0A0F5D050085AE0
S32500005780ADF80A000020009000200190BDF90A20BDF90800D31719F019FA0EBD78F80020F4
S325000057A0E44701206CF800206EF8002018FB002030120020321200203612002034120020C6
S325000057C000B5ADF12C0DADF82000CB49BDF9200031F91000401EADF82400C849BDF9200040
S325000057E040F2262212FB00F0085C302800F0DC82BDF9200040F2262111FB00F0BF49085C6B
S32500005800BDF9201040F2262212FB01F1BC4A5054BDF92010674840F2262202FB0100B9496A
S32500005820052229F012F8BDF92000B34931F910004FF4D05111FB00F0B349A0F5D05008589B
S3250000584006900220009002200190BDF92000069AD31719F0BBF9BDF92000A74931F910002A
S325000058604FF4D05111FB00F05349A0F5D0500858642190FBF1F00690032000900220019024
S32500005880BDF92000069AD31719F0A0F9BDF92000994931F910004FF4D05111FB00F09B49CA
S325000058A0A0F5D050085E642111FB00F006900220009002200190BDF92000069AD31719F0E2
S325000058C085F9BDF920008C4931F910004FF4D05111FB00F08E49A0F5D050401803C842F21C
S325000058E01072002328F047F904AA82E803000320009002200190BDF9200004A991E80C001C
S3250000590019F064F9BDF92400002114F0B9FD8DED070A079828F0FBFE24A20CCA28F006F879
S3250000592028F079FA02460320009002200190BDF920000B4619F04AF9BDF92400012114F0B5
S325000059409FFD8DED070A079828F0E1FE17A20CCA27F0ECFF28F05FFA024603200090022065
S325000059600190BDF920000B4619F030F9BDF92000614931F910004FF4D05111FB00F00F49C5
S32500005980A0F5D050085802AA4001C11782E80300604802AA00210CCA9042994110DA5D4834
S325000059A0002102AA82E8030018E0C0460000000000408F40F4240120B010002060100020F1
S325000059C0554802AA4FF0FF310CCA82428B4105DA51484FF0FF3102AA82E8030000200090F3
S325000059E002200190BDF9200002A991E80C0019F0EDF8BDF924004FF4D05111FB00F0C449B3
S32500005A00085E06900020009002200190BDF92000069AD31719F0DAF8BDF924004FF4D051A8
S32500005A2011FB00F0BB49085E06900020009002200190BDF92000069AD31719F0C7F8BDF923
S32500005A4020002D4931F91010742010FB01F0CD497438085A0690BDF92000BDF8181003F070
S32500005A60D7F9BDF92010CE4840F2262202FB01002449052228F0E9FEBDF924004FF4D0510B
S32500005A8011FB00F0C049085E00F0FF0000020690BDF924004FF4D05111FB00F0BB49085E6A
S32500005AA0069900F0FF00091806910020009002200190BDF92000069AD31719F087F8BDF999
S32500005AC020000D4931F91000401E00B214F0F0F806900020009002200190BDF92000069AA5
S32500005AE0D31719F073F8BDF92000034931F91000AC494FF4D05211E0E4470120871E012089
S32500005B00FD2401204A510120B8100020A010002000120020FFE0F505011F0AFA12FB00F09D
S32500005B20A0F5D050085E06900020009002200190BDF92000069AD31719F048F8BDF92400C8
S32500005B4093494FF4D05212FB00F0085E41F6FF71A0F6FF70400290FBF1F0069000200090FB
S32500005B6002200190BDF92000069AD31719F02EF8BDF9240087494FF4747212FB00F0085EA7
S32500005B8006900020009000200190BDF92000069AD31719F01BF80020ADF82200BDF92200CD
S32500005BA0052834DABDF924107B4ABDF922004FF4D05303FB012131F9100006900020009017
S32500005BC001200190BDF92000069AD31718F0FEFFBDF92410714ABDF922004FF4D05303FBC7
S32500005BE0012131F9100006900020009001200190BDF92000069AD31718F0E8FFBDF9220024
S32500005C00401CADF82200BDF922000528CADB0020ADF82200BDF92200052834DABDF92410CD
S32500005C20C84ABDF922004FF4D05303FB012131F9100006900020009001200190BDF92000E6
S32500005C40069AD31718F0C2FFBDF92410BE4ABDF922004FF4D05303FB012131F910000690CB
S32500005C600020009001200190BDF92000069AD31718F0ACFFBDF92200401CADF82200BDF9F8
S32500005C8022000528CADB0020ADF82200BDF92200052834DABDF92410AC4ABDF922004FF415
S32500005CA0D05303FB012131F9100006900020009001200190BDF92000069AD31718F086FF7C
S32500005CC0BDF92410A24ABDF922004FF4D05303FB012131F910000690002000900120019058
S32500005CE0BDF92000069AD31718F070FFBDF92200401CADF82200BDF922000528CADB002002
S32500005D00ADF82200BDF92200052880F2B98203E08415002086150020BDF924108D4ABDF936
S32500005D2022004FF4D05303FB012131F9100006900020009001200190BDF92000069AD31723
S32500005D4018F044FFBDF92410834ABDF922004FF4D05303FB012131F910000690002000905D
S32500005D6001200190BDF92000069AD31718F02EFFBDF92200401CADF82200BDF922000528D6
S32500005D80CADB7DE2303101204C0000204A000020120500203AF80020AA050020960500208E
S32500005DA0F424012000000020BDF9200040F2262111FB00F06F49085CBDF9201040F22622BD
S32500005DC012FB01F16C4A5054BDF92010CA4840F2262202FB0100CC49052228F036FDBDF9B7
S32500005DE02000CA4931F910004FF4747111FB00F05A49A0F574700858069002200090022026
S32500005E000190BDF92000069AD31718F0DFFEBDF92000BE4931F910004FF4747111FB00F06B
S32500005E204F49A0F574700858642190FBF1F006900320009002200190BDF92000069AD3179E
S32500005E4018F0C4FEBDF92000B04931F910004FF4747111FB00F04349A0F57470095A642059
S32500005E60484306900220009002200190BDF92000069AD31718F0AAFEBDF92000A34931F99A
S32500005E8010004FF4747111FB00F03749A0F57470401803C842F21072002327F06CFE04AAA4
S32500005EA082E803000320009002200190BDF9200004A991E80C0018F089FEBDF924004FF455
S32500005EC0747111FB00F02949085806900320009002200190BDF92000069AD31718F076FE31
S32500005EE0BDF924004FF4747111FB00F02049085806900320009002200190BDF92000069A63
S32500005F00D31718F063FEBDF92000804931F910004FF4747111FB00F07D49A0F5747008588C
S32500005F2002AA4001C11782E803007A4802AA00210CCA9042994121DA7648002102AA82E828
S32500005F40030029E0820500206E050020FA050020E6050020D2050020BE05002028FA0020AF
S32500005F602CFA002030FA002038FA00205CFA002060FA0020871E0120FD240120C94802AA84
S32500005F804FF0FF310CCA82428B4105DAC5484FF0FF3102AA82E8030000200090022001904F
S32500005FA0BDF9200002A991E80C0018F00FFEBDF924004FF4747111FB00F0B249085E0690CB
S32500005FC00020009002200190BDF92000069AD31718F0FCFDBDF924004FF4747111FB00F0F9
S32500005FE0A949085E06900020009002200190BDF92000069AD31718F0E9FDBDF9200043499A
S3250000600031F910004FF4747111FB00F09F49A0F57470085A0690BDF92000BDF8181002F01E
S32500006020F7FEBDF92010344840F2262202FB01003549052228F009FCBDF924004FF47471C7
S3250000604011FB00F09249085A00F0FF0000020690BDF924004FF4747111FB00F09249085A3F
S32500006060069900F0FF00091806910020009002200190BDF92000069AD31718F0A7FDBDF9AF
S325000060802000224931F910004FF4747111FB00F08649A0F57470085A0690002000900220FF
S325000060A00190BDF92000069AD31718F08FFDBDF92000164931F910004FF4747111FB00F0C2
S325000060C07B49A0F57470085A06900020009002200190BDF92000069AD31718F077FDBDF990
S325000060E024004FF4747111FB00F07249085A41F6FF71A0F6FF7001E0F4240120400290FBA2
S32500006100F1F00690002007E04A510120E447012044FA0020FFE0F505009002200190BDF9C3
S325000061202000069AD31718F051FDBDF924004FF4747111FB00F05749085E0690002000900F
S3250000614000200190BDF92000069AD31718F03EFD0020ADF82200BDF922000A281EDABDF946
S3250000616024104D4ABDF922004FF4747303FB012131F9100006900020009001200190BDF944
S325000061802000069AD31718F021FDBDF92200401CADF82200BDF922000A28E0DB0020ADF8A4
S325000061A02200BDF922000A281EDABDF924103B4ABDF922004FF4747303FB012131F91000EA
S325000061C006900020009001200190BDF92000069AD31718F0FBFCBDF92200401CADF8220067
S325000061E0BDF922000A28E0DB0020ADF82200BDF922000A281EDABDF92410294ABDF92200B6
S325000062004FF4747303FB012131F9100006900020009001200190BDF92000069AD31718F094
S32500006220D5FCBDF92200401CADF82200BDF922000A28E0DB0020ADF82200BDF922000A28D6
S325000062401EDABDF92410C94ABDF922004FF4747303FB012131F91000069000200090012080
S325000062600190BDF92000069AD31718F0AFFCBDF92200401CADF82200BDF922000A28E0DBB4
S325000062800BB000BD58FA00205AFA00204CFA002054FA002064FA002066FA00207AFA002034
S325000062A08EFA0020011F0AFA4EFA002050FA002052FA002040FA002030B5ADF1140DADF82B
S325000062C00800B549BDF90800BDF9083040F2262212FB00F0B14A085C40F2262111FB03F1B7
S325000062E05054A349BDF9080040F2262212FB00F0085C2C2814D1BDF90800A94940F226220C
S3250000630002FB0010A749052228F09FFABDF90800984A40F22623302113FB00F0115423E0D0
S32500006320BDF908009249BDF9083040F2262212FB00F09D4A085C40F2262111FB03F15054F1
S325000063409749BDF9080040F2262202FB00109549052228F07AFABDF90800874A40F2262377
S32500006360302113FB00F01154BDF90800CE4931F9100082494FF4D05212FB00F0A0F5D05072
S32500006380085E78B1BDF90800C74931F910007C494FF4D05212FB00F0A0F5D050085A10F022
S325000063A0FF0F77D1BDF90800714940F2262212FB00F0085C2C2837D1BDF90800764940F223
S325000063C0262212FB00F0085C3038ADF80E00BDF90E0000285ED10020ADF80A00BDF90A0049
S325000063E0B0F5967F56DABDF90800AF49BDF90A20BDF90A30634C31F9100063494FF4D0552A
S3250000640015FB00F0A0F5D050401830F8120024F81300BDF90A00401CADF80A00BDF90A0075
S32500006420B0F5967FDFDB35E0BDF90800504940F2262212FB00F0085C3038ADF80E00BDF9CA
S325000064400E0038BB0020ADF80A00BDF90A00B0F5967F1FDABDF908009349BDF90A20BDF9C3
S325000064600A304A4C31F9100049494FF4D05515FB00F0A0F5D050401830F8120024F813009C
S32500006480BDF90A00401CADF80A00BDF90A00B0F5967FDFDBBDF90E00022846DC0020ADF822
S325000064A00A00BDF90A0064285DDABDF90800304940F2262212FB00F0085C2C2810D1BDF94C
S325000064C00E40BDF90A3033482E4A642101FB0433018832F91300401A0011ADF80C000FE0FB
S325000064E0BDF90E40BDF90A302A48284A642101FB0433018832F91300401A0011ADF80C0023
S325000065000020009001200190BDF90C20BDF90800D31718F05BFBBDF90A00401CADF80A0060
