S00600004844521B
S32500000000881E01200DFE020013FE020015FE020017FE020017FE020017FE02000000000099
S3250000002000000000000000000000000017FE020017FE02000000000017FE020017FE02005E
S3250000004017FE020017FE020017FE020017FE020017FE020017FE020017FE020017FE0200E2
S3250000006017FE020017FE020017FE020017FE020017FE020017FE020017FE020017FE0200C2
S3250000008017FE020017FE02002D99020011E4020017FE020049C3020017FE020089E40200C2
S325000000A017FE020017FE020017FE020017FE020017FE020017FE020017FE020017FE020082
S325000000C017FE020061BE020017FE020069C3020017FE020017FE020017FE020017FE020041
S325000000E017FE020017FE020017FE020017FE020017FE020017FE020017FE020017FE020042
S3250000010017FE020017FE020017FE020017FE020017FE020017FE020017FE020017FE020021
S3250000012017FE020017FE020017FE0200A7BC020017FE020017FE020017FE020099C302006C
S3250000014017FE020017FE020017FE020017FE0200000000000000000017FE020017FE02000F
S3250000016017FE020017FE02000000000017FE020017FE020017FE020017FE020017FE0200D8
S3250000018017FE020017FE020017FE02002BE5020017FE020017FE020017FE020017FE0200A6
S325000001A017FE020017FE020017FE02004BE5020017FE020017FE020017FE020017FE020066
S325000001C017FE020017FE020017FE020017FE020017FE020017FE020017FE020017FE020061
S325000001E017FE020017FE020017FE020017FE020017FE020017FE020017FE020017FE020041
S30D0000020017FE020000000000D9
S3250000020800B5ADF1140DADF80E10ADF80C002FF04EFE4FF080402FF00BFEBDF90C0050B98B
S32500000228BDF90E00B0F5805F02D100F051F804E000F07DF801E000F01CF8A6480290029814
S32500000248B0F5005F00D9FEE7029AA348A3492EF05CFDA249A248401A01909F49019840184B
S325000002680090BDF90C00009ABDF90E10904705B000BD08B59D499C48B1F90020B0F900006D
S32500000288984940EA022008809A499948B1F90020B0F90000B94940EA02200880B84900206D
S325000002A8087031202EF0ACFFB6482FF047FCB649B44809684FF4614266232FF047FAB1480A
S325000002C82FF0E8FCC82000F087F900F0A5F908BD08B586498448B1F90020B0F900008149CD
S325000002E840EA0220088083498148B1F90020B0F90000A24940EA02200880A14900200870D3
S325000003084B202EF07DFFB3482FF018FC9E49B14809684FF4164266232FF018FAAD482FF0E2
S32500000328B9FCC82000F058F900F090F908BD08B5B449088840F040000880B349088820F0B5
S3250000034840000880B14900200880B148502200212EF040FEAF48002150222EF03BFE08BD97
S3250000036808B5ADF80210ADF80000BDF90000BDF9021001F0D9F808BDADF1180D0192ADF856
S325000003881010009000980290002003900399019888420CD90298411C02919DF8101001702E
S325000003A80398401C0390019803998842F2D806B07047ADF1180D02920191009000980390CB
S325000003C801980490002005900599029888420ED90499039811F8012B0491411C03910270DF
S325000003E80598401C0590029805998842F0D806B07047ADF1080D8DF8041000909DF80400B5
S3250000040810B10098006C01E00098C06B02B07047ADF1080D0191009001980099486402B097
S325000004287047ADF1080D0090009881690020490901D3002100E0012101B1012002B070478D
S32500000448ADF1080D009000988069400902D20098006801E04FF0FF3002B07047ADF1080D42
S325000004688DF804100090009880698009FBD29DF804000099086002B07047ADF1080D009028
S32500000488009881690020090901D3012100E0002101B1012002B07047ADF1080D0090784963
S325000004A840F601200860774900980860774876490860754800688008FBD27548006840F6F4
S325000004C80121014202D04FF0FF3000E0002002B07047C0469C14000020820020080200007E
S325000004E86903000090BD00208ABD002088BD00208EBD00208CBD0020ADF1100D0292019194
S3250000050800905F4942F2016008600298002828D001985C4920F07F0008600EE0009B019887
S32500000528B44A53F8041B009300F07C0011500198001D01900298001F0290019810F07C0F2F
S3250000054802D1AD48006810B902980028E6D1AC48AA490860A94800684008FBD2029800289C
S32500000568D6D14B48006842F20161014202D04FF0FF3000E0002004B07047C04692BD0020D2
S325000005887715012000E000405C0C0120ADF1080D8DF805208DF8041000909DF80410009A2E
S325000005A89DF8050042F8210002B07047ADF1080D0191009001980099086002B07047ADF159
S325000005C8080D009000980830016841F00201016002B0704700200140ADF1080DADF8000078
S325000005E80020ADF8020004E0BDF80200401CADF80200BDF80000BDF802108842F4DC02B0C0
S325000006087047C046480300A04A0300A0CA0C0120D80A0120880A012008B5B249002008802A
S32500000628794900200880794850220021FFF7A4FEAD4800215022FFF79FFE72480621002238
S3250000064801F00AF890490120087008BD08B5A549002008806C49002008806C48502200216B
S32500000668FFF78AFEA04800215022FFF785FE68480421002200F0F0FF83490120087008BDFA
S3250000068814D00F4000D00F4008D00F40020042A40CD00F4008B55F480121FFF7AAFE00900C
S325000006A85C480099FFF7B4FE77480078012809D05848FFF7B6FE002800F09B805548FFF7FE
S325000006C8BFFE96E0009810F4B06F68D15148FFF7A8FE00287FD04F48FFF7B2FE8149824A66
S325000006E8B1F9001050547F48B0F9000048B97E48007853286FD17B49B1F90000401C0880D2
S3250000070869E078487849B0F90000085C412806DB74487549B0F90000085C5A2830DD7148DB
S325000007287149B0F90000085C612806DB6D486E49B0F90000085C7A2822DD6A486A49B0F952
S325000007480000085C302806DB66486749B0F90000085C392814DD63486349B0F90000085CCD
S325000007682E280DD05F486049B0F90000085C2C2806D05C485C49B0F90000085C0D280AD14B
S325000007885848B0F90000502825DA5649B1F90000401C08801FE05349002008801BE0009888
S325000007A8C00A05D3B849B1F9000040F0040008800098000A05D3B449B1F9000040F00200CF
S325000007C808800098400A14D3AF49B1F9000040F0010008800DE043484349B0F90000401E54
S325000007E8085C0D2805D128490020087006490120088008BD00D10F4030D00F4020D00F4008
S32500000808010042A400700040CA0C0120D80A01200050064000E0004008B5B5480121FFF7B1
S32500000828E8FD0090B2480099FFF7F2FD16480078012809D0AE48FFF7F4FD002800F0A480CC
S32500000848AB48FFF7FDFD9FE0009810F4B06F71D1A748FFF7E6FD002800F08880A448FFF761
S32500000868EFFD2049204AB1F9001050541D48B0F9000058B91C480078532877D11949B1F983
S325000008880000401C088071E07715012015481649B0F90000085C412806DB12481249B0F9F7
S325000008A80000085C5A2836DD0E480F49B0F90000085C612806DB0B480B49B0F90000085C58
S325000008C87A2828DD07480849B0F90000085C30280CDB04480449B0F90000085C39281ADD79
S325000008E804E0C0467A0C0120880A012092489349B0F90000085C2E280DD08F488F49B0F958
S325000009080000085C2C2806D08B488C49B0F90000085C0D280AD18848B0F90000502825DA86
S325000009288549B1F90000401C08801FE08249002008801BE00098C00A05D35349B1F9000060
S3250000094840F0040008800098000A05D34E49B1F9000040F0020008800098400A14D34A49FC
S32500000968B1F9000040F0010008800DE072487349B0F90000401E085C0D2805D17049002054
S32500000988087070490120088008BD08B5ADF80000BDF9000050B36C480621012200F05CFE47
S325000009A842F21070FFF718FE0020ADF802000BE0BDF902006549095C6548FFF74FFDBDF947
S325000009C80200401CADF80200BDF90000BDF902108842EDDC5E48FFF750FD0128FAD05A4875
S325000009E80621002200F038FEFFF716FE08BD08B5ADF80000BDF9000050B3564804210122AA
S32500000A0800F02AFE42F21070FFF7E6FD0020ADF802000BE0BDF902004C49095C3448FFF74D
S32500000A281DFDBDF90200401CADF80200BDF90000BDF902108842EDDC2D48FFF71EFD012813
S32500000A48FAD044480421002200F006FEFFF7FEFD08BDADF1100D0192ADF80C100090002082
S32500000A6802900299019888420CD90098811C0091BDF80C1001800298401C0290019802991F
S32500000A888842F2D804B070479C0C012008B500900098FFF701FD08BD0EB50191009001A854
S32500000AA810F0030F02D04FF0FF3006E0009901984FF48072FFF720FD00200EBD0EB5019136
S32500000AC800900020ADF8080001A810F0030F04D04FF0FF30ADF8080007E0009901984FF4A5
S32500000AE88072FFF709FDADF80800BDF908000EBD00200140ADF1080D8DF800009DF8000096
S32500000B08302808DB9DF80000392804DC9DF800003038C0B20DE09DF80000412808DB9DF8E4
S32500000B280000462804DC9DF800003738C0B200E0202002B07047C0467A0C0120880A0120FA
S32500000B4877150120CA0C012000700040D80A012000E000400050064000B5ADF1140D009076
S32500000B68C04900200870C04900200880BF4900200860BF4900200860BE4900200870BE494F
S32500000B8800200870BD4900200870BD4900200870009810F8011B5329009002D04FF0FF306B
S32500000BA850E1009AAF4912F8010B009230380870009911F8010B0091FFF79CFF8DF80C007B
S32500000BC8009911F8010B0091FFF794FF8DF80B009DF80C109DF80B0000EB01108DF80A00D3
S32500000BE8A7499DF80A0008709F49088011E09E48A1490088C01E08701BE09B489E49008884
S32500000C08001F087015E098489B490088401F08700FE0944800780028E9D0401EE7D0401E80
S32500000C28EBD0401EEFD0001FEDD0401EE5D0401EDDD00020019090E0009911F8010B009174
S32500000C48FFF758FF8DF80C00009911F8010B0091FFF750FF8DF80B009DF80C109DF80B0043
S32500000C6800EB01108DF80A0085499DF80A200878801808709DF80A000190009911F8010BE0
S32500000C880091FFF737FF8DF80C00009911F8010B0091FFF72FFF8DF80B009DF80C109DF8BF
S32500000CA80B0000EB01108DF80A0075499DF80A2008788018087001999DF80A0000EB01203E
S32500000CC80190009911F8010B0091FFF713FF8DF80C00009911F8010B0091FFF70BFF8DF8D9
S32500000CE80B009DF80C109DF80B0000EB01108DF80A0063499DF80A2008788018087001996A
S32500000D089DF80A0000EB01200190009911F8010B0091FFF7EFFE8DF80C00009911F8010B28
S32500000D280091FFF7E7FE8DF80B009DF80C109DF80B0000EB01108DF80A0051499DF80A2074
S32500000D4808788018087001999DF80A0000EB0120019016E06FF0010074E04248007800284B
S32500000D68AFD0401EADD0401E87D0401E3FF464AF001F3FF461AF401E3FF47FAF401EA0D0C3
S32500000D88E8E70198394908603B4938480A78006837498018401E08600020ADF8080028E052
S32500000DA8009911F8010B0091FFF7A4FE8DF80C00009911F8010B0091FFF79CFE8DF80B005E
S32500000DC89DF80C109DF80B0000EB01108DF80A002B499DF80A20087880180870254ABDF941
S32500000DE808109DF80A005054BDF90800401CADF808002148BDF9081000788842D0DC009905
S32500000E0811F8010B0091FFF775FE8DF80C00009911F8010B0091FFF76DFE8DF80B009DF85F
S32500000E280C2016499DF80B0000EB0210087014481249007809784840FF2801D1002001E0D2
S32500000E486FF0030005B000BDADF1080D00900098000D02D04FF0FF3002E00098800B00B2D1
S32500000E6802B07047580301205A0301205C0301206003012064030120640401206504012062
S32500000E886604012008B5A9480078012814D0A7480078022810D0A548007803280CD0A348BE
S32500000EA80078072808D0A1480078082804D09F480078092840F0A0809D480078002840F3A8
S32500000EC89B809C480068FFF7BFFF9149088091498F48B1F90010B0F90000884207D09548F5
S32500000EE80068FFF7D3FD8A488A490088088092480068FFF7A9FF8649088086498448B1F985
S32500000F080010B0F90000884207D08B480068FFF7BDFD7F487F490088088086487E490068E2
S32500000F2820F0FF00086084487C49006820F0FF0008607B49784809680068884216D07948EE
S32500000F48B0F90000002804DD754877490068FFF7A3FD75484FF6FF718022FFF77AFD71491B
S32500000F68002008806C486E49006808607148006800F0FF00ADF800006D49BDF900000978DE
S32500000F88C0F5807000F07DFBADF80200664BBDF90000C749BDF90220C018FFF70AFA6149C4
S32500000FA8BDF90220B1F90000801808805B485A490068096888421FD057485B490068FFF708
S32500000FC86BFD59484FF6FF718022FFF742FD5848BDF9022053490078801A0880B448BDF90E
S32500000FE80210504A0918B2F900204F48FFF7E1F94A484B49006808604C480078072807D0DC
S325000010084A480078082803D04848007809280BD14448B0F90000002804DD414842490068E6
S32500001028FFF73AFD002000E0012008BDADF1080DADF800009F49BDF80000088002B07047A9
S3250000104808B5ADF80000BDF900100A2091FBF0F0ADF80000BDF900000A2290FBF2F151433B
S32500001068401AADF80000BDF9000020B94FF48070FFF7DCFF45E0BDF90000012804D14FF4B4
S325000010880070FFF7D3FF3CE0BDF90000022804D14FF48060FFF7CAFF33E0BDF90000032863
S325000010A804D14FF40060FFF7C1FF2AE0BDF90000042803D10120FFF7B9FF22E0BDF90000AD
S325000010C8052803D10220FFF7B1FF1AE0BDF90000062803D10420FFF7A9FF12E0BDF900001D
S325000010E8072803D10820FFF7A1FF0AE0BDF90000082803D11020FFF799FF02E02020FFF7A7
S3250000110895FF08BDD8480088C0114008FAD37047920C0120BA0C0120540C0120580C012077
S32500001128600C0120B80C01206804012058030120640401205C0301206003012010B5ADF532
S32500001148887DADF80001BDF80001ADF80201BDF90201002811D4BDF90211574BBDF902018E
S32500001168554A595C401C1154BDF90201401EADF80201BDF902010028EDD54F4900200870BA
S325000011884FF4807268460021FFF7F6F80020ADF80201BDF9020104281ADABDF90241BDF909
S325000011A80211454B444A012000EB440013F81110105CBDF9022101EB00212DF81210BDF925
S325000011C80201401CADF80201BDF902010428E4DBD1480088ADF806010020ADF80801CF4824
S325000011E8008880134008FAD2CD49002008800020ADF80401BDF90401042811DABDF904118D
S32500001208BDF90421C7483DF8111020F81210BDF90401401CADF80401BDF904010428EDDBD6
S32500001228BDF80601BD49000240F001000880BB49088840F480400880B848008880134008B0
S32500001248FAD2BDF80801B0F57A7F11DAB3480088C01340080CD3B2480088400808D3B04952
S3250000126800200880BDF80801401CADF80801D7E7CE49002008800020ADF80201BDF90201F2
S32500001288502812DABDF90201C94A00211154BDF90201094A00211154BDF90201401CADF83E
S325000012A80201BDF902015028ECDB44B010BDC0466403012034000080D80A012010B5ADF5B8
S325000012C88C7D9549002008800020ADF810014FF4807200216846FFF74FF863480088C01156
S325000012E84008C0F00D8160488B49008800F47C5008805D48008800F03F00ADF810010020DC
S32500001308ADF8000125E00020ADF80201BDF90201042819DABDF90021C248BDF90211BDF914
S32500001328003100EBC200BDF9022130F811000DEBC30121F81200BDF90201401CADF802010B
S32500001348BDF902010428E5DBBDF90001401CADF80001BDF81001BDF900118842D3DCB24821
S325000013680088ADF80A01BDF81001C000ADF810010020ADF8080164E0BDF90801811000EB9E
S325000013885170C010ADF80401BDF90801811000EB517121F00701401A00EBD0704010ADF874
S325000013A80601BDF9080100EBD07121F00101401A15D1BDF90411BDF90601BDF90A41BDF99B
S325000013C808210DEBC1017A4B31F810001219C11100EB116121F0FF01401A985412E0BDF9C5
S325000013E80411BDF90601BDF90A310DEBC101704A31F81000BDF90811C41100EB1460C9188B
S3250000140800125054BDF90A21BDF9080168498018085C0D2805D08449B1F90000401C088056
S3250000142803E081490020088011E0BDF90A11BDF90801401850280ADCBDF90801401CADF852
S325000014480801BDF81001BDF90811884294DC7648B0F9000000284ED10020ADF80C01002006
S32500001468ADF80E0107E0C046480300A0BDF90C01401CADF80C01BDF90C014D49085C5328C9
S32500001488F4D104E0BDF80E01401CADF80E01BDF80E014749085C0D28F4D1BDF80E01401CEF
S325000014A8ADF80E01BDF90C11BDF80E01401AADF80E010020ADF804010FE0BDF90C41BDF953
S325000014C804013B4ABDF90411394B0019105C5854BDF90401401CADF80401BDF80E01BDF9B9
S325000014E804118842E9DCBDF80E01314A002111542E49012008804F49088840F04000088035
S325000015084A49088840F0040008804949088840F00400088046B010BDBC0C0120460300A06B
S32500001528440300A0000200A00EB5ADF80210ADF8000044494FF0FF3008804349002008605E
S325000015484249002008800120ADF804000020ADF80600BDF90400002857D0BDF90200B0F54F
S32500001568005F07D1BDF9000020B9FFF7CBFDFFF7A5FE0CE0BDF9000010B9FFF74DF901E0B8
S32500001588FFF788F80948B0F900000028F2D00848FFF7E2FA00280DD52D4921200870264919
S325000015A80D20087025490A2008700CE0CA0C0120880A01202649062008701F490D200870B8
S325000015C81E490A200870FFF75DFCADF80400BDF9000060B9BDF90200B0F5805F03D10320FA
S325000015E8FFF705FA06E00320FFF7A8FD02E00320FFF7CBF9BDF90600411CADF80610FFF7BB
S325000016081FFDBDF904000028A7D1124800684FF47A71B0FBF1F10A48FEF7C8FF0848FEF776
S32500001628CEFFFEE7000400A0760C0120580300A0600300A0480300A0D90A0120DA0A0120B1
S3250000164800100040BA0C0120600C0120B80C0120D80A01205C0C01201CB58DF805208DF847
S32500001668041000909DF804409DF804309DF8052000980121A1409A40C9B2D2B2FEF786FF6E
S321000016881CBDADF1080D0191009001980099884201DD009800E0019802B070473E
S325000016A400B5ADF12C0DADF810000021142205A82DF092FCB449BDF9100040F2262202FBF6
S325000016C40010B2492EF05CFAB249BDF9100031F91020AF49742010FB02F07438085AADF82A
S325000016E41200BDF8120040B9BDF91000A949AA4A31F91010002022F81100BDF912001FF0F6
S3250000170477F901281ED0BDF912001FF043F9012836D0BDF910009F4931F910209F49742072
S3250000172410FB02F07438085A50BBBDF910009949974A31F91010742010FB01F00021743859
S3250000174411521DE0BDF912001FF024F9012817D0BDF910008F498E4A31F91010742010FBBC
S3250000176401F0002174381152BDF9100089498B4A31F91010742010FB01F0002174381152C7
S32500001784BDF812100A20B1FBF0F030308DF81400BDF812000A2290FBF2F15143401A30300A
S325000017A48DF81500BDF91000774940F2262202FB0010142205A92EF0EEF8BDF9100072490F
S325000017C440F2262202FB0010704905222EF0E3F8BDF910006F4931F910100803A0EB8110B0
S325000017E46F49A0F57C60401803C842F2107200232DF0DBFA02AA82E80300032000900220DA
S325000018040190BDF9100002A991E80C001FF070FB0BB000BD00B5ADF12C0DADF810000021E3
S32500001824142205A82DF0D8FB5749BDF9100040F2262202FB001055492EF0A2F95549BDF933
S32500001844100031F910205249742010FB02F07438085AADF81200BDF8120040B9BDF910009D
S325000018644C494D4A31F91010002022F81100BDF912001FF0BDF801281ED0BDF912001FF023
S3250000188489F8012836D0BDF91000424931F910204249742010FB02F07438085A50BBBDF9F8
S325000018A410003C493A4A31F91010742010FB01F00021743811521DE0BDF912001FF06AF8C5
S325000018C4012817D0BDF910003249314A31F91010742010FB01F0002174381152BDF9100062
S325000018E42C492E4A31F91010742010FB01F0002174381152BDF812100A20B1FBF0F03030FA
S325000019048DF81400BDF812000A2290FBF2F15143401A30308DF81500BDF910001A4940F280
S32500001924262202FB0010142205A92EF034F8BDF91000154940F2262202FB001013490522EC
S325000019442EF029F8BDF91000124931F910100803A0EB81101349A0F57C60401803C842F288
S32500001964107200232DF021FA02AA82E803000320009002200190BDF9100002A991E80C000B
S325000019841FF0B6FA0BB000BD74E7002072150120F4FA0020FC0B0120D00B0120FCFA00209B
S325000019A4280C0020400C002030B5ADF12C0DADF81C00002101220DF126002DF00DFB002132
S325000019C40E2203A82DF008FB884ABDF91C10012022F81100BDF91C00854940F2262212FBDB
S325000019E400F0085C8DF826009DF826003038ADF82000BDF91C008049BDF91C3040F22622DF
S32500001A0412FB00F07B4A085C40F2262111FB03F150547749BDF91C00BDF91C3040F226226B
S32500001A2412FB00F0754A085C40F2262111FB03F150540020ADF81E0087E1BDF91E40BDF94A
S32500001A441C106F4A092040F2262300EB440003FB0121405C8DF826009DF826003038ADF895
S32500001A642200BDF91E40BDF91C10654A082040F2262300EB440003FB0122C94CBDF91E10A9
S32500001A84BDF91C30825C01EBC10040F226210A3001FB03414254BDF91E40BDF91C10584A8E
S32500001AA4092040F2262300EB440003FB0122BC4CBDF91E10BDF91C30825C01EBC10040F27D
S32500001AC426210B3001FB03414254B649BDF92220742010FB02F07438085AADF82400BDF890
S32500001AE4240080B1BDF91C00AF4931F9100003AA4100885E401C8852BDF9220003AA4100B3
S32500001B04885E401C8852BDF924001EF071FF012818D0BDF924001EF03DFF01282AD0BDF939
S32500001B242220A249742010FB02F07438085A08BBBDF922109B4A742010FB01F000217438E2
S32500001B44115217E0BDF924001EF024FF012811D0BDF92210934A742010FB01F000217438EA
S32500001B641152BDF92210914A742010FB01F0002174381152BDF91E10BDF82440BDF91C2086
S32500001B84874B0A2001EBC101B4FBF0F040F226240C31303004FB02328854BDF91E20BDF831
S32500001BA424007F4DBDF91C400A2302EBC20290FBF3F10D32594340F22623401A303003FBBE
S32500001BC404515054BDF9222074491003A0EB8210A0F57C60085800900098002812D42020D6
S32500001BE48DF82A000098019012E0C0462C0C012007E100207CE7002006E100207DE700209C
S32500001C0400E10020A0208DF82A000098404201900198000E02900298402802D002980D28C3
S32500001C2407D10298401C02909DF82A0008308DF82A00BDF91E00BDF91C20594B9DF808107D
S32500001C4440F2262400EBC0000F3004FB02328154019820F07F4002900298000C0290029840
S32500001C64402802D002980D2807D10298401C02909DF82A00001D8DF82A00BDF91E00BDF9DC
S32500001C841C20474B9DF8081040F2262400EBC000103004FB0232815401986FF31F40029064
S32500001CA40298000A02900298402802D002980D2807D10298401C02909DF82A00801C8DF801
S32500001CC42A00BDF91E00BDF91C20354B9DF8081040F2262400EBC000113004FB023281546D
S32500001CE4019800F0FF0002900298402802D002980D2807D10298401C02909DF82A00401CA2
S32500001D048DF82A00BDF91E00BDF91C20244B9DF8081040F2262400EBC000123004FB02328C
S32500001D248154BDF91E00BDF91C201D4B9DF82A1040F2262400EBC0000E3004FB023281545A
S32500001D44BDF91E00401CADF81E00BDF92000BDF91E1088423FF771AE0020ADF81E00BDF914
S32500001D641E00072815DABDF91E000DEB4000B0F90C0028B9BDF91E100D4A002022F81100F5
S32500001D84BDF91E00401CADF81E00BDF91E000728E9DB00208DF826000BB030BDE00A002002
S32500001DA474E70020F4FA0020FC0B0120FCFA0020D00B0120F0B5ADF1340DADF81C000021F0
S32500001DC401220AA82DF008F900210E2203A82DF003F9AF4ABDF91C10022022F81100BDF913
S32500001DE41C00AC4940F2262212FB00F0085C8DF828009DF828003038ADF82200BDF91C0082
S32500001E04A549BDF91C3040F2262212FB00F0A34A085C40F2262111FB03F150549D49BDF947
S32500001E241C00BDF91C3040F2262212FB00F09C4A085C40F2262111FB03F150540020ADF8D7
S32500001E441E002AE2BDF91E40BDF91C10954A092040F2262300EB440003FB0121405C8DF865
S32500001E6428009DF828003038ADF82400BDF91E40BDF91C108B4A082040F2262300EB4400A5
S32500001E8403FB0121CE4CBDF91E20BDF91C30415C40F22625D00000EB82100A3005FB034222
S32500001EA48154BDF91E407F4ABDF91C10092040F2262300EB440003FB0121C14CBDF91E2090
S32500001EC4BDF91C30415C40F22625D00000EB82100B3005FB034281540020ADF82000BDF99F
S32500001EE420000A2880F2B0810020ADF82600BDF9242064491003A0EB8210A0F57C60BDF9FA
S32500001F042020085E904202DC1320ADF82600BDF92420AC49742010FB02F07438085AD8B14C
S32500001F24BDF92420A749594B742010FB02F074380A5A5549500000EB8200085EB3F9742067
S32500001F44824209DDBDF924209E49742010FB02F07438085AADF82600BDF8260080B1BDF9C0
S32500001F641C00994931F9100003AA4100885E401C8852BDF9240003AA4100885E401C885231
S32500001F84BDF926001EF034FD012818D0BDF926001EF000FD01282AD0BDF924208B4974209F
S32500001FA410FB02F07438085A08BBBDF92410854A742010FB01F000217438115217E0BDF923
S32500001FC426001EF0E7FC012811D0BDF924107D4A742010FB01F0002174381152BDF924107B
S32500001FE47A4A742010FB01F0002174381152BDF91E30BDF82660BDF92010BDF91C40704D5F
S325000020040A20DA00B6FBF0F0C1EBC10102EB8312303040F2262352180C3203FB04515054B7
S32500002024BDF91E50BDF92020BDF82600644FBDF91C600A24EB00C2EBC20290FBF4F103EBD4
S32500002044851361439B1840F22624401A0D33303004FB06715854BDF92420A449BDF9203002
S325000020641003A0EB8210A0F57C60401850F8230000900098002817D420208DF82C0000982E
S32500002084019017E0540B0020BA140120B81401202C0C012007E1002006E100207CE7002068
S325000020A47DE7002000E10020A0208DF82C000098404201900198000E02900298402802D068
S325000020C402980D2807D10298401C02909DF82C0008308DF82C00BDF91E30BDF92000BDF98D
S325000020E41C40374D9DF80820D900C0EBC00001EB831140F2262309180F3103FB04500A54E9
S32500002104019820F07F4002900298000C02900298402802D002980D2807D10298401C029080
S325000021249DF82C00001D8DF82C00BDF91E30BDF92000BDF91C40224D9DF80820D900C0EB6A
S32500002144C00001EB831140F226230918103103FB04500A5401986FF31F4002900298000A18
S3250000216402900298402802D002980D2807D10298401C02909DF82C00801C8DF82C00BDF9FC
S325000021841E30BDF92000BDF91C400D4D9DF80820D900C0EBC00001EB831140F22623091888
S325000021A4113103FB04500A54019800F0FF000290029840280CD002980D2811D108E0C0468C
S325000021C474E70020F4FA0020FC0B0120FCFA00200298401C02909DF82C00401C8DF82C00D8
S325000021E4BDF91E30BDF92000BDF91C40D84D9DF80820D900C0EBC00001EB831140F22623C8
S325000022040918123103FB04500A54BDF91E30BDF92000BDF91C40CE4D9DF82C20D900C0EB34
S32500002224C00001EB831140F2262309180E3103FB04500A54BDF92000401CADF82000BDF91C
S3250000224420000A28FFF650AEBDF92420C1491003A0EB8210A0F57C60085E0A280EDABDF954
S32500002264242023491003A0EB8210A0F57C604018B0F8541C41F48071A0F8541CBDF924206B
S32500002284B4491003A0EB8210A0F57C6000220A52BDF91E00401CADF81E00BDF92200BDF997
S325000022A41E1088423FF7CEAD0020ADF81E00BDF91E00072815DABDF91E000DEB4000B0F9E1
S325000022C40C0028B9BDF91E100A4A002022F81100BDF91E00401CADF81E00BDF91E0007288E
S325000022E4E9DB00208DF828000DB0F0BDFC0A002000000020D00B0120F0B5ADF1340DADF86E
S325000023041C00002101220AA82CF066FE00210E2203A82CF061FEAF4ABDF91C10022022F893
S325000023241100BDF91C00AC4940F2262212FB00F0085C8DF828009DF828003038ADF8220047
S32500002344BDF91C00A549BDF91C3040F2262212FB00F0A34A085C40F2262111FB03F15054CC
S325000023649D49BDF91C00BDF91C3040F2262212FB00F09C4A085C40F2262111FB03F15054BB
S325000023840020ADF81E002AE2BDF91E40BDF91C10954A092040F2262300EB440003FB01217C
S325000023A4405C8DF828009DF828003038ADF82400BDF91E40BDF91C108B4A082040F226236E
S325000023C400EB440003FB0121614CBDF91E20BDF91C30415C40F22625D00000EB82100A3060
S325000023E405FB03428154BDF91E407F4ABDF91C10092040F2262300EB440003FB0121544C67
S32500002404BDF91E20BDF91C30415C40F22625D00000EB82100B3005FB034281540020ADF83B
S325000024242000BDF920000A2880F2B0810020ADF82600BDF9242047491003A0EB8210A0F58D
S325000024447C60BDF92020085E904202DC1320ADF82600BDF924206549742010FB02F07438A7
S32500002464085AD8B1BDF924206049614B742010FB02F074380A5A5F49500000EB8200085EAC
S32500002484B3F97420824209DDBDF924205749742010FB02F07438085AADF82600BDF8260069
S325000024A480B1BDF91C00544931F9100003AA4100885E401C8852BDF9240003AA4100885E80
S325000024C4401C8852BDF926001EF092FA012818D0BDF926001EF05EFA01282AD0BDF92420D6
S325000024E44649742010FB02F07438085A08BBBDF924103E4A742010FB01F0002174381152AF
S3250000250417E0BDF926001EF045FA012811D0BDF92410364A742010FB01F00021743811525D
S32500002524BDF92410354A742010FB01F0002174381152BDF91E30BDF82660BDF92010BDF98D
S325000025441C40034D0A20DA00B6FBF0F004E0C04674E70020540B0020C1EBC10102EB83125C
S32500002564303040F2262352180C3203FB04515054BDF91E50BDF92020BDF82600AD4FBDF930
S325000025841C600A24EB00C2EBC20290FBF4F103EB851361439B1840F22624401A0D33303068
S325000025A404FB06715854BDF92420A149BDF920301003A0EB8210A0F57C60401850F82300A1
S325000025C40090009800281BD420208DF82C00009801901BE02C0C012007E1002006E1002035
S325000025E47CE700207DE7002000E10020F4FA0020B8140120BA140120FC0B0120FCFA0020A1
S32500002604A0208DF82C000098404201900198000E02900298402802D002980D2807D1029846
S32500002624401C02909DF82C0008308DF82C00BDF91E30BDF92000BDF91C407E4D9DF8082084
S32500002644D900C0EBC00001EB831140F2262309180F3103FB04500A54019820F07F40029026
S325000026640298000C02900298402802D002980D2807D10298401C02909DF82C00001D8DF8B2
S325000026842C00BDF91E30BDF92000BDF91C40694D9DF80820D900C0EBC00001EB831140F2AF
S325000026A426230918103103FB04500A5401986FF31F4002900298000A02900298402802D0BF
S325000026C402980D2807D10298401C02909DF82C00801C8DF82C00BDF91E30BDF92000BDF923
S325000026E41C40544D9DF80820D900C0EBC00001EB831140F226230918113103FB04500A54C4
S32500002704019800F0FF0002900298402802D002980D2807D10298401C02909DF82C00401C75
S325000027248DF82C00BDF91E30BDF92000BDF91C40404D9DF80820D900C0EBC00001EB8311E4
S3250000274440F226230918123103FB04500A54BDF91E30BDF92000BDF91C40364D9DF82C2090
S32500002764D900C0EBC00001EB831140F2262309180E3103FB04500A54BDF92000401CADF829
S325000027842000BDF920000A28FFF650AEBDF9242029491003A0EB8210A0F57C60085E0A286F
S325000027A40EDABDF9242025491003A0EB8210A0F57C604018B0F8541C41F48071A0F8541C80
S325000027C4BDF924201C491003A0EB8210A0F57C6000220A52BDF91E00401CADF81E00BDF9C8
S325000027E42200BDF91E1088423FF7CEAD0020ADF81E00BDF91E00072815DABDF91E000DEBAD
S325000028044000B0F90C0028B9BDF91E10D34A002022F81100BDF91E00401CADF81E00BDF9E3
S325000028241E000728E9DB00208DF828000DB0F0BD2C0B002074E70020540B002000000020D5
S3250000284430B5ADF1340DADF8100000210E2268462CF0C2FB002101220DF12E002CF0BCFBDA
S32500002864002114220DF11A002CF0B6FBBC49BDF9100031F91000002840F30F81BDF910005C
S32500002884B74931F91000062800F30781BDF91000B34931F91020D949742010FB02F07438D0
S325000028A4085A0A21B0FBF1F030308DF81A00BDF91000AB4931F91020D049742010FB02F038
S325000028C47438085A0A2290FBF2F15143401A30308DF81B00BDF91000D74940F2262202FBFB
S325000028E4001014220DF11A012DF055F8BDF91000D14940F2262202FB0010D04905222DF041
S325000029044AF8BDF91000964931F91020DA49742010FB02F07438085A0A21B0FBF1F0303093
S325000029248DF81A00BDF910008D4931F91020D249742010FB02F07438085A0A2290FBF2F1A4
S325000029445143401A30308DF81B00BDF91000844931F91020C849742010FB02F07438085AE2
S32500002964ADF81800BDF8180040B9BDF910007C497A4A31F91010002022F81100BDF9180018
S325000029841EF036F801281ED0BDF918001EF002F8012836D0BDF91000714931F91020CF49E3
S325000029A4742010FB02F07438085A50BBBDF910006B49B14A31F91010742010FB01F00021F3
S325000029C4743811521DE0BDF918001DF0E3FF012817D0BDF910006249A74A31F910107420D4
S325000029E410FB01F0002174381152BDF910005C49BA4A31F91010742010FB01F0002174388B
S32500002A041152BDF910008C4940F2262202FB001014220DF11A012CF0BEFFBDF9100086496A
S32500002A2440F2262202FB0010844905222CF0B3FFD9480088ADF81800BDF91000BDF818103A
S32500002A4406F0B6F9BDF910007B4940F2262202FB00107A4905222CF09EFFD8480088ADF8C6
S32500002A641800BDF91000BDF8181006F0A1F9BDF91000714940F2262202FB00106F4905221B
S32500002A842CF089FFD6480088ADF81800BDF91000BDF8181006F0FEF8B8E1BDF910003049BE
S32500002AA431F91000002840F0B181BDF91000D84940F2262212FB00F0085C8DF82E009DF83E
S32500002AC42E003038ADF8140000208DF82E000020ADF8120038E0BDF91240BDF91010CD4AE6
S32500002AE4062040F2262300EB440003FB0121BDF91240514BBDF91020415C40F22625082010
S32500002B0405FB023200EB44008154BDF91240C14ABDF91010072040F2262300EB440003FBBB
S32500002B240121BDF91240444BBDF91020415C40F22625092005FB023200EB44008154BDF9BB
S32500002B441200401CADF81200BDF91400BDF912108842C0DA0020ADF8120031E1D00B01205B
S32500002B64FC0B0120BDF91240BDF91010A94A092040F2262300EB440003FB0121405C8DF83E
S32500002B842E009DF82E003038ADF81600BDF91000294940F2262202FB0010284905222CF0A4
S32500002BA4FAFEBDF916201549742010FB02F07438085A0A21B0FBF1F030308DF81A00BDF9BE
S32500002BC416200E49742010FB02F07438085A0A2290FBF2F15143401A30308DF81B00BDF981
S32500002BE41000154940F2262202FB001014220DF11A012CF0D0FEBDF9100001E0F6FA0020E6
S32500002C040D4940F2262202FB00100C4905222CF0C2FEBDF916201849742010FB02F07438EB
S32500002C24085A0A21B0FBF1F030308DF81A00BDF91620114904E0C04674E70020721501201F
S32500002C44742010FB02F07438085A0A2290FBF2F15143401A30308DF81B00BDF91620064908
S32500002C64742010FB02F07438085AADF81800BDF81800A0B102E0C046F4FA0020BDF9100014
S32500002C84D04931F910006A464100885E401C8852BDF916006A464100885E401C8852BDF93B
S32500002CA418001DF0A5FE01281AD0BDF918001DF071FE01282CD0BDF916200849742010FBE4
S32500002CC402F07438085A18BBBDF91610CB4A742010FB01F000217438115219E0FCFA002057
S32500002CE4BDF918001DF056FE012811D0BDF91610C24A742010FB01F0002174381152BDF933
S32500002D041610CE4A742010FB01F0002174381152BDF91000D34940F2262202FB001014220C
S32500002D240DF11A012CF037FEBDF91000CD4940F2262202FB0010CC4905222CF02CFE1648DC
S32500002D440088ADF81800BDF91000BDF8181006F02FF8BDF91000C34940F2262202FB00100B
S32500002D64C14905222CF017FE14480088ADF81800BDF91000BDF8181006F01AF8BDF91000D5
S32500002D84B84940F2262202FB0010B74905222CF002FE134802E0C046C20C01200088ADF8FF
S32500002DA41800BDF91000BDF8181005F073FFBDF91200401CADF8120002E0C046D40C012023
S32500002DC4BDF91400BDF9121088423FF7CBAE0020ADF81200BDF91200072817DA02E0C04627
S32500002DE4880C0120BDF912003DF9100028B9BDF91210B74A002022F81100BDF91200401CDD
S32500002E04ADF81200BDF912000728EBDB0DB030BD07E1002000E1002030B5ADF1340DADF818
S32500002E24100000210E2268462CF0D6F8002101220DF12E002CF0D0F8002114220DF11A00CC
S32500002E442CF0CAF85F49BDF9100031F91000002840F3D680BDF910005A4931F91000062860
S32500002E6400F3CE80BDF91000564931F91020D949742010FB02F07438085A0A21B0FBF1F0D0
S32500002E8430308DF81A00BDF910004E4931F91020D049742010FB02F07438085A0A2290FB03
S32500002EA4F2F15143401A30308DF81B00BDF910006C4940F2262202FB001014220DF11A01E6
S32500002EC42CF069FDBDF91000664940F2262202FB0010654905222CF05EFDBDF910003949D6
S32500002EE431F910204549742010FB02F07438085A0A21B0FBF1F030308DF81A00BDF91000C5
S32500002F04304931F910203D49742010FB02F07438085A0A2290FBF2F15143401A30308DF842
S32500002F241B00BDF91000274931F910203349742010FB02F07438085AADF81800BDF8180037
S32500002F4440B9BDF910001F49614A31F91010002022F81100BDF918001DF04AFD01281ED0C7
S32500002F64BDF918001DF016FD012839D0BDF91000144931F910203149742010FB02F07438F3
S32500002F84085A68BBBDF910000E491C4A31F91010742010FB01F000217438115220E0BDF95F
S32500002FA418001DF0F7FC01281AD0BDF910000549124A31F91010742010FB01F000217438C5
S32500002FC4115201E0FC0B0120BDF91000D6491B4A31F91010742010FB01F000217438115227
S32500002FE4BDF910001F4940F2262202FB001014220DF11A012CF0CFFC69E1C046F4FA00207E
S32500003004BDF91000C84931F91000002840F05F81BDF91000CF4940F2262212FB00F0085CA4
S325000030248DF82E009DF82E003038ADF8140000208DF82E000020ADF812003FE0FCFA002010
S32500003044BDF91240BDF91010D24A062040F2262300EB440003FB0121BDF91240CE4BBDF9A5
S32500003064102003E074E7002072150120415C40F22625082005FB023200EB44008154BDF9E0
S325000030841240C44ABDF91010072040F2262300EB440003FB0121BDF91240BF4BBDF9102007
S325000030A4415C40F22625092005FB023200EB44008154BDF91200401CADF81200BDF91400E6
S325000030C4BDF912108842BBDA0020ADF81200DCE0D00B0120BDF91240BDF91010AD4A092022
S325000030E440F2262300EB440003FB0121405C8DF82E009DF82E003038ADF81600BDF9100001
S32500003104A54940F2262202FB0010B34905222CF042FCBDF916202F49742010FB02F0743812
S32500003124085A0A21B0FBF1F030308DF81A00BDF916202849742010FB02F07438085A0A2245
S3250000314490FBF2F15143401A30308DF81B00BDF91000914940F2262202FB001014220DF1AE
S325000031641A012CF018FCBDF910008B4940F2262202FB0010984905222CF00DFCBDF91620C0
S325000031849649742010FB02F07438085A0A21B0FBF1F030308DF81A00BDF916208F49742099
S325000031A410FB02F07438085A0A2290FBF2F15143401A30308DF81B00BDF916208749742022
S325000031C410FB02F07438085AADF81800BDF8180098B101E0F6FA0020BDF91000524931F98B
S325000031E410006A464100885E401C8852BDF916006A464100885E401C8852BDF918001DF0F4
S32500003204F7FB012818D0BDF918001DF0C3FB01282AD0BDF91620D949742010FB02F074389A
S32500003224085A08BBBDF916106C4A742010FB01F000217438115217E0BDF918001DF0AAFB96
S32500003244012811D0BDF91610644A742010FB01F0002174381152BDF91610C84A742010FB83
S3250000326401F0002174381152BDF910004A4940F2262202FB001014220DF11A012CF08BFB52
S32500003284BDF91200401CADF81200BDF91400BDF9121088423FF71EAF0020ADF81200BDF94D
S325000032A41200072813DABDF912003DF9100028B9BDF91210CE4A002022F81100BDF91200E4
S325000032C4401CADF81200BDF912000728EBDB0DB030BD0EB5ADF808001349BDF9080031F9B6
S325000032E41000D3494FF4747212FB00F0A0F57470085AADF80A000020009000200190BDF9D1
S325000033040A20BDF90800D3171DF0F2FD0EBD0EB5ADF808000449BDF9080031F91000D44938
S325000033244FF4747202E0C046FC0B012012FB00F0A0F57470085AADF80A00002000900020F3
S325000033440190BDF90A20BDF90800D3171DF0D0FD0EBDC04607E100200EB5ADF80800D84906
S32500003364BDF9080031F91000C2494FF4747212FB00F0A0F57470085AADF80A0003200090DD
S3250000338400200190BDF90A20BDF90800D3171DF0AFFD0EBD00E1002074E700200EB5ADF882
S325000033A40800C749BDF9080031F91000B2494FF4747212FB00F0A0F57470085AADF80A0048
S325000033C40120009000200190BDF90A20BDF90800D3171DF08DFD0EBD72150120F4FA0020E1
S325000033E430B5ADF11C0DADF80800002101220DF112002BF0F1FDB249BDF9080031F910001A
S32500003404002821DDBDF90800AD4931F9100006281ADCBDF90800AA4931F9100097494FF45C
S32500003424747212FB00F0A0F57470085AADF810000120009000200190BDF91020BDF9080009
S32500003444D3171DF055FD93E0BDF908009C4931F91000002840F08C80BDF90800884940F2A4
S32500003464262212FB00F0085C8DF812009DF812003038ADF80C000020ADF80A0038E0BDF9A5
S325000034840A40BDF90810D14A062040F2262300EB440003FB0121BDF90A40CD4BBDF9082009
S325000034A4415C40F22625082005FB023200EB44008154BDF90A40C54ABDF90810072040F252
S325000034C4262300EB440003FB0121BDF90A40C04BBDF90820415C40F22625092005FB0232EA
S325000034E400EB44008154BDF90A00401CADF80A00BDF90C00BDF90A108842C0DA0020ADF838
S325000035040A002FE0BDF90A40BDF90810AF4A092040F2262300EB440003FB0121405C8DF8AD
S3250000352412009DF812003038ADF80E00BDF90E0052494FF4747212FB00F0A0F57470085A4D
S32500003544ADF810000120009001200190BDF91020BDF90800D3171DF0CBFCBDF90A00401CCB
S32500003564ADF80A00BDF90C00BDF90A108842C9DC00208DF8120007B030BDC046FCFA00201A
S325000035840EB5ADF808004E49BDF9080031F9100090494FF4747212FB00F0A0F57470085A48
S325000035A4ADF80A000020009002200190BDF90A20BDF90800D3171DF09BFC4149BDF908007B
S325000035C431F9100084494FF4747212FB00F0A0F57470085AADF80A000020009000200190C9
S325000035E4BDF90A20BDF90800D3171DF081FC0EBDD00B01200EB5ADF808003149BDF9080040
S3250000360431F91000C5494FF4747212FB00F0A0F57470085AADF80A00022000900020019045
S32500003624BDF90A20BDF90800D3171DF061FC0EBD24BA00200EB5ADF808002149BDF908002D
S3250000364431F91000B6494FF4747212FB00F0A0F57470085AADF80A00002000900020019016
S32500003664BDF90A20BDF90800D3171DF041FC0EBD20BA002026BA002028BA00202ABA0020A3
S3250000368407E1002000B5ADF11C0DADF810000C49BDF9100031F91000BE494FF4747212FB55
S325000036A400F0A0F57470085A0FFA90F000F0FF00ADF81800002000900020019002E0C046B7
S325000036C4FC0B0120BDF91820BDF91000D3171DF00FFCCB49BDF9100031F91000AE494FF4B4
S325000036E4747212FB00F0A0F57470401802900020ADF81200BDF912000F2827DA0298008881
S32500003704ADF816000298801C029002980088ADF81400BDF81410BDF8160000EB01400390DE
S325000037240120009001200190039ABDF91000D3171DF0DEFB0298801C0290BDF91200401CFD
S32500003744ADF81200BDF912000F28D7DBBDF91000AB4931F9100091494FF4747212FB00F003
S32500003764A0F57470401802900020ADF81200BDF912000F2827DA02980088ADF8160002988E
S32500003784801C029002980088ADF81400BDF81410BDF8160000EB01400390012000900120E1
S325000037A40190039ABDF91000D3171DF0A1FB0298801C0290BDF91200401CADF81200BDF91F
S325000037C412000F28D7DB07B000BDC04600E1002074E700202CBA00202EBA002000B5ADF18D
S325000037E41C0DADF810008649BDF9100031F910006B494FF4747212FB00F0A0F57470085E59
S325000038040FFA90F000F0FF00ADF818000020009000200190BDF91820BDF91000D3171DF05D
S3250000382467FB7749BDF9100031F910005D494FF4747212FB00F0A0F574704018029000200D
S32500003844ADF81200BDF912000F2827DA02980088ADF816000298801C029002980088ADF83B
S325000038641400BDF81410BDF8160000EB014003900320009001200190039ABDF91000D31715
S325000038841DF036FB0298801C0290BDF91200401CADF81200BDF912000F28D7DBBDF91000C6
S325000038A4574931F91000C3494FF4747212FB00F0A0F57470401802900020ADF81200BDF902
S325000038C412000F2827DA02980088ADF816000298801C029002980088ADF81400BDF814103B
S325000038E4BDF8160000EB014003900320009001200190039ABDF91000D3171DF0F9FA0298E8
S32500003904801C0290BDF91200401CADF81200BDF912000F28D7DB07B000BDC04630BA00205F
S3250000392434BA00200EB5ADF808003549BDF9080031F91000A0494FF4747212FB00F0A0F5E5
S325000039447470085AADF80A000020009002200190BDF90A20BDF90800D3171DF0C9FA28493C
S32500003964BDF9080031F9100094494FF4747212FB00F0A0F57470085AADF80A000120009007
S3250000398400200190BDF90A20BDF90800D3171DF0AFFA0EBD2CBC002030BC00206CBC002007
S325000039A4B2BB0020B4BB002030B5ADF1240DADF800000021012207A82BF00EFB002114221A
S325000039C402A82BF009FB0E49BDF9000031F91000002839DDBDF90000094931F9100006281F
S325000039E432DCBDF90000064931F910207449742010FB02F07438085A0A21B0FBF1F001E05C
S32500003A04FC0B012030308DF80800BDF90000D34931F910206A49742010FB02F07438085A09
S32500003A240A2290FBF2F15143401A30308DF80900BDF90000D24940F2262202FB0010142278
S32500003A4402A92BF0A8FFB3E0BDF90000C34931F91000002840F0AC80BDF90000C94940F2E2
S32500003A64262212FB00F0085C8DF81C009DF81C003038ADF8040000208DF81C000020ADF8AA
S32500003A84020038E0BDF90240BDF90010BE4A062040F2262300EB440003FB0121BDF9024054
S32500003AA4B74BBDF90020415C40F22625082005FB023200EB44008154BDF90240B24ABDF900
S32500003AC40010072040F2262300EB440003FB0121BDF90240AA4BBDF90020415C40F22625FE
S32500003AE4092005FB023200EB44008154BDF90200401CADF80200BDF90400BDF90210884254
S32500003B04C0DA0020ADF802004CE0BDF90240BDF900109D4A092040F2262300EB440003FB98
S32500003B240121405C8DF81C009DF81C003038ADF80600BDF90000924940F2262202FB001040
S32500003B44AD4905222BF027FFBDF906201C49742010FB02F07438085A0A21B0FBF1F0303006
S32500003B648DF80800BDF906201549742010FB02F07438085A0A2290FBF2F15143401A3030ED
S32500003B848DF80900BDF900007D4940F2262202FB0010142202A92BF0FEFEBDF90200401C7E
S32500003BA4ADF80200BDF90400BDF902108842ACDC09B030BDF0BB002038BA002036BA0020ED
S32500003BC4F6FA002000B5ADF12C0DADF810000021142206A82BF000FA6049BDF9100031F9D7
S32500003BE4100086494FF4747212FB00F0A0F57470085A0290BDF91000029905F035F960491C
S32500003C04BDF9100040F2262202FB00107A4905222BF0C1FE7A48B0F90000B0F5805F0CD1BD
S32500003C24002002900020009002200190029ABDF9100000231DF05CF90BE0012002900020C0
S32500003C44009002200190029ABDF9100000231DF04FF9BDF91000414931F9100069494FF4BE
S32500003C64747212FB00F0A0F57470401803900020ADF81200BDF91200082851DA03980088D6
S32500003C84ADF81400BDF91400C11100EB11600012ADF81600BDF91600302803DBBDF91600CE
S32500003CA4392807DDBDF9160041280ADBBDF916005A2806DCBDF912109DF816000DEB4101AE
S32500003CC40876BDF91400C11100EB116121F0FF01401AADF81600BDF91600302803DBBDF985
S32500003CE41600392807DDBDF9160041280CDBBDF916005A2808DCBDF912209DF8161001204D
S32500003D0400EB4200684401760398801C0390BDF91200401CADF81200BDF912000828ADDB24
S32500003D24BDF91000164940F2262202FB0010142206A92BF030FE3248B0F90000B0F5805FF8
S32500003D440ED1002002900020009001200190029ABDF9100000231DF0CBF80EE0FC0B0120FB
S32500003D6429F0E6FC02900020009001200190BDF91000029A00231DF0BBF80BB000BDC04687
S32500003D8474E7002007E1002000E100200EB5ADF80400D349BDF9040031F9100017494FF476
S32500003DA4747212FB00F0A0F57470085A00900099BDF9040005F014F9CA49BDF9040040F257
S32500003DC4262202FB00100C4905222BF0E4FDC449BDF9040031F910000B494FF4747212FB81
S32500003DE400F0A0F57470085A0090BDF90400009905F0F6F80EBDC0467215012094BD00203E
S32500003E04840C012098BD002096BD002010B5ADF1400DADF82000002101220FA82BF0DCF8A0
S32500003E24002114220AA82BF0D7F8BDF92000AF49BDF9203040F2262212FB00F0AC4A085CE0
S32500003E4440F2262111FB03F15054AA49BDF92000BDF9203040F2262212FB00F0A24A085CA5
S32500003E6440F2262111FB03F15054A249BDF9200040F2262212FB00F0085C8DF83C009DF829
S32500003E843C003038ADF82400BDF9240010B90A20ADF8240000208DF83C00BDF92010914875
S32500003EA440F2262202FB0100934905222BF073FDBDF920008A4931F91000D6494FF47472C7
S32500003EC412FB00F0A0F57470085A07900020009002200190BDF92000079AD3171DF008F898
S32500003EE4CD48006807900020009002200190BDF92000079AD3171CF0FBFFBDF92000784943
S32500003F04BDF92430C54A31F910104FF4BE64982014FB01F110FB03F0A1F5BE6198388918F2
S32500003F240918B1F9020007900020009002200190BDF92000079AD3171CF0DAFFBDF9200094
S32500003F446749BDF92430B54A31F910104FF4BE64982014FB01F110FB03F0A1F5BE619838B3
S32500003F6489180918486807900020009002200190BDF92000079AD3171CF0BAFFBDF92000CF
S32500003F845749BDF92430A54A31F910004FF4BE64982114FB00F011FB03F1A0F5BE609839A3
S32500003FA48018085E0A2190FBF1F030308DF82800BDF920004A49BDF92430984A31F91000C6
S32500003FC44FF4BE64982114FB00F011FB03F1A0F5BE6098398018085E0A2290FBF2F151430A
S32500003FE4401A30308DF82900BDF920103D4840F2262202FB010014220AA92BF0CCFCBDF9EA
S325000040042010384840F2262202FB01003A4905222BF0C1FCBDF92410314A982010FB01F0D3
S32500004024BDF9201032F911104FF4BE6212FB01F17A4A9838A1F5BE6189180918C868079010
S325000040440220009002200190BDF92000079AD3171CF04EFFBDF92410214A982010FB01F02E
S32500004064BDF9201032F911104FF4BE6212FB01F16A4A9838A1F5BE6189180918086907909F
S325000040840320009002200190BDF92000079AD3171CF02EFFBDF92410114A982010FB01F01D
S325000040A4BDF9201032F911104FF4BE6212FB01F15A4A9838A1F5BE6189180918486907902F
S325000040C40020009002200190BDF92000079AD3171CF00EFFBDF92410014A98200EE0C04618
S325000040E4FC0B012074E700207EE7002006E100207DE7002007E100207215012010FB01F057
S32500004104BDF9201032F911104FF4BE6212FB01F1424A9838A1F5BE6189180918183103C919
S32500004124002342F210722AF040FE04AA82E803000320009002200190BDF9200004A991E8C7
S325000041440C001CF0D5FEBDF92410CB4A982010FB01F0BDF9201032F911104FF4BE6212FB15
S3250000416401F12E4A9838A1F5BE6189180918086A07900020009002200190BDF92000079AA1
S32500004184D3171CF0B5FEBDF92410BB4A982010FB01F0BDF9201032F911104FF4BE6212FB27
S325000041A401F11E4A9838A1F5BE6189180918486A07900020009002200190BDF92000079A31
S325000041C4D3171CF095FEBDF92410AB4A982010FB01F0BDF9201032F911104FF4BE6212FB17
S325000041E401F10E4A9838A1F5BE6189180918886A02AA4001C11782E80300094802AA0021E2
S325000042040CCA904299410DDA0548002102AA82E8030015E036BD002080160120805E0020E7
S32500004224FFE0F505934802AA4FF0FF310CCA82428B4105DA8F484FF0FF3102AA82E8030001
S325000042440020009002200190BDF9200002A991E80C001CF04DFEBDF92410874A982010FB16
S3250000426401F0BDF9201032F911104FF4BE6212FB01F1CF4A9838A1F5BE6189180918C86A1D
S3250000428407900020009002200190BDF92000079AD3171CF02DFEBDF92410774A982010FB14
S325000042A401F0BDF9201032F911104FF4BE6212FB01F1BF4A9838A1F5BE6189180918086BAC
S325000042C407900020009002200190BDF92000079AD3171CF00DFEBDF92410674A982010FB04
S325000042E401F0BDF9201032F911104FF4BE6212FB01F1AF4A9838A1F5BE6189180918888ED9
S32500004304ADF82600BDF92000BDF8261004F0C2FCBDF92010B94840F2262202FB0100B849F5
S3250000432405222BF038FBBDF92410534A982010FB01F0BDF9201032F911104FF4BE6212FB21
S3250000434401F19B4A9838A1F5BE6189180918B1F9360007900020009002200190BDF9200085
S32500004364079AD3171CF0C4FDBDF92410424A982010FB01F0BDF9201032F911104FF4BE621C
S3250000438412FB01F18A4A9838A1F5BE6189180918B1F9380007900020009002200190BDF967
S325000043A42000079AD3171CF0A3FDBDF92410324A982010FB01F0BDF9201032F911104FF40D
S325000043C4BE6212FB01F17A4A9838A1F5BE6189180918B1F93A0007900020009002200190CB
S325000043E4BDF92000079AD3171CF082FDBDF92410214A982010FB01F0BDF9201032F911108C
S325000044044FF4BE6212FB01F1694A9838A1F5BE6189180918B1F93C000790002000900220E7
S325000044240190BDF92000079AD3171CF061FDBDF92410114A982010FB01F0BDF9201032F90C
S3250000444411104FF4BE6212FB01F1594A9838A1F5BE6189180918B1F93E00079000200090B6
S3250000446402200190BDF92000079AD3171CF040FD04E0C046011F0AFAFC0B0120614800886E
S32500004484ADF82600BDF82610BDF9200004F090FCBDF92010594840F2262202FB0100584966
S325000044A405222BF078FABDF92000DB49BDF924303F4A31F910104FF4BE64982014FB01F149
S325000044C410FB03F0A1F5BE61983889180918B1F84000ADF82600BDF92000BDF8261004F024
S325000044E467FCBDF92010454840F2262202FB0100434905222BF04FFA43480088ADF826006F
S32500004504BDF92000BDF8261004F0C4FBBDF920103A4840F2262202FB0100394905222BF079
S325000045243AFA32480088ADF82600BDF92000BDF8261004F0AFFB2E480088ADF82600BDF992
S325000045442000BDF8261004F0A5FB2A480088ADF82600BDF92000BDF8261004F09BFB264834
S325000045640088ADF82600BDF92000BDF8261004F091FBBDF92000A849BDF924300C4A31F94C
S3250000458410104FF4BE64982014FB01F110FB03F0A1F5BE6198388918091842310691002064
S325000045A4ADF82200BDF9220028281CDA02E0C046805E002006980088079000200090012098
S325000045C40190079ABDF92000D3171CF091FC0698801C0690BDF92200401CADF82200BDF9C5
S325000045E422002828E6DB10B010BDC0468A0C01208C0C01208E0C0120900C012074E7002088
S3250000460472150120C20C0120880C012010B5ADF1400DADF81C00002101220EA82AF0DCFCE7
S325000046240021142209A82AF0D7FCBDF91C007B49BDF91C3040F2262212FB00F0784A085C46
S3250000464440F2262111FB03F150547649BDF91C00BDF91C3040F2262212FB00F0724A085C09
S3250000466440F2262111FB03F150546E49BDF91C0040F2262212FB00F0085C8DF838009DF85D
S3250000468438003038ADF82000BDF9200010B90A20ADF8200000208DF83800C949BDF91C005C
S325000046A440F2262202FB0010C64905222BF073F9BDF91C00584931F91000C3494FF47472CA
S325000046C412FB00F0A0F57470085A06900020009002200190069ABDF91C00D3171CF008FC93
S325000046E4BA48006806900020009002200190069ABDF91C00D3171CF0FBFBBDF91C0046498E
S32500004704BDF92030B24A31F910104FF4BE64982014FB01F110FB03F0A1F5BE619838891801
S325000047240918B1F9020006900020009002200190BDF91C00069AD3171CF0DAFBBDF91C009A
S325000047443549BDF92030A24A31F910104FF4BE64982014FB01F110FB03F0A1F5BE619838F4
S3250000476489180918486806900020009002200190BDF91C00069AD3171CF0BAFBBDF91C00D5
S325000047842549BDF92030924A31F910004FF4BE64982114FB00F011FB03F1A0F5BE609839E4
S325000047A48018085E0A2190FBF1F030308DF82400BDF91C001849BDF92030854A31F910000F
S325000047C44FF4BE64982114FB00F011FB03F1A0F5BE6098398018085E0A2290FBF2F1514302
S325000047E4401A30308DF82500BDF91C00744940F2262202FB0010142209A92BF0CCF8BDF9B8
S325000048041C006F4940F2262202FB00106D4905222BF0C1F80AE0C046FC0B012006E1002063
S325000048247DE7002007E100207EE70020BDF92010CC4A982010FB01F0BDF91C1032F911107F
S325000048444FF4BE6212FB01F1614A9838A1F5BE6189180918C86806900220009002200190CF
S32500004864BDF91C00069AD3171CF042FBBDF92010BC4A982010FB01F0BDF91C1032F91110BB
S325000048844FF4BE6212FB01F1514A9838A1F5BE61891809180869069003200090022001905D
S325000048A4BDF91C00069AD3171CF022FBBDF92010AC4A982010FB01F0BDF91C1032F91110AB
S325000048C44FF4BE6212FB01F1414A9838A1F5BE618918091849696420484306900220009091
S325000048E402200190BDF91C00069AD3171CF000FBBDF920109B4A982010FB01F0BDF91C1037
S3250000490432F911104FF4BE6212FB01F1304AA1F5BE618918A04A98380918183103C90023FC
S325000049242AF043FA04AA82E803000120009002200190BDF91C0004A991E80C001CF0D8FAB5
S32500004944002006900020009002200190BDF91C00069AD3171CF0CCFA0020069000200090A0
S3250000496402200190BDF91C00069AD3171CF0C0FABDF920107B4A982010FB01F0BDF91C1017
S3250000498432F911104FF4BE6212FB01F1104A9838A1F5BE6189180918886A02AA4001C11707
S325000049A482E803007D4802AA00210CCA9042994110DA7A48002102AA82E8030018E0C04688
S325000049C474E700207215012036BD002080160120805E0020724802AA4FF0FF310CCA824273
S325000049E48B4105DA6E484FF0FF3102AA82E803000020009002200190BDF91C0002A991E86B
S32500004A040C001CF075FA002006900020009002200190BDF91C00069AD3171CF069FA002001
S32500004A2406900020009002200190BDF91C00069AD3171CF05DFABDF920104A4A982010FB77
S32500004A4401F0BDF91C1032F911104FF4BE6212FB01F1554A9838A1F5BE6189180918888ECF
S32500004A64ADF82200BDF91C00BDF8221004F012F9BDF91C00B64940F2262202FB00104949C3
S32500004A8405222AF088FF002006900020009002200190BDF91C00069AD3171CF029FABDF9EA
S32500004AA42010304A982010FB01F0BDF91C1032F911104FF4BE6212FB01F13B4A9838A1F513
S32500004AC4BE6189180918B1F9380006900020009002200190BDF91C00069AD3171CF008FAA6
S32500004AE4BDF920101F4A982010FB01F0BDF91C1032F911104FF4BE6212FB01F12A4A9838D5
S32500004B04A1F5BE6189180918B1F93A0006900020009002200190BDF91C00069AD3171CF0CF
S32500004B24E7F9002006900020009002200190BDF91C00069AD3171CF0DBF900200690002060
S32500004B44009000200190BDF91C00069AD3171CF0CFF90020ADF81E00BDF91E00282818DAE1
S32500004B6402E0C046FC0B0120002006900020009001200190069ABDF91C00D3171CF0B8F9EA
S32500004B84BDF91E00401CADF81E00BDF91E002828EADB10B010BDC04640420F00FFE0F50532
S32500004BA4011F0AFA72150120805E002030B5ADF1240DADF814000021012207A82AF00CFAA1
S32500004BC4D649BDF9140040F2262212FB00F0085C8DF81C009DF81C003038ADF81800002070
S32500004BE48DF81C000020ADF8160038E0BDF91640BDF91410D44A062040F2262300EB440043
S32500004C0403FB0121BDF91640514BBDF91420415C40F22625082005FB023200EB440081545E
S32500004C24BDF91640C84ABDF91410072040F2262300EB440003FB0121BDF91640444BBDF930
S32500004C441420415C40F22625092005FB023200EB44008154BDF91600401CADF81600BDF902
S32500004C641800BDF916108842C0DA0020ADF81600E2E0BDF91400B44940F2262202FB0011E6
S32500004C84BDF91620092000EB4200405C8DF81C009DF81C003038ADF81A00BDF91A004FF4A0
S32500004CA4747111FB00F0D049A0F57470085E04900220009001200190BDF91400049AD317C7
S32500004CC41CF016F9BDF91A004FF4747111FB00F05E49A0F57470085A0490002000900120D4
S32500004CE40190BDF91400049AD3171CF001F9BDF91A004FF4747111FB00F05549A0F57470B6
S32500004D04085A04900020009001200190BDF91400049AD3171CF0ECF8BDF91A004FF47471F7
S32500004D2411FB00F0AF49A0F57470085802AA4001C11782E80300AD4802AA00210CCA904200
S32500004D44994107DAA948002102AA82E803000FE074E70020AE4802AA4FF0FF310CCA82424E
S32500004D648B4105DAAA484FF0FF3102AA82E803000020009001200190BDF9140002A991E8B4
S32500004D840C001CF0B5F8BDF91A004FF4747111FB00F0CE49A0F57470085A0490002000901A
S32500004DA401200190BDF91400049AD3171CF0A0F8BDF91A004FF4747111FB00F0C449A0F5AB
S32500004DC47470085A04900020009001200190BDF91400049AD3171CF08BF8BDF91A004FF499
S32500004DE4747111FB00F0BB49A0F57470085A04900020009001200190BDF91400049AD317A1
S32500004E041CF076F8BDF91A004FF4747111FB00F0B149A0F57470085A0490002000900120E0
S32500004E240190BDF91400049AD3171CF061F8BDF91600401CADF81600BDF91800BDF9161093
S32500004E4488423FF716AF09B030BDC046C0BC0020C2BC002030B5ADF1240DADF8140000210F
S32500004E64012207A82AF0B8F82C49BDF9140040F2262212FB00F0085C8DF81C009DF81C0020
S32500004E843038ADF8180000208DF81C000020ADF8160038E0BDF91640BDF914102A4A0620AF
S32500004EA440F2262300EB440003FB0121BDF916408A4BBDF91420415C40F22625082005FB11
S32500004EC4023200EB44008154BDF916401E4ABDF91410072040F2262300EB440003FB012151
S32500004EE4BDF916407D4BBDF91420415C40F22625092005FB023200EB44008154BDF91600A3
S32500004F04401CADF81600BDF91800BDF916108842C0DA0020ADF81600CEE0C04607E10020CB
S32500004F24BDF91400084940F2262202FB0011BDF91620092000EB4200405C8DF81C009DF8B0
S32500004F441C00303802E0C04600E10020ADF81A00BDF91A004FF4747111FB00F02249A0F527
S32500004F647470085E04900220009001200190BDF91400049AD3171BF0BBFF002004900020FA
S32500004F84009001200190BDF91400049AD3171BF0AFFF002004900020009001200190BDF9EE
S32500004FA41400049AD3171BF0A3FFBDF91A004FF4747111FB00F00B49A0F57470085802AAD1
S32500004FC44001C11782E80300084802AA00210CCA904299410CDA0548002102AA82E8030035
S32500004FE418E0C046C4BC002030BA0020FFE0F505074802AA4FF0FF310CCA82428B4109DA73
S3250000500403484FF0FF3102AA82E8030002E0C046011F0AFA0020009001200190BDF914007B
S3250000502402A991E80C001BF063FF002004900020009001200190BDF91400049AD3171BF056
S3250000504457FFBDF91A004FF4747111FB00F02049A0F57470085A04900020009001200190C2
S32500005064BDF91400049AD3171BF042FFBDF91A004FF4747111FB00F01649A0F57470085A5A
S3250000508404900020009001200190BDF91400049AD3171BF02DFF0020049000200090012002
S325000050A40190BDF91400049AD3171BF021FFBDF91600401CADF81600BDF91800BDF916104B
S325000050C488423FF72DAF09B030BDC046CEBC0020D0BC0020D2BC0020D6BC002074E700200D
S325000050E400B5ADF1140DADF80C00C949BDF90C0031F91000C7494FF4747212FB00F0A0F5A8
S325000051047470085E02900020009002200190029ABDF90C00D3171BF0EBFEBD49BDF90C0042
S3250000512431F91000CC494FF4747212FB00F0A0F57470085E02900120009002200190029A7F
S32500005144BDF90C00D3171BF0D3FEB149BDF90C0031F91000C1494FF4747212FB00F0A0F502
S325000051647470085E02900020009002200190029ABDF90C00D3171BF0BBFEA549BDF90C002A
S3250000518431F91000B6494FF4747212FB00F0A0F57470085E02900020009002200190029A36
S325000051A4BDF90C00D3171BF0A3FE9949BDF90C0031F91000C7494FF4747212FB00F0A0F5E4
S325000051C47470085E02900020009002200190029ABDF90C00D3171BF08BFE8D49BDF90C0012
S325000051E431F91000BC494FF4747212FB00F0A0F57470085E02900020009002200190029AD0
S32500005204BDF90C00D3171BF073FE8149BDF90C0031F91000B1494FF4747212FB00F0A0F5E1
S325000052247470085E02900020009002200190029ABDF90C00D3171BF05BFE7549BDF90C00F9
S3250000524431F91000A6494FF4747212FB00F0A0F57470085E02900020009002200190029A85
S32500005264BDF90C00D3171BF043FE6949BDF90C0031F910009B494FF4747212FB00F0A0F5DF
S325000052847470085E02900020009002200190029ABDF90C00D3171BF02BFE5D49BDF90C00E1
S325000052A431F9100090494FF4747212FB00F0A0F57470085A02900220009000200190029A3F
S325000052C4BDF90C00D3171BF013FE05B000BD00B5ADF1140DADF80C00002002900020009003
S325000052E400200190029ABDF90C00D3171BF000FE05B000BD0EB5ADF808004549BDF9080074
S3250000530431F9100079494FF4747212FB00F0A0F57470085AADF80A00002000900220019074
S32500005324BDF90A20BDF90800D3171BF0E1FD3849BDF9080031F91000D0494FF4747212FB2A
S3250000534400F0A0F57470085AADF80A000020009000200190BDF90A20BDF90800D3171BF0D5
S32500005364C7FD0EBD0EB5ADF808002949BDF9080031F91020C2491003A0EB8210A0F57C60EE
S32500005384085AADF80A000020009000200190BDF90A20BDF90800D3171BF0AAFD0EBD0EB5C9
S325000053A4ADF808001A49BDF9080031F91000B5494FF4747212FB00F0A0F57470085AADF837
S325000053C40A000020009002200190BDF90A20BDF90800D3171BF08CFD0D49BDF9080031F9FC
S325000053E41000A9494FF4747212FB00F0A0F57470085AADF80A000020009000200190BDF9DA
S325000054040A20BDF90800D3171BF072FD0EBDC046FC0B0120CEBA002000B5ADF1140DADF87C
S325000054240C00CF49BDF90C0031F91000CB494FF4747212FB00F0A0F574700858029002207B
S32500005444009000200190029ABDF90C00D3171BF04FFD05B000BDC046D4BA0020D6BA00208C
S32500005464D0BA00200EB5ADF80800BD49BDF9080031F91000BB494FF4747212FB00F0A0F54B
S325000054847470085AADF80A000020009002200190BDF90A20BDF90800D3171BF029FDB049F8
S325000054A4BDF9080031F91000AF494FF4747212FB00F0A0F57470085AADF80A00032000908F
S325000054C400200190BDF90A20BDF90800D3171BF00FFD0EBDD2BA0020D8BA0020DABA002095
S325000054E4DCBA0020DEBA0020E0BA0020E8BA002000B5ADF12C0DADF80C00002114220DF126
S32500005504160029F069FD0020ADF810000220009002200190BDF91020BDF90C00D3171BF015
S32500005524E7FC0020ADF810000220009002200190BDF91020BDF90C00D3171BF0D9FC0020B2
S32500005544ADF810000220009002200190BDF91020BDF90C00D3171BF0CBFC0020ADF81000EE
S325000055640220009002200190BDF91020BDF90C00D3171BF0BDFC0020ADF8100002200090DF
S3250000558402200190BDF91020BDF90C00D3171BF0AFFC7349BDF90C0031F9100073494FF44F
S325000055A4747212FB00F0A0F57470401802900020ADF80E00BDF90E00082851DA0298008887
S325000055C4ADF81200BDF91200C11100EB11600012ADF81400BDF91400302803DBBDF914007F
S325000055E4392807DDBDF9140041280ADBBDF914005A2806DCBDF90E109DF814000DEB41015F
S325000056048875BDF91200C11100EB116121F0FF01401AADF81400BDF91400302803DBBDF9B2
S325000056241400392807DDBDF9140041280CDBBDF914005A2808DCBDF90E209DF814100120FF
S3250000564400EB4200684481750298801C0290BDF90E00401CADF80E00BDF90E000828ADDB5A
S32500005664BDF90C00C04940F2262202FB001014220DF116012AF08FF90BB000BDEABA0020A5
S32500005684C80A0020E4BA0020E6BA00200EB5ADF808003349BDF9080031F9102034491003FC
S325000056A4A0EB8210A0F57C60085AADF80A000020009002200190BDF90A20BDF90800D31756
S325000056C41BF016FC2649BDF9080031F9102029491003A0EB8210A0F57C60085AADF80A00F8
S325000056E40220009002200190BDF90800BDF90A20D3171BF0FDFB1A49BDF9080031F9102035
S325000057041D491003A0EB8210A0F57C60085AADF80A000020009002200190BDF90800BDF990
S325000057240A20D3171BF0E4FB0D49BDF9080031F9102012491003A0EB8210A0F57C60085A95
S32500005744ADF80A000020009000200190BDF90800BDF90A20D3171BF0CBFB0EBDF8BA002039
S32500005764FC0B0120ECBA0020EEBA002098BD0020580C00205A0C00205E0C00205C0C0020D8
S3250000578400B5ADF12C0DADF82000C949BDF9200031F91000401EADF824007549BDF92000D1
S325000057A440F2262212FB00F0085C302800F07082BDF9200040F2262111FB00F06C49085C66
S325000057C4BDF9201040F2262212FB01F1694A5054BDF92010644840F2262202FB0100A44912
S325000057E405222AF0D8F8BDF92000B14931F910100803A0EB8110C849A0F57C6008580690D5
S325000058040220009002200190BDF92000069AD3171BF06EFBBDF92000A54931F9101008032C
S32500005824A0EB81105149A0F57C6008580A2190FBF1F006900320009002200190BDF920006E
S32500005844069AD3171BF054FBBDF92000984931F910100803A0EB8110B049A0F57C60085E62
S32500005864642111FB00F006900220009002200190BDF92000069AD3171BF03AFBBDF920002C
S325000058848B4931F910100803A0EB8110A449A0F57C60401803C842F21072002329F085FAC7
S325000058A404AA82E803000320009002200190BDF9200004A991E80C001BF01AFBBDF924005B
S325000058C4002110F07DF88DED070A079829F0E1FF23A20CCA29F044F929F0B7FB02460320DE
S325000058E4009002200190BDF920000B461BF000FBBDF92400012110F063F88DED070A0798AD
S3250000590429F0C7FF16A20CCA29F02AF929F09DFB02460320009002200190BDF920000B464E
S325000059241BF0E6FABDF92000614931F910100803A0EB81107749A0F57C60085802AA400103
S32500005944C11782E80300774802AA00210CCA9042994111DA7348002102AA82E8030019E011
S325000059640000000000408F4074E70020D80A002007E100207DE70020C44802AA4FF0FF31DE
S325000059840CCA82428B4105DAC0484FF0FF3102AA82E803000020009002200190BDF92000EF
S325000059A402A991E80C001BF0A3FABDF924100803A0EB8110AF49085E06900020009002202E
S325000059C40190BDF92000069AD3171BF091FABDF924100803A0EB8110A749085E0690002019
S325000059E4009002200190BDF92000069AD3171BF07FFABDF920002E4931F91010742010FB40
S32500005A0401F09E497438085A0690BDF92000BDF8181003F03FF9BDF92010CC4840F22622AE
S32500005A2402FB01001249052229F0B5FFBDF924100803A0EB81109249085E00F0FF000002CC
S32500005A440690BDF924100803A0EB81108D49085E069900F0FF000918069100200090022041
S32500005A640190BDF92000069AD3171BF041FA01E072150120BDF920000D4931F91000401E98
S32500005A8400B214F0BBFE06900020009002200190BDF92000069AD3171BF02AFABDF920002F
S32500005AA4034931F91020AA491003A0EB821001E0FC0B0120A0F57C60085E069000200090ED
S32500005AC402200190BDF92000069AD3171BF010FABDF924206C491003A0EB8210085E40F619
S32500005AE4FF71A0F2FF70400290FBF1F006900020009002200190BDF92000069AD3171BF019
S32500005B04F7F9BDF92400CD494FF4747212FB00F0085E09E0880A0020E00A0020C80A002078
S32500005B24280C0020FFE0F50506900020009000200190BDF92000069AD3171BF0D9F90020DA
S32500005B44ADF82200BDF922000A281EDABDF92420BB49BDF922301003A0EB8210401830F9BB
S32500005B64130006900020009001200190BDF92000069AD3171BF0BCF9BDF92200401CADF817
S32500005B842200BDF922000A28E0DB0020ADF82200BDF922000A281EDABDF92420A949BDF989
S32500005BA422301003A0EB8210401830F9130006900020009001200190BDF92000069AD3176D
S32500005BC41BF096F9BDF92200401CADF82200BDF922000A28E0DB0020ADF82200BDF92200A2
S32500005BE40A281EDABDF924209749BDF922301003A0EB8210401830F9130006900020009085
S32500005C0401200190BDF92000069AD3171BF070F9BDF92200401CADF82200BDF922000A28EF
S32500005C24E0DB0020ADF82200BDF922000A2880F29E82BDF924208549BDF922301003A0EBAE
S32500005C448210401830F9130006900020009001200190BDF92000069AD3171BF049F9BDF9B9
S32500005C642200401CADF82200BDF922000A28E0DB7DE2C046B80F0020BA0F0020F8FA0020C9
S32500005C844C0000204A00002012050020011F0AFABDF9200040F2262111FB00F07249085C5F
S32500005CA4BDF9201040F2262212FB01F16F4A5054BDF92010254840F2262202FB0100CA4940
S32500005CC4052229F068FEBDF92000C84931F910004FF4747111FB00F05D49A0F57470085850
S32500005CE4642190FBF1F006900220009002200190BDF92000069AD3171BF0FAF8BDF920007B
S32500005D04BA4931F910004FF4747111FB00F05149A0F5747008580A2190FBF1F00690032055
S32500005D24009002200190BDF92000069AD3171BF0DFF8BDF92000AD4931F910004FF47471A6
S32500005D4411FB00F04449A0F5747003E074E7002000000020095A64204843069002200090FF
S32500005D6402200190BDF92000069AD3171BF0C0F8BDF920009D4931F910004FF4747111FB19
S32500005D8400F03649A0F57470401803C842F21072002329F00AF804AA82E80300032000902C
S32500005DA402200190BDF9200004A991E80C001BF09FF8BDF924004FF4747111FB00F028490D
S32500005DC4085806900320009002200190BDF92000069AD3171BF08CF8BDF924004FF474716C
S32500005DE411FB00F01F49085806900320009002200190BDF92000069AD3171BF079F8BDF947
S32500005E0420007A4931F910004FF4747111FB00F07749A0F57470085802AA4001C11782E86F
S32500005E240300744802AA00210CCA904299411FDA7048002102AA82E8030027E0BABA0020C4
S32500005E44320500201E0500205A05002046050020A8BC0020ACBC0020B0BC0020B8BC002088
S32500005E64DCBC0020E0BC002007E100207DE70020C84802AA4FF0FF310CCA82428B4105DAA8
S32500005E84C4484FF0FF3102AA82E803000020009002200190BDF9200002A991E80C001BF0F0
S32500005EA427F8BDF924004FF4747111FB00F0B149085E06900020009002200190BDF920008C
S32500005EC4069AD3171BF014F8BDF924004FF4747111FB00F0A849085E06900020009002205A
S32500005EE40190BDF92000069AD3171BF001F8BDF920003E4931F910004FF4747111FB00F0E8
S32500005F049E49A0F57470085A0690BDF92000BDF8181002F0BFFEBDF92010D04840F2262245
S32500005F2402FB01003049052229F035FDBDF924004FF4747111FB00F09149085A00F0FF0045
S32500005F4400020690BDF924004FF4747111FB00F09149085A069900F0FF00091806910020FF
S32500005F64009002200190BDF92000069AD3171AF0BFFFBDF920001D4931F910004FF474710E
S32500005F8411FB00F08549A0F57470085A06900020009002200190BDF92000069AD3171AF0EF
S32500005FA4A7FFBDF92000114931F910004FF4747111FB00F07A49A0F57470085A069000204F
S32500005FC4009002200190BDF92000069AD3171AF08FFFBDF924004FF4747111FB00F07149C4
S32500005FE4085A40F6FF7107E072150120FC0B0120C4BC0020FFE0F505A0F2FF70400290FB91
S32500006004F1F006900020009002200190BDF92000069AD3171AF06CFFBDF924004FF47471C5
S3250000602411FB00F05749085E06900020009000200190BDF92000069AD3171AF059FF00207B
S32500006044ADF82200BDF922000A281EDABDF924104D4ABDF922004FF4747303FB012131F9A0
S32500006064100006900020009001200190BDF92000069AD3171AF03CFFBDF92200401CADF890
S325000060842200BDF922000A28E0DB0020ADF82200BDF922000A281EDABDF924103B4ABDF901
S325000060A422004FF4747303FB012131F9100006900020009001200190BDF92000069AD317D8
S325000060C41AF016FFBDF92200401CADF82200BDF922000A28E0DB0020ADF82200BDF9220018
S325000060E40A281EDABDF92410294ABDF922004FF4747303FB012131F910000690002000906D
S3250000610401200190BDF92000069AD3171AF0F0FEBDF92200401CADF82200BDF922000A2866
S32500006124E0DB0020ADF82200BDF922000A281EDABDF92410C94ABDF922004FF4747303FBB4
S32500006144012131F9100006900020009001200190BDF92000069AD3171AF0CAFEBDF92200D7
S32500006164401CADF82200BDF922000A28E0DB0BB000BDC046D8BC0020DABC0020CCBC00209D
S32500006184D4BC0020E4BC0020E6BC0020FABC00200EBD0020011F0AFACEBC0020D0BC002088
S325000061A4D2BC0020C0BC002030B5ADF1140DADF80800B549BDF90800BDF9083040F2262216
S325000061C412FB00F0B14A085C40F2262111FB03F15054A349BDF9080040F2262212FB00F01B
S325000061E4085C2C2814D1BDF908001C4940F2262202FB0010A649052229F0CDFBBDF9080099
S32500006204984A40F22623302113FB00F0115427E0BDF908009249BDF9083040F2262212FB4E
S3250000622400F09C4A085C40F2262111FB03F150540A49BDF9080040F2262202FB0010944988
S32500006244052229F0A8FBBDF90800874A40F22623302113FB00F0115402E0C04674E7002030
S32500006264BDF90800CC4931F9102080491003A0EB8210A0F57C60085E78B1FFE7BDF908004A
S32500006284C54931F910207A491003A0EB8210A0F57C60085A10F0FF0F75D1BDF908007049FB
S325000062A440F2262212FB00F0085C2C2836D1BDF90800754940F2262212FB00F0085C3038DF
S325000062C4ADF80E00BDF90E0000285CD10020ADF80A00BDF90A00B0F5967F54DABDF90800B3
S325000062E4AD4931F91020BDF90A30BDF90A40614D61491003A0EB8210A0F57C60401830F8DB
S32500006304130025F81400BDF90A00401CADF80A00BDF90A00B0F5967FE0DB34E0BDF908005D
S325000063244F4940F2262212FB00F0085C3038ADF80E00BDF90E0030BB0020ADF80A00BDF991
S325000063440A00B0F5967F1EDABDF90800924931F91020BDF90A30BDF90A40484D484910035B
S32500006364A0EB8210A0F57C60401830F8130025F81400BDF90A00401CADF80A00BDF90A0036
S32500006384B0F5967FE0DBBDF90E00022846DC0020ADF80A00BDF90A0064285DDABDF908005E
S325000063A42F4940F2262212FB00F0085C2C2810D1BDF90E40BDF90A3032482E4A642101FBE4
S325000063C40433018832F91300401A0011ADF80C000FE0BDF90E40BDF90A302A48274A64214E
S325000063E401FB0433018832F91300401A0011ADF80C000020009001200190BDF90C20BDF983
S325000064040800D3171AF074FDBDF90A00401CADF80A00BDF90A006428C0DB1DE00020ADF891
S325000064240A00BDF90A00642816DA0020ADF80C000020009001200190BDF90C20BDF9080039
S32500006444D3171AF055FDBDF90A00401CADF80A00BDF90A006428E8DB05B030BD22BD002071
S3250000646408E100207FE7002080E700204C0C0020540C002088FD00205E000020E0FF0020E2
S32500006484B60200202E16012007E100207DE70020721501207EE7002000B5ADF12C0DADF8CB
S325000064A410000021142206A828F096FD3A49BDF9100031F91000B5494FF4747212FB00F06B
S325000064C4A0F57470085E02900020009002200190029ABDF91000D3171AF00AFD2E49BDF954
S325000064E4100031F91000AA494FF4747212FB00F0A0F57470085E029001200090022001905A
S32500006504029ABDF91000D3171AF0F2FC2249BDF9100031F910009F494FF4747212FB00F0B4
