S00600004844521B
S32500000000601F0120A5C80200ABC80200ADC80200AFC80200AFC80200AFC802000000000074
S32500000020000000000000000000000000AFC80200AFC8020000000000AFC80200AFC80200D6
S32500000040AFC80200AFC80200AFC80200AFC80200AFC80200AFC80200AFC80200AFC80200D2
S32500000060AFC80200AFC80200AFC80200AFC80200AFC80200AFC80200AFC80200AFC80200B2
S32500000080AFC80200AFC80200856302006DAE0200AFC80200A58D0200AFC80200DBAE0200B0
S325000000A0AFC80200AFC80200AFC80200AFC80200AFC80200AFC80200AFC80200AFC8020072
S325000000C0AFC80200BD880200AFC80200C58D0200AFC80200AFC80200AFC80200AFC80200A9
S325000000E0AFC80200AFC80200AFC80200AFC80200AFC80200AFC80200AFC80200AFC8020032
S32500000100AFC80200AFC80200AFC80200AFC80200AFC80200AFC80200AFC80200AFC8020011
S32500000120AFC80200AFC80200AFC8020003870200AFC80200AFC80200AFC80200F58D0200D3
S32500000140AFC80200AFC80200AFC80200AFC802000000000000000000AFC80200AFC80200C3
S32500000160AFC80200AFC8020000000000AFC80200AFC80200AFC80200AFC80200AFC802002A
S32500000180AFC80200AFC80200AFC802007DAF0200AFC80200AFC80200AFC80200AFC80200DC
S325000001A0AFC80200AFC80200AFC802009DAF0200AFC80200AFC80200AFC80200AFC802009C
S325000001C0AFC80200AFC80200AFC80200AFC80200AFC80200AFC80200AFC80200AFC8020051
S325000001E0AFC80200AFC80200AFC80200AFC80200AFC80200AFC80200AFC80200AFC8020031
S30D00000200AFC802000000000077
S3250000020800B5ADF1140DADF80E10ADF80C002CF09AFB4FF080402CF057FBBDF90C0050B9FF
S32500000228BDF90E00B0F5805F02D100F051F804E000F07DF801E000F01CF8A6480290029814
S32500000248B0F5005F00D9FEE7029AA348A3492BF084FAA249A248401A01909F490198401829
S325000002680090BDF90C00009ABDF90E10904705B000BD08B59D499C48B1F90020B0F900006D
S32500000288984940EA022008809A499948B1F90020B0F90000B94940EA02200880B84900206D
S325000002A8087031202BF0D4FCB6482CF093F9B649B44809684FF4614266232BF093FFB14855
S325000002C82CF034FAC82000F087F900F0A5F908BD08B586498448B1F90020B0F90000814986
S325000002E840EA0220088083498148B1F90020B0F90000A24940EA02200880A14900200870D3
S325000003084B202BF0A5FCB3482CF064F99E49B14809684FF4164266232BF064FFAD482CF030
S3250000032805FAC82000F058F900F090F908BD08B5B449088840F040000880B349088820F06B
S3250000034840000880B14900200880B148502200212BF068FBAF48002150222BF063FB08BD53
S3250000036808B5ADF80210ADF80000BDF90000BDF9021001F0D9F808BDADF1180D0192ADF856
S325000003881010009000980290002003900399019888420CD90298411C02919DF8101001702E
S325000003A80398401C0390019803998842F2D806B07047ADF1180D02920191009000980390CB
S325000003C801980490002005900599029888420ED90499039811F8012B0491411C03910270DF
S325000003E80598401C0590029805998842F0D806B07047ADF1080D8DF8041000909DF80400B5
S3250000040810B10098006C01E00098C06B02B07047ADF1080D0191009001980099486402B097
S325000004287047ADF1080D0090009881690020490901D3002100E0012101B1012002B070478D
S32500000448ADF1080D009000988069400902D20098006801E04FF0FF3002B07047ADF1080D42
S325000004688DF804100090009880698009FBD29DF804000099086002B07047ADF1080D009028
S32500000488009881690020090901D3012100E0002101B1012002B07047ADF1080D0090784963
S325000004A840F601200860774900980860774876490860754800688008FBD27548006840F6F4
S325000004C80121014202D04FF0FF3000E0002002B07047C0469C140000A086002008020000FA
S325000004E86903000010C200200AC2002008C200200EC200200CC20020ADF1100D02920191FB
S3250000050800905F4942F2016008600298002828D001985C4920F07F0008600EE0009B019887
S32500000528B44A53F8041B009300F07C0011500198001D01900298001F0290019810F07C0F2F
S3250000054802D1AD48006810B902980028E6D1AC48AA490860A94800684008FBD2029800289C
S32500000568D6D14B48006842F20161014202D04FF0FF3000E0002004B07047C04612C200204D
S325000005884716012000E000403C0D0120ADF1080D8DF805208DF8041000909DF80410009A7C
S325000005A89DF8050042F8210002B07047ADF1080D0191009001980099086002B07047ADF159
S325000005C8080D009000980830016841F00201016002B0704700200140ADF1080DADF8000078
S325000005E80020ADF8020004E0BDF80200401CADF80200BDF80000BDF802108842F4DC02B0C0
S325000006087047C046480300A04A0300A09E0D0120E80B0120980B012008B5B2490020088033
S32500000628794900200880794850220021FFF7A4FEAD4800215022FFF79FFE72480621002238
S3250000064801F00AF890490120087008BD08B5A549002008806C49002008806C48502200216B
S32500000668FFF78AFEA04800215022FFF785FE68480421002200F0F0FF83490120087008BDFA
S3250000068814D00F4000D00F4008D00F40020042A40CD00F4008B55F480121FFF7AAFE00900C
S325000006A85C480099FFF7B4FE77480078012809D05848FFF7B6FE002800F09B805548FFF7FE
S325000006C8BFFE96E0009810F4B06F68D15148FFF7A8FE00287FD04F48FFF7B2FE8149824A66
S325000006E8B1F9001050547F48B0F9000048B97E48007853286FD17B49B1F90000401C0880D2
S3250000070869E078487849B0F90000085C412806DB74487549B0F90000085C5A2830DD7148DB
S325000007287149B0F90000085C612806DB6D486E49B0F90000085C7A2822DD6A486A49B0F952
S325000007480000085C302806DB66486749B0F90000085C392814DD63486349B0F90000085CCD
S325000007682E280DD05F486049B0F90000085C2C2806D05C485C49B0F90000085C0D280AD14B
S325000007885848B0F90000502825DA5649B1F90000401C08801FE05349002008801BE0009888
S325000007A8C00A05D3B849B1F9000040F0040008800098000A05D3B449B1F9000040F00200CF
S325000007C808800098400A14D3AF49B1F9000040F0010008800DE043484349B0F90000401E54
S325000007E8085C0D2805D128490020087006490120088008BD00D10F4030D00F4020D00F4008
S32500000808010042A4007000409E0D0120E80B01200050064000E0004008B5B5480121FFF7CB
S32500000828E8FD0090B2480099FFF7F2FD16480078012809D0AE48FFF7F4FD002800F0A480CC
S32500000848AB48FFF7FDFD9FE0009810F4B06F71D1A748FFF7E6FD002800F08880A448FFF761
S32500000868EFFD2049204AB1F9001050541D48B0F9000058B91C480078532877D11949B1F983
S325000008880000401C088071E04716012015481649B0F90000085C412806DB12481249B0F926
S325000008A80000085C5A2836DD0E480F49B0F90000085C612806DB0B480B49B0F90000085C58
S325000008C87A2828DD07480849B0F90000085C30280CDB04480449B0F90000085C39281ADD79
S325000008E804E0C0464E0D0120980B012092489349B0F90000085C2E280DD08F488F49B0F972
S325000009080000085C2C2806D08B488C49B0F90000085C0D280AD18848B0F90000502825DA86
S325000009288549B1F90000401C08801FE08249002008801BE00098C00A05D35349B1F9000060
S3250000094840F0040008800098000A05D34E49B1F9000040F0020008800098400A14D34A49FC
S32500000968B1F9000040F0010008800DE072487349B0F90000401E085C0D2805D17049002054
S32500000988087070490120088008BD08B5ADF80000BDF9000050B36C480621012200F05CFE47
S325000009A842F21070FFF718FE0020ADF802000BE0BDF902006549095C6548FFF74FFDBDF947
S325000009C80200401CADF80200BDF90000BDF902108842EDDC5E48FFF750FD0128FAD05A4875
S325000009E80621002200F038FEFFF716FE08BD08B5ADF80000BDF9000050B3564804210122AA
S32500000A0800F02AFE42F21070FFF7E6FD0020ADF802000BE0BDF902004C49095C3448FFF74D
S32500000A281DFDBDF90200401CADF80200BDF90000BDF902108842EDDC2D48FFF71EFD012813
S32500000A48FAD044480421002200F006FEFFF7FEFD08BDADF1100D0192ADF80C100090002082
S32500000A6802900299019888420CD90098811C0091BDF80C1001800298401C0290019802991F
S32500000A888842F2D804B07047700D012008B500900098FFF701FD08BD0EB50191009001A87F
S32500000AA810F0030F02D04FF0FF3006E0009901984FF48072FFF720FD00200EBD0EB5019136
S32500000AC800900020ADF8080001A810F0030F04D04FF0FF30ADF8080007E0009901984FF4A5
S32500000AE88072FFF709FDADF80800BDF908000EBD00200140ADF1080D8DF800009DF8000096
S32500000B08302808DB9DF80000392804DC9DF800003038C0B20DE09DF80000412808DB9DF8E4
S32500000B280000462804DC9DF800003738C0B200E0202002B07047C0464E0D0120980B012014
S32500000B48471601209E0D012000700040E80B012000E000400050064000B5ADF1140D0090BF
S32500000B68C04900200870C04900200880BF4900200860BF4900200860BE4900200870BE494F
S32500000B8800200870BD4900200870BD4900200870009810F8011B5329009002D04FF0FF306B
S32500000BA850E1009AAF4912F8010B009230380870009911F8010B0091FFF79CFF8DF80C007B
S32500000BC8009911F8010B0091FFF794FF8DF80B009DF80C109DF80B0000EB01108DF80A00D3
S32500000BE8A7499DF80A0008709F49088011E09E48A1490088C01E08701BE09B489E49008884
S32500000C08001F087015E098489B490088401F08700FE0944800780028E9D0401EE7D0401E80
S32500000C28EBD0401EEFD0001FEDD0401EE5D0401EDDD00020019090E0009911F8010B009174
S32500000C48FFF758FF8DF80C00009911F8010B0091FFF750FF8DF80B009DF80C109DF80B0043
S32500000C6800EB01108DF80A0085499DF80A200878801808709DF80A000190009911F8010BE0
S32500000C880091FFF737FF8DF80C00009911F8010B0091FFF72FFF8DF80B009DF80C109DF8BF
S32500000CA80B0000EB01108DF80A0075499DF80A2008788018087001999DF80A0000EB01203E
S32500000CC80190009911F8010B0091FFF713FF8DF80C00009911F8010B0091FFF70BFF8DF8D9
S32500000CE80B009DF80C109DF80B0000EB01108DF80A0063499DF80A2008788018087001996A
S32500000D089DF80A0000EB01200190009911F8010B0091FFF7EFFE8DF80C00009911F8010B28
S32500000D280091FFF7E7FE8DF80B009DF80C109DF80B0000EB01108DF80A0051499DF80A2074
S32500000D4808788018087001999DF80A0000EB0120019016E06FF0010074E04248007800284B
S32500000D68AFD0401EADD0401E87D0401E3FF464AF001F3FF461AF401E3FF47FAF401EA0D0C3
S32500000D88E8E70198394908603B4938480A78006837498018401E08600020ADF8080028E052
S32500000DA8009911F8010B0091FFF7A4FE8DF80C00009911F8010B0091FFF79CFE8DF80B005E
S32500000DC89DF80C109DF80B0000EB01108DF80A002B499DF80A20087880180870254ABDF941
S32500000DE808109DF80A005054BDF90800401CADF808002148BDF9081000788842D0DC009905
S32500000E0811F8010B0091FFF775FE8DF80C00009911F8010B0091FFF76DFE8DF80B009DF85F
S32500000E280C2016499DF80B0000EB0210087014481249007809784840FF2801D1002001E0D2
S32500000E486FF0030005B000BDADF1080D00900098000D02D04FF0FF3002E00098800B00B2D1
S32500000E6802B07047B0040120B2040120B4040120B8040120BC040120BC050120BD050120F3
S32500000E88BE05012008B5A9480078012814D0A7480078022810D0A548007803280CD0A34865
S32500000EA80078072808D0A1480078082804D09F480078092840F0A0809D480078002840F3A8
S32500000EC89B809C480068FFF7BFFF9149088091498F48B1F90010B0F90000884207D09548F5
S32500000EE80068FFF7D3FD8A488A490088088092480068FFF7A9FF8649088086498448B1F985
S32500000F080010B0F90000884207D08B480068FFF7BDFD7F487F490088088086487E490068E2
S32500000F2820F0FF00086084487C49006820F0FF0008607B49784809680068884216D07948EE
S32500000F48B0F90000002804DD754877490068FFF7A3FD75484FF6FF718022FFF77AFD71491B
S32500000F68002008806C486E49006808607148006800F0FF00ADF800006D49BDF900000978DE
S32500000F88C0F5807000F07DFBADF80200664BBDF90000C749BDF90220C018FFF70AFA6149C4
S32500000FA8BDF90220B1F90000801808805B485A490068096888421FD057485B490068FFF708
S32500000FC86BFD59484FF6FF718022FFF742FD5848BDF9022053490078801A0880B448BDF90E
S32500000FE80210504A0918B2F900204F48FFF7E1F94A484B49006808604C480078072807D0DC
S325000010084A480078082803D04848007809280BD14448B0F90000002804DD414842490068E6
S32500001028FFF73AFD002000E0012008BDADF1080DADF800009F49BDF80000088002B07047A9
S3250000104808B5ADF80000BDF900100A2091FBF0F0ADF80000BDF900000A2290FBF2F151433B
S32500001068401AADF80000BDF9000020B94FF48070FFF7DCFF45E0BDF90000012804D14FF4B4
S325000010880070FFF7D3FF3CE0BDF90000022804D14FF48060FFF7CAFF33E0BDF90000032863
S325000010A804D14FF40060FFF7C1FF2AE0BDF90000042803D10120FFF7B9FF22E0BDF90000AD
S325000010C8052803D10220FFF7B1FF1AE0BDF90000062803D10420FFF7A9FF12E0BDF900001D
S325000010E8072803D10820FFF7A1FF0AE0BDF90000082803D11020FFF799FF02E02020FFF7A7
S3250000110895FF08BDD8480088C0114008FAD37047660D01208E0D0120340D0120380D01200B
S32500001128400D01208C0D0120C0050120B0040120BC050120B4040120B804012010B5ADF5BF
S32500001148887DADF80001BDF80001ADF80201BDF90201002811D4BDF90211574BBDF902018E
S32500001168554A595C401C1154BDF90201401EADF80201BDF902010028EDD54F4900200870BA
S325000011884FF4807268460021FFF7F6F80020ADF80201BDF9020104281ADABDF90241BDF909
S325000011A80211454B444A012000EB440013F81110105CBDF9022101EB00212DF81210BDF925
S325000011C80201401CADF80201BDF902010428E4DBD1480088ADF806010020ADF80801CF4824
S325000011E8008880134008FAD2CD49002008800020ADF80401BDF90401042811DABDF904118D
S32500001208BDF90421C7483DF8111020F81210BDF90401401CADF80401BDF904010428EDDBD6
S32500001228BDF80601BD49000240F001000880BB49088840F480400880B848008880134008B0
S32500001248FAD2BDF80801B0F57A7F11DAB3480088C01340080CD3B2480088400808D3B04952
S3250000126800200880BDF80801401CADF80801D7E7CE49002008800020ADF80201BDF90201F2
S32500001288502812DABDF90201C94A00211154BDF90201094A00211154BDF90201401CADF83E
S325000012A80201BDF902015028ECDB44B010BDC046BC04012034000080E80B012010B5ADF54E
S325000012C88C7D9549002008800020ADF810014FF4807200216846FFF74FF863480088C01156
S325000012E84008C0F00D8160488B49008800F47C5008805D48008800F03F00ADF810010020DC
S32500001308ADF8000125E00020ADF80201BDF90201042819DABDF90021C248BDF90211BDF914
S32500001328003100EBC200BDF9022130F811000DEBC30121F81200BDF90201401CADF802010B
S32500001348BDF902010428E5DBBDF90001401CADF80001BDF81001BDF900118842D3DCB24821
S325000013680088ADF80A01BDF81001C000ADF810010020ADF8080164E0BDF90801811000EB9E
S325000013885170C010ADF80401BDF90801811000EB517121F00701401A00EBD0704010ADF874
S325000013A80601BDF9080100EBD07121F00101401A15D1BDF90411BDF90601BDF90A41BDF99B
S325000013C808210DEBC1017A4B31F810001219C11100EB116121F0FF01401A985412E0BDF9C5
S325000013E80411BDF90601BDF90A310DEBC101704A31F81000BDF90811C41100EB1460C9188B
S3250000140800125054BDF90A21BDF9080168498018085C0D2805D08449B1F90000401C088056
S3250000142803E081490020088011E0BDF90A11BDF90801401850280ADCBDF90801401CADF852
S325000014480801BDF81001BDF90811884294DC7648B0F9000000284ED10020ADF80C01002006
S32500001468ADF80E0107E0C046480300A0BDF90C01401CADF80C01BDF90C014D49085C5328C9
S32500001488F4D104E0BDF80E01401CADF80E01BDF80E014749085C0D28F4D1BDF80E01401CEF
S325000014A8ADF80E01BDF90C11BDF80E01401AADF80E010020ADF804010FE0BDF90C41BDF953
S325000014C804013B4ABDF90411394B0019105C5854BDF90401401CADF80401BDF80E01BDF9B9
S325000014E804118842E9DCBDF80E01314A002111542E49012008804F49088840F04000088035
S325000015084A49088840F0040008804949088840F00400088046B010BD900D0120460300A096
S32500001528440300A0000200A00EB5ADF80210ADF8000044494FF0FF3008804349002008605E
S325000015484249002008800120ADF804000020ADF80600BDF90400002857D0BDF90200B0F54F
S32500001568005F07D1BDF9000020B9FFF7CBFDFFF7A5FE0CE0BDF9000010B9FFF74DF901E0B8
S32500001588FFF788F80948B0F900000028F2D00848FFF7E2FA00280DD52D4921200870264919
S325000015A80D20087025490A2008700CE09E0D0120980B01202649062008701F490D200870D2
S325000015C81E490A200870FFF75DFCADF80400BDF9000060B9BDF90200B0F5805F03D10320FA
S325000015E8FFF705FA06E00320FFF7A8FD02E00320FFF7CBF9BDF90600411CADF80610FFF7BB
S325000016081FFDBDF904000028A7D1124800684FF47A71B0FBF1F10A48FEF7C8FF0848FEF776
S32500001628CEFFFEE7000400A04A0D0120580300A0600300A0480300A0E90B0120EA0B0120BA
S32500001648001000408E0D0120400D01208C0D0120E80B01203C0D01201CB58DF805208DF8CA
S32500001668041000909DF804409DF804309DF8052000980121A1409A40C9B2D2B2FEF786FF6E
S321000016881CBDADF1080D0191009001980099884201DD009800E0019802B070473E
S325000016A800B5ADF12C0DADF810000021142205A82AF0B8F9B449BDF9100040F2262202FBD2
S325000016C80010B2492AF0A6FFB249BDF9100031F91020AF49742010FB02F07438085AADF8DB
S325000016E81200BDF8120040B9BDF91000A949AA4A31F91010002022F81100BDF912001BF0F6
S3250000170873FE01281ED0BDF912001BF03FFE012836D0BDF910009F4931F910209F49742070
S3250000172810FB02F07438085A50BBBDF910009949974A31F91010742010FB01F00021743855
S3250000174811521DE0BDF912001BF020FE012817D0BDF910008F498E4A31F91010742010FBBB
S3250000176801F0002174381152BDF9100089498B4A31F91010742010FB01F0002174381152C3
S32500001788BDF812100A20B1FBF0F030308DF81400BDF812000A2290FBF2F15143401A303006
S325000017A88DF81500BDF91000774940F2262202FB0010142205A92AF038FEBDF910007249BF
S325000017C840F2262202FB0010704905222AF02DFEBDF910006F4931F91010C80100EB0130A2
S325000017E86F49A0F58450401803C842F2107200232AF001F802AA82E80300032000900220BD
S325000018080190BDF9100002A991E80C001CF08EF80BB000BD00B5ADF12C0DADF810000021C7
S32500001828142205A82AF0FEF85749BDF9100040F2262202FB001055492AF0ECFE5549BDF9C4
S32500001848100031F910205249742010FB02F07438085AADF81200BDF8120040B9BDF9100099
S325000018684C494D4A31F91010002022F81100BDF912001BF0B9FD01281ED0BDF912001BF026
S3250000188885FD012836D0BDF91000424931F910204249742010FB02F07438085A50BBBDF9F3
S325000018A810003C493A4A31F91010742010FB01F00021743811521DE0BDF912001BF066FDC4
S325000018C8012817D0BDF910003249314A31F91010742010FB01F0002174381152BDF910005E
S325000018E82C492E4A31F91010742010FB01F0002174381152BDF812100A20B1FBF0F03030F6
S325000019088DF81400BDF812000A2290FBF2F15143401A30308DF81500BDF910001A4940F27C
S32500001928262202FB0010142205A92AF07EFDBDF91000154940F2262202FB0010134905229D
S325000019482AF073FDBDF91000124931F91010C80100EB01301349A0F58450401803C842F283
S325000019681072002329F047FF02AA82E803000320009002200190BDF9100002A991E80C00E0
S325000019881BF0D4FF0BB000BDF4EB0020421601202CF80020DC0C0120C40C012034F80020E1
S325000019A8F80C0020100D002030B5ADF12C0DADF81C00002101220DF126002AF033F800216D
S325000019C80E2203A82AF02EF8884ABDF91C10012022F81100BDF91C00854940F2262212FBB7
S325000019E800F0085C8DF826009DF826003038ADF82000BDF91C008049BDF91C3040F22622DB
S32500001A0812FB00F07B4A085C40F2262111FB03F150547749BDF91C00BDF91C3040F2262267
S32500001A2812FB00F0754A085C40F2262111FB03F150540020ADF81E0087E1BDF91E40BDF946
S32500001A481C106F4A092040F2262300EB440003FB0121405C8DF826009DF826003038ADF891
S32500001A682200BDF91E40BDF91C10654A082040F2262300EB440003FB0122C94CBDF91E10A5
S32500001A88BDF91C30825C01EBC10040F226210A3001FB03414254BDF91E40BDF91C10584A8A
S32500001AA8092040F2262300EB440003FB0122BC4CBDF91E10BDF91C30825C01EBC10040F279
S32500001AC826210B3001FB03414254B649BDF92220742010FB02F07438085AADF82400BDF88C
S32500001AE8240080B1BDF91C00AF4931F9100003AA4100885E401C8852BDF9220003AA4100AF
S32500001B08885E401C8852BDF924001BF06DFC012818D0BDF924001BF039FC01282AD0BDF949
S32500001B282220A249742010FB02F07438085A08BBBDF922109B4A742010FB01F000217438DE
S32500001B48115217E0BDF924001BF020FC012811D0BDF92210934A742010FB01F000217438F0
S32500001B681152BDF92210914A742010FB01F0002174381152BDF91E10BDF82440BDF91C2082
S32500001B88874B0A2001EBC101B4FBF0F040F226240C31303004FB02328854BDF91E20BDF82D
S32500001BA824007F4DBDF91C400A2302EBC20290FBF3F10D32594340F22623401A303003FBBA
S32500001BC804515054BDF922207449D00100EB0230A0F58450085800900098002812D420201C
S32500001BE88DF82A000098019012E0C0460C0D012087E50020FCEB002086E50020FDEB0020A7
S32500001C0880E50020A0208DF82A000098404201900198000E02900298402802D002980D283B
S32500001C2807D10298401C02909DF82A0008308DF82A00BDF91E00BDF91C20594B9DF8081079
S32500001C4840F2262400EBC0000F3004FB02328154019820F07F4002900298000C029002983C
S32500001C68402802D002980D2807D10298401C02909DF82A00001D8DF82A00BDF91E00BDF9D8
S32500001C881C20474B9DF8081040F2262400EBC000103004FB0232815401986FF31F40029060
S32500001CA80298000A02900298402802D002980D2807D10298401C02909DF82A00801C8DF8FD
S32500001CC82A00BDF91E00BDF91C20354B9DF8081040F2262400EBC000113004FB0232815469
S32500001CE8019800F0FF0002900298402802D002980D2807D10298401C02909DF82A00401C9E
S32500001D088DF82A00BDF91E00BDF91C20244B9DF8081040F2262400EBC000123004FB023288
S32500001D288154BDF91E00BDF91C201D4B9DF82A1040F2262400EBC0000E3004FB0232815456
S32500001D48BDF91E00401CADF81E00BDF92000BDF91E1088423FF771AE0020ADF81E00BDF910
S32500001D681E00072815DABDF91E000DEB4000B0F90C0028B9BDF91E100D4A002022F81100F1
S32500001D88BDF91E00401CADF81E00BDF91E000728E9DB00208DF826000BB030BDB00B00202D
S32500001DA8F4EB00202CF80020DC0C012034F80020C40C0120F0B5ADF1340DADF81C00002126
S32500001DC801220AA829F02EFE00210E2203A829F029FEAF4ABDF91C10022022F81100BDF9C1
S32500001DE81C00AC4940F2262212FB00F0085C8DF828009DF828003038ADF82200BDF91C007E
S32500001E08A549BDF91C3040F2262212FB00F0A34A085C40F2262111FB03F150549D49BDF943
S32500001E281C00BDF91C3040F2262212FB00F09C4A085C40F2262111FB03F150540020ADF8D3
S32500001E481E002AE2BDF91E40BDF91C10954A092040F2262300EB440003FB0121405C8DF861
S32500001E6828009DF828003038ADF82400BDF91E40BDF91C108B4A082040F2262300EB4400A1
S32500001E8803FB0121CE4CBDF91E20BDF91C30415C40F22625D00000EB82100A3005FB03421E
S32500001EA88154BDF91E407F4ABDF91C10092040F2262300EB440003FB0121C14CBDF91E208C
S32500001EC8BDF91C30415C40F22625D00000EB82100B3005FB034281540020ADF82000BDF99B
S32500001EE820000A2880F2B0810020ADF82600BDF924206449D00100EB0230A0F58450BDF940
S32500001F082020085E904202DC1320ADF82600BDF92420AC49742010FB02F07438085AD8B148
S32500001F28BDF92420A749594B742010FB02F074380A5A5549500000EB8200085EB3F9742063
S32500001F48824209DDBDF924209E49742010FB02F07438085AADF82600BDF8260080B1BDF9BC
S32500001F681C00994931F9100003AA4100885E401C8852BDF9240003AA4100885E401C88522D
S32500001F88BDF926001BF030FA012818D0BDF926001BF0FCF901282AD0BDF924208B497420B0
S32500001FA810FB02F07438085A08BBBDF92410854A742010FB01F000217438115217E0BDF91F
S32500001FC826001BF0E3F9012811D0BDF924107D4A742010FB01F0002174381152BDF9241081
S32500001FE87A4A742010FB01F0002174381152BDF91E30BDF82660BDF92010BDF91C40704D5B
S325000020080A20DA00B6FBF0F0C1EBC10102EB8312303040F2262352180C3203FB04515054B3
S32500002028BDF91E50BDF92020BDF82600644FBDF91C600A24EB00C2EBC20290FBF4F103EBD0
S32500002048851361439B1840F22624401A0D33303004FB06715854BDF92420A449BDF92030FE
S32500002068D00100EB0230A0F58450401850F8230000900098002817D420208DF82C00009874
S32500002088019017E0240C00208A150120881501200C0D012087E5002086E50020FCEB002084
S325000020A8FDEB002080E50020A0208DF82C000098404201900198000E02900298402802D05C
S325000020C802980D2807D10298401C02909DF82C0008308DF82C00BDF91E30BDF92000BDF989
S325000020E81C40374D9DF80820D900C0EBC00001EB831140F2262309180F3103FB04500A54E5
S32500002108019820F07F4002900298000C02900298402802D002980D2807D10298401C02907C
S325000021289DF82C00001D8DF82C00BDF91E30BDF92000BDF91C40224D9DF80820D900C0EB66
S32500002148C00001EB831140F226230918103103FB04500A5401986FF31F4002900298000A14
S3250000216802900298402802D002980D2807D10298401C02909DF82C00801C8DF82C00BDF9F8
S325000021881E30BDF92000BDF91C400D4D9DF80820D900C0EBC00001EB831140F22623091884
S325000021A8113103FB04500A54019800F0FF000290029840280CD002980D2811D108E0C04688
S325000021C8F4EB00202CF80020DC0C012034F800200298401C02909DF82C00401C8DF82C0003
S325000021E8BDF91E30BDF92000BDF91C40D84D9DF80820D900C0EBC00001EB831140F22623C4
S325000022080918123103FB04500A54BDF91E30BDF92000BDF91C40CE4D9DF82C20D900C0EB30
S32500002228C00001EB831140F2262309180E3103FB04500A54BDF92000401CADF82000BDF918
S3250000224820000A28FFF650AEBDF92420C149D00100EB0230A0F58450085E0A280EDABDF99A
S3250000226824202349D00100EB0230A0F584504018B0F8241D41F48071A0F8241DBDF924200F
S32500002288B449D00100EB0230A0F5845000220A52BDF91E00401CADF81E00BDF92200BDF9DD
S325000022A81E1088423FF7CEAD0020ADF81E00BDF91E00072815DABDF91E000DEB4000B0F9DD
S325000022C80C0028B9BDF91E100A4A002022F81100BDF91E00401CADF81E00BDF91E0007288A
S325000022E8E9DB00208DF828000DB0F0BDCC0B002000000020C40C0120F0B5ADF1340DADF8A4
S325000023081C00002101220AA829F08CFB00210E2203A829F087FBAF4ABDF91C10022022F84F
S325000023281100BDF91C00AC4940F2262212FB00F0085C8DF828009DF828003038ADF8220043
S32500002348BDF91C00A549BDF91C3040F2262212FB00F0A34A085C40F2262111FB03F15054C8
S325000023689D49BDF91C00BDF91C3040F2262212FB00F09C4A085C40F2262111FB03F15054B7
S325000023880020ADF81E002AE2BDF91E40BDF91C10954A092040F2262300EB440003FB012178
S325000023A8405C8DF828009DF828003038ADF82400BDF91E40BDF91C108B4A082040F226236A
S325000023C800EB440003FB0121614CBDF91E20BDF91C30415C40F22625D00000EB82100A305C
S325000023E805FB03428154BDF91E407F4ABDF91C10092040F2262300EB440003FB0121544C63
S32500002408BDF91E20BDF91C30415C40F22625D00000EB82100B3005FB034281540020ADF837
S325000024282000BDF920000A2880F2B0810020ADF82600BDF924204749D00100EB0230A0F5CB
S325000024488450BDF92020085E904202DC1320ADF82600BDF924206549742010FB02F07438AB
S32500002468085AD8B1BDF924206049614B742010FB02F074380A5A5F49500000EB8200085EA8
S32500002488B3F97420824209DDBDF924205749742010FB02F07438085AADF82600BDF8260065
S325000024A880B1BDF91C00544931F9100003AA4100885E401C8852BDF9240003AA4100885E7C
S325000024C8401C8852BDF926001AF08EFF012818D0BDF926001AF05AFF01282AD0BDF92420D8
S325000024E84649742010FB02F07438085A08BBBDF924103E4A742010FB01F0002174381152AB
S3250000250817E0BDF926001AF041FF012811D0BDF92410364A742010FB01F00021743811525C
S32500002528BDF92410354A742010FB01F0002174381152BDF91E30BDF82660BDF92010BDF989
S325000025481C40034D0A20DA00B6FBF0F004E0C046F4EB0020240C0020C1EBC10102EB831203
S32500002568303040F2262352180C3203FB04515054BDF91E50BDF92020BDF82600AD4FBDF92C
S325000025881C600A24EB00C2EBC20290FBF4F103EB851361439B1840F22624401A0D33303064
S325000025A804FB06715854BDF92420A149BDF92030D00100EB0230A0F58450401850F82300E7
S325000025C80090009800281BD420208DF82C00009801901BE00C0D012087E5002086E5002048
S325000025E8FCEB0020FDEB002080E500202CF80020881501208A150120DC0C012034F8002022
S32500002608A0208DF82C000098404201900198000E02900298402802D002980D2807D1029842
S32500002628401C02909DF82C0008308DF82C00BDF91E30BDF92000BDF91C407E4D9DF8082080
S32500002648D900C0EBC00001EB831140F2262309180F3103FB04500A54019820F07F40029022
S325000026680298000C02900298402802D002980D2807D10298401C02909DF82C00001D8DF8AE
S325000026882C00BDF91E30BDF92000BDF91C40694D9DF80820D900C0EBC00001EB831140F2AB
S325000026A826230918103103FB04500A5401986FF31F4002900298000A02900298402802D0BB
S325000026C802980D2807D10298401C02909DF82C00801C8DF82C00BDF91E30BDF92000BDF91F
S325000026E81C40544D9DF80820D900C0EBC00001EB831140F226230918113103FB04500A54C0
S32500002708019800F0FF0002900298402802D002980D2807D10298401C02909DF82C00401C71
S325000027288DF82C00BDF91E30BDF92000BDF91C40404D9DF80820D900C0EBC00001EB8311E0
S3250000274840F226230918123103FB04500A54BDF91E30BDF92000BDF91C40364D9DF82C208C
S32500002768D900C0EBC00001EB831140F2262309180E3103FB04500A54BDF92000401CADF825
S325000027882000BDF920000A28FFF650AEBDF924202949D00100EB0230A0F58450085E0A28B5
S325000027A80EDABDF924202549D00100EB0230A0F584504018B0F8241D41F48071A0F8241D24
S325000027C8BDF924201C49D00100EB0230A0F5845000220A52BDF91E00401CADF81E00BDF90E
S325000027E82200BDF91E1088423FF7CEAD0020ADF81E00BDF91E00072815DABDF91E000DEBA9
S325000028084000B0F90C0028B9BDF91E10D34A002022F81100BDF91E00401CADF81E00BDF9DF
S325000028281E000728E9DB00208DF828000DB0F0BDFC0B0020F4EB0020240C002000000020AC
S3250000284830B5ADF1340DADF8100000210E22684629F0E8F8002101220DF12E0029F0E2F896
S32500002868002114220DF11A0029F0DCF8BC49BDF9100031F91000002840F30F81BDF9100038
S32500002888B74931F91000062800F30781BDF91000B34931F91020D949742010FB02F07438CC
S325000028A8085A0A21B0FBF1F030308DF81A00BDF91000AB4931F91020D049742010FB02F034
S325000028C87438085A0A2290FBF2F15143401A30308DF81B00BDF91000D74940F2262202FBF7
S325000028E8001014220DF11A0129F09FFDBDF91000D14940F2262202FB0010D049052229F0F6
S3250000290894FDBDF91000964931F91020DA49742010FB02F07438085A0A21B0FBF1F0303040
S325000029288DF81A00BDF910008D4931F91020D249742010FB02F07438085A0A2290FBF2F1A0
S325000029485143401A30308DF81B00BDF91000844931F91020C849742010FB02F07438085ADE
S32500002968ADF81800BDF8180040B9BDF910007C497A4A31F91010002022F81100BDF9180014
S325000029881AF032FD01281ED0BDF918001AF0FEFC012836D0BDF91000714931F91020CF49E6
S325000029A8742010FB02F07438085A50BBBDF910006B49B14A31F91010742010FB01F00021EF
S325000029C8743811521DE0BDF918001AF0DFFC012817D0BDF910006249A74A31F910107420DA
S325000029E810FB01F0002174381152BDF910005C49BA4A31F91010742010FB01F00021743887
S32500002A081152BDF910008C4940F2262202FB001014220DF11A0129F008FDBDF91000864921
S32500002A2840F2262202FB00108449052229F0FDFCD9480088ADF81800BDF91000BDF81810F2
S32500002A4806F0B6F9BDF910007B4940F2262202FB00107A49052229F0E8FCD8480088ADF87E
S32500002A681800BDF91000BDF8181006F0A1F9BDF91000714940F2262202FB00106F49052217
S32500002A8829F0D3FCD6480088ADF81800BDF91000BDF8181006F0FEF8B8E1BDF91000304976
S32500002AA831F91000002840F0B181BDF91000D84940F2262212FB00F0085C8DF82E009DF83A
S32500002AC82E003038ADF8140000208DF82E000020ADF8120038E0BDF91240BDF91010CD4AE2
S32500002AE8062040F2262300EB440003FB0121BDF91240514BBDF91020415C40F2262508200C
S32500002B0805FB023200EB44008154BDF91240C14ABDF91010072040F2262300EB440003FBB7
S32500002B280121BDF91240444BBDF91020415C40F22625092005FB023200EB44008154BDF9B7
S32500002B481200401CADF81200BDF91400BDF912108842C0DA0020ADF8120031E1C40C012062
S32500002B68DC0C0120BDF91240BDF91010A94A092040F2262300EB440003FB0121405C8DF859
S32500002B882E009DF82E003038ADF81600BDF91000294940F2262202FB00102849052229F0A3
S32500002BA844FCBDF916201549742010FB02F07438085A0A21B0FBF1F030308DF81A00BDF972
S32500002BC816200E49742010FB02F07438085A0A2290FBF2F15143401A30308DF81B00BDF97D
S32500002BE81000154940F2262202FB001014220DF11A0129F01AFCBDF9100001E02EF8002067
S32500002C080D4940F2262202FB00100C49052229F00CFCBDF916201849742010FB02F07438A2
S32500002C28085A0A21B0FBF1F030308DF81A00BDF91620114904E0C046F4EB002042160120C6
S32500002C48742010FB02F07438085A0A2290FBF2F15143401A30308DF81B00BDF91620064904
S32500002C68742010FB02F07438085AADF81800BDF81800A0B102E0C0462CF80020BDF91000DA
S32500002C88D04931F910006A464100885E401C8852BDF916006A464100885E401C8852BDF937
S32500002CA818001AF0A1FB01281AD0BDF918001AF06DFB01282CD0BDF916200849742010FBF4
S32500002CC802F07438085A18BBBDF91610CB4A742010FB01F000217438115219E034F800201D
S32500002CE8BDF918001AF052FB012811D0BDF91610C24A742010FB01F0002174381152BDF939
S32500002D081610CE4A742010FB01F0002174381152BDF91000D34940F2262202FB0010142208
S32500002D280DF11A0129F081FBBDF91000CD4940F2262202FB0010CC49052229F076FB164850
S32500002D480088ADF81800BDF91000BDF8181006F02FF8BDF91000C34940F2262202FB001007
S32500002D68C149052229F061FB14480088ADF81800BDF91000BDF8181006F01AF8BDF910008D
S32500002D88B84940F2262202FB0010B749052229F04CFB134802E0C046960D01200088ADF8E2
S32500002DA81800BDF91000BDF8181005F073FFBDF91200401CADF8120002E0C046A80D01204A
S32500002DC8BDF91400BDF9121088423FF7CBAE0020ADF81200BDF91200072817DA02E0C04623
S32500002DE85C0D0120BDF912003DF9100028B9BDF91210B74A002022F81100BDF91200401C04
S32500002E08ADF81200BDF912000728EBDB0DB030BD87E5002080E5002030B5ADF1340DADF80C
S32500002E28100000210E22684628F0FCFD002101220DF12E0028F0F6FD002114220DF11A007A
S32500002E4828F0F0FD5F49BDF9100031F91000002840F3D680BDF910005A4931F91000062835
S32500002E6800F3CE80BDF91000564931F91020D949742010FB02F07438085A0A21B0FBF1F0CC
S32500002E8830308DF81A00BDF910004E4931F91020D049742010FB02F07438085A0A2290FBFF
S32500002EA8F2F15143401A30308DF81B00BDF910006C4940F2262202FB001014220DF11A01E2
S32500002EC829F0B3FABDF91000664940F2262202FB00106549052229F0A8FABDF9100039494A
S32500002EE831F910204549742010FB02F07438085A0A21B0FBF1F030308DF81A00BDF91000C1
S32500002F08304931F910203D49742010FB02F07438085A0A2290FBF2F15143401A30308DF83E
S32500002F281B00BDF91000274931F910203349742010FB02F07438085AADF81800BDF8180033
S32500002F4840B9BDF910001F49614A31F91010002022F81100BDF918001AF046FA01281ED0CD
S32500002F68BDF918001AF012FA012839D0BDF91000144931F910203149742010FB02F07438F9
S32500002F88085A68BBBDF910000E491C4A31F91010742010FB01F000217438115220E0BDF95B
S32500002FA818001AF0F3F901281AD0BDF910000549124A31F91010742010FB01F000217438CB
S32500002FC8115201E0DC0C0120BDF91000D6491B4A31F91010742010FB01F000217438115242
S32500002FE8BDF910001F4940F2262202FB001014220DF11A0129F019FA69E1C0462CF80020FF
S32500003008BDF91000C84931F91000002840F05F81BDF91000CF4940F2262212FB00F0085CA0
S325000030288DF82E009DF82E003038ADF8140000208DF82E000020ADF812003FE034F80020D6
S32500003048BDF91240BDF91010D24A062040F2262300EB440003FB0121BDF91240CE4BBDF9A1
S32500003068102003E0F4EB002042160120415C40F22625082005FB023200EB44008154BDF987
S325000030881240C44ABDF91010072040F2262300EB440003FB0121BDF91240BF4BBDF9102003
S325000030A8415C40F22625092005FB023200EB44008154BDF91200401CADF81200BDF91400E2
S325000030C8BDF912108842BBDA0020ADF81200DCE0C40C0120BDF91240BDF91010AD4A092029
S325000030E840F2262300EB440003FB0121405C8DF82E009DF82E003038ADF81600BDF91000FD
S32500003108A54940F2262202FB0010B349052229F08CF9BDF916202F49742010FB02F07438CA
S32500003128085A0A21B0FBF1F030308DF81A00BDF916202849742010FB02F07438085A0A2241
S3250000314890FBF2F15143401A30308DF81B00BDF91000914940F2262202FB001014220DF1AA
S325000031681A0129F062F9BDF910008B4940F2262202FB00109849052229F057F9BDF9162034
S325000031889649742010FB02F07438085A0A21B0FBF1F030308DF81A00BDF916208F49742095
S325000031A810FB02F07438085A0A2290FBF2F15143401A30308DF81B00BDF91620874974201E
S325000031C810FB02F07438085AADF81800BDF8180098B101E02EF80020BDF91000524931F951
S325000031E810006A464100885E401C8852BDF916006A464100885E401C8852BDF918001AF0F3
S32500003208F3F8012818D0BDF918001AF0BFF801282AD0BDF91620D949742010FB02F07438A7
S32500003228085A08BBBDF916106C4A742010FB01F000217438115217E0BDF918001AF0A6F89C
S32500003248012811D0BDF91610644A742010FB01F0002174381152BDF91610C84A742010FB7F
S3250000326801F0002174381152BDF910004A4940F2262202FB001014220DF11A0129F0D5F80A
S32500003288BDF91200401CADF81200BDF91400BDF9121088423FF71EAF0020ADF81200BDF949
S325000032A81200072813DABDF912003DF9100028B9BDF91210CE4A002022F81100BDF91200E0
S325000032C8401CADF81200BDF912000728EBDB0DB030BD0EB5ADF808001349BDF9080031F9B2
S325000032E81000D3494FF4747212FB00F0A0F57470085AADF80A000020009000200190BDF9CD
S325000033080A20BDF90800D3171AF010FB0EBD0EB5ADF808000449BDF9080031F91000D4491B
S325000033284FF4747202E0C046DC0C012012FB00F0A0F57470085AADF80A000020009000200E
S325000033480190BDF90A20BDF90800D3171AF0EEFA0EBDC04687E500200EB5ADF80800D84966
S32500003368BDF9080031F91000C2494FF4747212FB00F0A0F57470085AADF80A0003200090D9
S3250000338800200190BDF90A20BDF90800D3171AF0CDFA0EBD80E50020F4EB00200EB5ADF85E
S325000033A80800C749BDF9080031F91000B2494FF4747212FB00F0A0F57470085AADF80A0044
S325000033C80120009000200190BDF90A20BDF90800D3171AF0ABFA0EBD421601202CF80020BE
S325000033E830B5ADF11C0DADF80800002101220DF1120028F017FBB249BDF9080031F91000F5
S32500003408002821DDBDF90800AD4931F9100006281ADCBDF90800AA4931F9100097494FF458
S32500003428747212FB00F0A0F57470085AADF810000120009000200190BDF91020BDF9080005
S32500003448D3171AF073FA93E0BDF908009C4931F91000002840F08C80BDF90800884940F288
S32500003468262212FB00F0085C8DF812009DF812003038ADF80C000020ADF80A0038E0BDF9A1
S325000034880A40BDF90810D14A062040F2262300EB440003FB0121BDF90A40CD4BBDF9082005
S325000034A8415C40F22625082005FB023200EB44008154BDF90A40C54ABDF90810072040F24E
S325000034C8262300EB440003FB0121BDF90A40C04BBDF90820415C40F22625092005FB0232E6
S325000034E800EB44008154BDF90A00401CADF80A00BDF90C00BDF90A108842C0DA0020ADF834
S325000035080A002FE0BDF90A40BDF90810AF4A092040F2262300EB440003FB0121405C8DF8A9
S3250000352812009DF812003038ADF80E00BDF90E0052494FF4747212FB00F0A0F57470085A49
S32500003548ADF810000120009001200190BDF91020BDF90800D3171AF0E9F9BDF90A00401CAF
S32500003568ADF80A00BDF90C00BDF90A108842C9DC00208DF8120007B030BDC04634F80020E0
S325000035880EB5ADF808004E49BDF9080031F9100090494FF4747212FB00F0A0F57470085A44
S325000035A8ADF80A000020009002200190BDF90A20BDF90800D3171AF0B9F94149BDF908005F
S325000035C831F9100084494FF4747212FB00F0A0F57470085AADF80A000020009000200190C5
S325000035E8BDF90A20BDF90800D3171AF09FF90EBDC40C01200EB5ADF808003149BDF908002F
S3250000360831F91000C5494FF4747212FB00F0A0F57470085AADF80A00022000900020019041
S32500003628BDF90A20BDF90800D3171AF07FF90EBDA4BE00200EB5ADF808002149BDF908008D
S3250000364831F91000B6494FF4747212FB00F0A0F57470085AADF80A00002000900020019012
S32500003668BDF90A20BDF90800D3171AF05FF90EBDA0BE0020A6BE0020A8BE0020AABE002077
S3250000368887E5002000B5ADF11C0DADF810000C49BDF9100031F91000BE494FF4747212FBCD
S325000036A800F0A0F57470085A0FFA90F000F0FF00ADF81800002000900020019002E0C046B3
S325000036C8DC0C0120BDF91820BDF91000D3171AF02DF9CB49BDF9100031F91000AE494FF4B7
S325000036E8747212FB00F0A0F57470401802900020ADF81200BDF912000F2827DA029800887D
S32500003708ADF816000298801C029002980088ADF81400BDF81410BDF8160000EB01400390DA
S325000037280120009001200190039ABDF91000D3171AF0FCF80298801C0290BDF91200401CE1
S32500003748ADF81200BDF912000F28D7DBBDF91000AB4931F9100091494FF4747212FB00F0FF
S32500003768A0F57470401802900020ADF81200BDF912000F2827DA02980088ADF8160002988A
S32500003788801C029002980088ADF81400BDF81410BDF8160000EB01400390012000900120DD
S325000037A80190039ABDF91000D3171AF0BFF80298801C0290BDF91200401CADF81200BDF903
S325000037C812000F28D7DB07B000BDC04680E50020F4EB0020ACBE0020AEBE002000B5ADF179
S325000037E81C0DADF810008649BDF9100031F910006B494FF4747212FB00F0A0F57470085E55
S325000038080FFA90F000F0FF00ADF818000020009000200190BDF91820BDF91000D3171AF05C
S3250000382885F87749BDF9100031F910005D494FF4747212FB00F0A0F57470401802900020EE
S32500003848ADF81200BDF912000F2827DA02980088ADF816000298801C029002980088ADF837
S325000038681400BDF81410BDF8160000EB014003900320009001200190039ABDF91000D31711
S325000038881AF054F80298801C0290BDF91200401CADF81200BDF912000F28D7DBBDF91000AA
S325000038A8574931F91000C3494FF4747212FB00F0A0F57470401802900020ADF81200BDF9FE
S325000038C812000F2827DA02980088ADF816000298801C029002980088ADF81400BDF8141037
S325000038E8BDF8160000EB014003900320009001200190039ABDF91000D3171AF017F80298CB
S32500003908801C0290BDF91200401CADF81200BDF912000F28D7DB07B000BDC046B0BE0020D7
S32500003928B4BE00200EB5ADF808003549BDF9080031F91000A0494FF4747212FB00F0A0F55D
S325000039487470085AADF80A000020009002200190BDF90A20BDF90800D31719F0E7FF284919
S32500003968BDF9080031F9100094494FF4747212FB00F0A0F57470085AADF80A000120009003
S3250000398800200190BDF90A20BDF90800D31719F0CDFF0EBDACC00020B0C00020ECC0002058
S325000039A832C0002034C0002030B5ADF1240DADF800000021012207A828F034F800211422EC
S325000039C802A828F02FF80E49BDF9000031F91000002839DDBDF90000094931F910000628FB
S325000039E832DCBDF90000064931F910207449742010FB02F07438085A0A21B0FBF1F001E058
S32500003A08DC0C012030308DF80800BDF90000D34931F910206A49742010FB02F07438085A24
S32500003A280A2290FBF2F15143401A30308DF80900BDF90000D24940F2262202FB0010142274
S32500003A4802A928F0F2FCB3E0BDF90000C34931F91000002840F0AC80BDF90000C94940F29A
S32500003A68262212FB00F0085C8DF81C009DF81C003038ADF8040000208DF81C000020ADF8A6
S32500003A88020038E0BDF90240BDF90010BE4A062040F2262300EB440003FB0121BDF9024050
S32500003AA8B74BBDF90020415C40F22625082005FB023200EB44008154BDF90240B24ABDF9FC
S32500003AC80010072040F2262300EB440003FB0121BDF90240AA4BBDF90020415C40F22625FA
S32500003AE8092005FB023200EB44008154BDF90200401CADF80200BDF90400BDF90210884250
S32500003B08C0DA0020ADF802004CE0BDF90240BDF900109D4A092040F2262300EB440003FB94
S32500003B280121405C8DF81C009DF81C003038ADF80600BDF90000924940F2262202FB00103C
S32500003B48AD49052228F071FCBDF906201C49742010FB02F07438085A0A21B0FBF1F03030BE
S32500003B688DF80800BDF906201549742010FB02F07438085A0A2290FBF2F15143401A3030E9
S32500003B888DF80900BDF900007D4940F2262202FB0010142202A928F048FCBDF90200401C35
S32500003BA8ADF80200BDF90400BDF902108842ACDC09B030BD70C00020B8BE0020B6BE00205C
S32500003BC82EF8002000B5ADF12C0DADF810000021142206A827F026FF6049BDF9100031F976
S32500003BE8100086494FF4747212FB00F0A0F57470085A0290BDF91000029905F035F9604918
S32500003C08BDF9100040F2262202FB00107A49052228F00BFC7A48B0F90000B0F5805F0CD174
S32500003C28002002900020009002200190029ABDF91000002319F07AFE0BE00120029000209D
S32500003C48009002200190029ABDF91000002319F06DFEBDF91000414931F9100069494FF49B
S32500003C68747212FB00F0A0F57470401803900020ADF81200BDF91200082851DA03980088D2
S32500003C88ADF81400BDF91400C11100EB11600012ADF81600BDF91600302803DBBDF91600CA
S32500003CA8392807DDBDF9160041280ADBBDF916005A2806DCBDF912109DF816000DEB4101AA
S32500003CC80876BDF91400C11100EB116121F0FF01401AADF81600BDF91600302803DBBDF981
S32500003CE81600392807DDBDF9160041280CDBBDF916005A2808DCBDF912209DF81610012049
S32500003D0800EB4200684401760398801C0390BDF91200401CADF81200BDF912000828ADDB20
S32500003D28BDF91000164940F2262202FB0010142206A928F07AFB3248B0F90000B0F5805FB0
S32500003D480ED1002002900020009001200190029ABDF91000002319F0E9FD0EE0DC0C0120F7
S32500003D6826F012FA02900020009001200190BDF91000029A002319F0D9FD0BB000BDC0463D
S32500003D88F4EB002087E5002080E500200EB5ADF80400D349BDF9040031F9100017494FF4E6
S32500003DA8747212FB00F0A0F57470085A00900099BDF9040005F014F9CA49BDF9040040F253
S32500003DC8262202FB00100C49052228F02EFBC449BDF9040031F910000B494FF4747212FB38
S32500003DE800F0A0F57470085A0090BDF90400009905F0F6F80EBDC0464216012014C20020E4
S32500003E08580D012018C2002016C2002010B5ADF1400DADF82000002101220FA827F002FE95
S32500003E28002114220AA827F0FDFDBDF92000AF49BDF9203040F2262212FB00F0AC4A085CB5
S32500003E4840F2262111FB03F15054AA49BDF92000BDF9203040F2262212FB00F0A24A085CA1
S32500003E6840F2262111FB03F15054A249BDF9200040F2262212FB00F0085C8DF83C009DF825
S32500003E883C003038ADF82400BDF9240010B90A20ADF8240000208DF83C00BDF92010914871
S32500003EA840F2262202FB01009349052228F0BDFABDF920008A4931F91000D6494FF474727F
S32500003EC812FB00F0A0F57470085A07900020009002200190BDF92000079AD31719F026FD75
S32500003EE8CD48006807900020009002200190BDF92000079AD31719F019FDBDF92000784926
S32500003F08BDF92430C54A31F910104FF4BE64982014FB01F110FB03F0A1F5BE6198388918EE
S32500003F280918B1F9020007900020009002200190BDF92000079AD31719F0F8FCBDF9200078
S32500003F486749BDF92430B54A31F910104FF4BE64982014FB01F110FB03F0A1F5BE619838AF
S32500003F6889180918486807900020009002200190BDF92000079AD31719F0D8FCBDF92000B3
S32500003F885749BDF92430A54A31F910004FF4BE64982114FB00F011FB03F1A0F5BE6098399F
S32500003FA88018085E0A2190FBF1F030308DF82800BDF920004A49BDF92430984A31F91000C2
S32500003FC84FF4BE64982114FB00F011FB03F1A0F5BE6098398018085E0A2290FBF2F1514306
S32500003FE8401A30308DF82900BDF920103D4840F2262202FB010014220AA928F016FABDF9A1
S325000040082010384840F2262202FB01003A49052228F00BFABDF92410314A982010FB01F08A
S32500004028BDF9201032F911104FF4BE6212FB01F17A4A9838A1F5BE6189180918C86807900C
S325000040480220009002200190BDF92000079AD31719F06CFCBDF92410214A982010FB01F012
S32500004068BDF9201032F911104FF4BE6212FB01F16A4A9838A1F5BE6189180918086907909B
S325000040880320009002200190BDF92000079AD31719F04CFCBDF92410114A982010FB01F001
S325000040A8BDF9201032F911104FF4BE6212FB01F15A4A9838A1F5BE6189180918486907902B
S325000040C80020009002200190BDF92000079AD31719F02CFCBDF92410014A98200EE0C046FC
S325000040E8DC0C0120F4EB0020FEEB002086E50020FDEB002087E500204216012010FB01F00D
S32500004108BDF9201032F911104FF4BE6212FB01F1424A9838A1F5BE6189180918183103C915
S32500004128002342F2107227F066FB04AA82E803000320009002200190BDF9200004A991E8A3
S325000041480C0019F0F3FBBDF92410CB4A982010FB01F0BDF9201032F911104FF4BE6212FBF9
S3250000416801F12E4A9838A1F5BE6189180918086A07900020009002200190BDF92000079A9D
S32500004188D31719F0D3FBBDF92410BB4A982010FB01F0BDF9201032F911104FF4BE6212FB0B
S325000041A801F11E4A9838A1F5BE6189180918486A07900020009002200190BDF92000079A2D
S325000041C8D31719F0B3FBBDF92410AB4A982010FB01F0BDF9201032F911104FF4BE6212FBFB
S325000041E801F10E4A9838A1F5BE6189180918886A02AA4001C11782E80300094802AA0021DE
S325000042080CCA904299410DDA0548002102AA82E8030015E0B6C10020581701200063002001
S32500004228FFE0F505934802AA4FF0FF310CCA82428B4105DA8F484FF0FF3102AA82E80300FD
S325000042480020009002200190BDF9200002A991E80C0019F06BFBBDF92410874A982010FBFA
S3250000426801F0BDF9201032F911104FF4BE6212FB01F1CF4A9838A1F5BE6189180918C86A19
S3250000428807900020009002200190BDF92000079AD31719F04BFBBDF92410774A982010FBF8
S325000042A801F0BDF9201032F911104FF4BE6212FB01F1BF4A9838A1F5BE6189180918086BA8
S325000042C807900020009002200190BDF92000079AD31719F02BFBBDF92410674A982010FBE8
S325000042E801F0BDF9201032F911104FF4BE6212FB01F1AF4A9838A1F5BE6189180918888ED5
S32500004308ADF82600BDF92000BDF8261004F0C2FCBDF92010B94840F2262202FB0100B849F1
S32500004328052228F082F8BDF92410534A982010FB01F0BDF9201032F911104FF4BE6212FBD9
S3250000434801F19B4A9838A1F5BE6189180918B1F9360007900020009002200190BDF9200081
S32500004368079AD31719F0E2FABDF92410424A982010FB01F0BDF9201032F911104FF4BE6200
S3250000438812FB01F18A4A9838A1F5BE6189180918B1F9380007900020009002200190BDF963
S325000043A82000079AD31719F0C1FABDF92410324A982010FB01F0BDF9201032F911104FF4F1
S325000043C8BE6212FB01F17A4A9838A1F5BE6189180918B1F93A0007900020009002200190C7
S325000043E8BDF92000079AD31719F0A0FABDF92410214A982010FB01F0BDF9201032F9111070
S325000044084FF4BE6212FB01F1694A9838A1F5BE6189180918B1F93C000790002000900220E3
S325000044280190BDF92000079AD31719F07FFABDF92410114A982010FB01F0BDF9201032F9F0
S3250000444811104FF4BE6212FB01F1594A9838A1F5BE6189180918B1F93E00079000200090B2
S3250000446802200190BDF92000079AD31719F05EFA04E0C046011F0AFADC0C01206148008871
S32500004488ADF82600BDF82610BDF9200004F090FCBDF92010594840F2262202FB0100584962
S325000044A8052227F0C2FFBDF92000DB49BDF924303F4A31F910104FF4BE64982014FB01F1FA
S325000044C810FB03F0A1F5BE61983889180918B1F84000ADF82600BDF92000BDF8261004F020
S325000044E867FCBDF92010454840F2262202FB01004349052227F099FF43480088ADF8260020
S32500004508BDF92000BDF8261004F0C4FBBDF920103A4840F2262202FB01003949052227F079
S3250000452884FF32480088ADF82600BDF92000BDF8261004F0AFFB2E480088ADF82600BDF93F
S325000045482000BDF8261004F0A5FB2A480088ADF82600BDF92000BDF8261004F09BFB264830
S325000045680088ADF82600BDF92000BDF8261004F091FBBDF92000A849BDF924300C4A31F948
S3250000458810104FF4BE64982014FB01F110FB03F0A1F5BE6198388918091842310691002060
S325000045A8ADF82200BDF9220028281CDA02E0C046006300200698008807900020009001200F
S325000045C80190079ABDF92000D31719F0AFF90698801C0690BDF92200401CADF82200BDF9A9
S325000045E822002828E6DB10B010BDC0465E0D0120600D0120620D0120640D0120F4EB0020AC
S3250000460842160120960D01205C0D012010B5ADF1400DADF81C00002101220EA827F002FA47
S325000046280021142209A827F0FDF9BDF91C007B49BDF91C3040F2262212FB00F0784A085C22
S3250000464840F2262111FB03F150547649BDF91C00BDF91C3040F2262212FB00F0724A085C05
S3250000466840F2262111FB03F150546E49BDF91C0040F2262212FB00F0085C8DF838009DF859
S3250000468838003038ADF82000BDF9200010B90A20ADF8200000208DF83800C949BDF91C0058
S325000046A840F2262202FB0010C649052227F0BDFEBDF91C00584931F91000C3494FF474727B
S325000046C812FB00F0A0F57470085A06900020009002200190069ABDF91C00D31719F026F977
S325000046E8BA48006806900020009002200190069ABDF91C00D31719F019F9BDF91C00464971
S32500004708BDF92030B24A31F910104FF4BE64982014FB01F110FB03F0A1F5BE6198388918FD
S325000047280918B1F9020006900020009002200190BDF91C00069AD31719F0F8F8BDF91C007E
S325000047483549BDF92030A24A31F910104FF4BE64982014FB01F110FB03F0A1F5BE619838F0
S3250000476889180918486806900020009002200190BDF91C00069AD31719F0D8F8BDF91C00B9
S325000047882549BDF92030924A31F910004FF4BE64982114FB00F011FB03F1A0F5BE609839E0
S325000047A88018085E0A2190FBF1F030308DF82400BDF91C001849BDF92030854A31F910000B
S325000047C84FF4BE64982114FB00F011FB03F1A0F5BE6098398018085E0A2290FBF2F15143FE
S325000047E8401A30308DF82500BDF91C00744940F2262202FB0010142209A927F016FEBDF968
S325000048081C006F4940F2262202FB00106D49052227F00BFE0AE0C046DC0C012086E50020AE
S32500004828FDEB002087E50020FEEB0020BDF92010CC4A982010FB01F0BDF91C1032F91110EF
S325000048484FF4BE6212FB01F1614A9838A1F5BE6189180918C86806900220009002200190CB
S32500004868BDF91C00069AD31719F060F8BDF92010BC4A982010FB01F0BDF91C1032F911109F
S325000048884FF4BE6212FB01F1514A9838A1F5BE618918091808690690032000900220019059
S325000048A8BDF91C00069AD31719F040F8BDF92010AC4A982010FB01F0BDF91C1032F911108F
S325000048C84FF4BE6212FB01F1414A9838A1F5BE61891809184969642048430690022000908D
S325000048E802200190BDF91C00069AD31719F01EF8BDF920109B4A982010FB01F0BDF91C101B
S3250000490832F911104FF4BE6212FB01F1304AA1F5BE618918A04A98380918183103C90023F8
S3250000492826F069FF04AA82E803000120009002200190BDF91C0004A991E80C0018F0F6FF6B
S32500004948002006900020009002200190BDF91C00069AD31718F0EAFF00200690002000907D
S3250000496802200190BDF91C00069AD31718F0DEFFBDF920107B4A982010FB01F0BDF91C10F4
S3250000498832F911104FF4BE6212FB01F1104A9838A1F5BE6189180918886A02AA4001C11703
S325000049A882E803007D4802AA00210CCA9042994110DA7A48002102AA82E8030018E0C04684
S325000049C8F4EB002042160120B6C100205817012000630020724802AA4FF0FF310CCA824238
S325000049E88B4105DA6E484FF0FF3102AA82E803000020009002200190BDF91C0002A991E867
S32500004A080C0018F093FF002006900020009002200190BDF91C00069AD31718F087FF0020BF
S32500004A2806900020009002200190BDF91C00069AD31718F07BFFBDF920104A4A982010FB54
S32500004A4801F0BDF91C1032F911104FF4BE6212FB01F1554A9838A1F5BE6189180918888ECB
S32500004A68ADF82200BDF91C00BDF8221004F012F9BDF91C00B64940F2262202FB00104949BF
S32500004A88052227F0D2FC002006900020009002200190BDF91C00069AD31718F047FFBDF983
S32500004AA82010304A982010FB01F0BDF91C1032F911104FF4BE6212FB01F13B4A9838A1F50F
S32500004AC8BE6189180918B1F9380006900020009002200190BDF91C00069AD31718F026FF83
S32500004AE8BDF920101F4A982010FB01F0BDF91C1032F911104FF4BE6212FB01F12A4A9838D1
S32500004B08A1F5BE6189180918B1F93A0006900020009002200190BDF91C00069AD31718F0CF
S32500004B2805FF002006900020009002200190BDF91C00069AD31718F0F9FE00200690002019
S32500004B48009000200190BDF91C00069AD31718F0EDFE0020ADF81E00BDF91E00282818DABE
S32500004B6802E0C046DC0C0120002006900020009001200190069ABDF91C00D31718F0D6FEE6
S32500004B88BDF91E00401CADF81E00BDF91E002828EADB10B010BDC04640420F00FFE0F5052E
S32500004BA8011F0AFA421601200063002030B5ADF1240DADF814000021012207A826F032FF20
S32500004BC8D649BDF9140040F2262212FB00F0085C8DF81C009DF81C003038ADF8180000206C
S32500004BE88DF81C000020ADF8160038E0BDF91640BDF91410D44A062040F2262300EB44003F
S32500004C0803FB0121BDF91640514BBDF91420415C40F22625082005FB023200EB440081545A
S32500004C28BDF91640C84ABDF91410072040F2262300EB440003FB0121BDF91640444BBDF92C
S32500004C481420415C40F22625092005FB023200EB44008154BDF91600401CADF81600BDF9FE
S32500004C681800BDF916108842C0DA0020ADF81600E2E0BDF91400B44940F2262202FB0011E2
S32500004C88BDF91620092000EB4200405C8DF81C009DF81C003038ADF81A00BDF91A004FF49C
S32500004CA8747111FB00F0D049A0F57470085E04900220009001200190BDF91400049AD317C3
S32500004CC818F034FEBDF91A004FF4747111FB00F05E49A0F57470085A0490002000900120B1
S32500004CE80190BDF91400049AD31718F01FFEBDF91A004FF4747111FB00F05549A0F5747093
S32500004D08085A04900020009001200190BDF91400049AD31718F00AFEBDF91A004FF47471D3
S32500004D2811FB00F0AF49A0F57470085802AA4001C11782E80300AD4802AA00210CCA9042FC
S32500004D48994107DAA948002102AA82E803000FE0F4EB0020AE4802AA4FF0FF310CCA8242C6
S32500004D688B4105DAAA484FF0FF3102AA82E803000020009001200190BDF9140002A991E8B0
S32500004D880C0018F0D3FDBDF91A004FF4747111FB00F0CE49A0F57470085A049000200090F7
S32500004DA801200190BDF91400049AD31718F0BEFDBDF91A004FF4747111FB00F0C449A0F588
S32500004DC87470085A04900020009001200190BDF91400049AD31718F0A9FDBDF91A004FF476
S32500004DE8747111FB00F0BB49A0F57470085A04900020009001200190BDF91400049AD3179D
S32500004E0818F094FDBDF91A004FF4747111FB00F0B149A0F57470085A0490002000900120BD
S32500004E280190BDF91400049AD31718F07FFDBDF91600401CADF81600BDF91800BDF9161070
S32500004E4888423FF716AF09B030BDC04640C1002042C1002030B5ADF1240DADF81400002101
S32500004E68012207A826F0DEFD2C49BDF9140040F2262212FB00F0085C8DF81C009DF81C00F5
S32500004E883038ADF8180000208DF81C000020ADF8160038E0BDF91640BDF914102A4A0620AB
S32500004EA840F2262300EB440003FB0121BDF916408A4BBDF91420415C40F22625082005FB0D
S32500004EC8023200EB44008154BDF916401E4ABDF91410072040F2262300EB440003FB01214D
S32500004EE8BDF916407D4BBDF91420415C40F22625092005FB023200EB44008154BDF916009F
S32500004F08401CADF81600BDF91800BDF916108842C0DA0020ADF81600CEE0C04687E5002043
S32500004F28BDF91400084940F2262202FB0011BDF91620092000EB4200405C8DF81C009DF8AC
S32500004F481C00303802E0C04680E50020ADF81A00BDF91A004FF4747111FB00F02249A0F59F
S32500004F687470085E04900220009001200190BDF91400049AD31718F0D9FC002004900020DE
S32500004F88009001200190BDF91400049AD31718F0CDFC002004900020009001200190BDF9D2
S32500004FA81400049AD31718F0C1FCBDF91A004FF4747111FB00F00B49A0F57470085802AAB5
S32500004FC84001C11782E80300084802AA00210CCA904299410CDA0548002102AA82E8030031
S32500004FE818E0C04644C10020B0BE0020FFE0F505074802AA4FF0FF310CCA82428B4109DA66
S3250000500803484FF0FF3102AA82E8030002E0C046011F0AFA0020009001200190BDF9140077
S3250000502802A991E80C0018F081FC002004900020009001200190BDF91400049AD31718F03D
S3250000504875FCBDF91A004FF4747111FB00F02049A0F57470085A04900020009001200190A3
S32500005068BDF91400049AD31718F060FCBDF91A004FF4747111FB00F01649A0F57470085A3E
S3250000508804900020009001200190BDF91400049AD31718F04BFC00200490002000900120E6
S325000050A80190BDF91400049AD31718F03FFCBDF91600401CADF81600BDF91800BDF916102F
S325000050C888423FF72DAF09B030BDC0464EC1002050C1002052C1002056C10020F4EB002071
S325000050E800B5ADF1140DADF80C00C949BDF90C0031F91000C7494FF4747212FB00F0A0F5A4
S325000051087470085E02900020009002200190029ABDF90C00D31718F009FCBD49BDF90C0025
S3250000512831F91000CC494FF4747212FB00F0A0F57470085E02900120009002200190029A7B
S32500005148BDF90C00D31718F0F1FBB149BDF90C0031F91000C1494FF4747212FB00F0A0F5E6
S325000051687470085E02900020009002200190029ABDF90C00D31718F0D9FBA549BDF90C000E
S3250000518831F91000B6494FF4747212FB00F0A0F57470085E02900020009002200190029A32
S325000051A8BDF90C00D31718F0C1FB9949BDF90C0031F91000C7494FF4747212FB00F0A0F5C8
S325000051C87470085E02900020009002200190029ABDF90C00D31718F0A9FB8D49BDF90C00F6
S325000051E831F91000BC494FF4747212FB00F0A0F57470085E02900020009002200190029ACC
S32500005208BDF90C00D31718F091FB8149BDF90C0031F91000B1494FF4747212FB00F0A0F5C5
S325000052287470085E02900020009002200190029ABDF90C00D31718F079FB7549BDF90C00DD
S3250000524831F91000A6494FF4747212FB00F0A0F57470085E02900020009002200190029A81
S32500005268BDF90C00D31718F061FB6949BDF90C0031F910009B494FF4747212FB00F0A0F5C3
S325000052887470085E02900020009002200190029ABDF90C00D31718F049FB5D49BDF90C00C5
S325000052A831F9100090494FF4747212FB00F0A0F57470085A02900220009000200190029A3B
S325000052C8BDF90C00D31718F031FB05B000BD00B5ADF1140DADF80C000020029000200090E7
S325000052E800200190029ABDF90C00D31718F01EFB05B000BD0EB5ADF808004549BDF9080058
S3250000530831F9100079494FF4747212FB00F0A0F57470085AADF80A00002000900220019070
S32500005328BDF90A20BDF90800D31718F0FFFA3849BDF9080031F91000D0494FF4747212FB0E
S3250000534800F0A0F57470085AADF80A000020009000200190BDF90A20BDF90800D31718F0D4
S32500005368E5FA0EBD0EB5ADF808002949BDF9080031F91020C249D00100EB0230A0F5845019
S32500005388085AADF80A000020009000200190BDF90A20BDF90800D31718F0C8FA0EBD0EB5AD
S325000053A8ADF808001A49BDF9080031F91000B5494FF4747212FB00F0A0F57470085AADF833
S325000053C80A000020009002200190BDF90A20BDF90800D31718F0AAFA0D49BDF9080031F9E0
S325000053E81000A9494FF4747212FB00F0A0F57470085AADF80A000020009000200190BDF9D6
S325000054080A20BDF90800D31718F090FA0EBDC046DC0C01204EBF002000B5ADF1140DADF8FA
S325000054280C00CF49BDF90C0031F91000CB494FF4747212FB00F0A0F5747008580290022077
S32500005448009000200190029ABDF90C00D31718F06DFA05B000BDC04654BF002056BF002066
S3250000546850BF00200EB5ADF80800BD49BDF9080031F91000BB494FF4747212FB00F0A0F5C2
S325000054887470085AADF80A000020009002200190BDF90A20BDF90800D31718F047FAB049DC
S325000054A8BDF9080031F91000AF494FF4747212FB00F0A0F57470085AADF80A00032000908B
S325000054C800200190BDF90A20BDF90800D31718F02DFA0EBD52BF002058BF00205ABF0020EA
S325000054E85CBF00205EBF002060BF002068BF002000B5ADF12C0DADF80C00002114220DF10E
S32500005508160026F08FFA0020ADF810000220009002200190BDF91020BDF90C00D31718F0F4
S3250000552805FA0020ADF810000220009002200190BDF91020BDF90C00D31718F0F7F900207A
S32500005548ADF810000220009002200190BDF91020BDF90C00D31718F0E9F90020ADF81000D2
S325000055680220009002200190BDF91020BDF90C00D31718F0DBF90020ADF8100002200090C3
S3250000558802200190BDF91020BDF90C00D31718F0CDF97349BDF90C0031F9100073494FF433
S325000055A8747212FB00F0A0F57470401802900020ADF80E00BDF90E00082851DA0298008883
S325000055C8ADF81200BDF91200C11100EB11600012ADF81400BDF91400302803DBBDF914007B
S325000055E8392807DDBDF9140041280ADBBDF914005A2806DCBDF90E109DF814000DEB41015B
S325000056088875BDF91200C11100EB116121F0FF01401AADF81400BDF91400302803DBBDF9AE
S325000056281400392807DDBDF9140041280CDBBDF914005A2808DCBDF90E209DF814100120FB
S3250000564800EB4200684481750298801C0290BDF90E00401CADF80E00BDF90E000828ADDB56
S32500005668BDF90C00C04940F2262202FB001014220DF1160126F0D9FE0BB000BD6ABF0020D1
S32500005688980B002064BF002066BF00200EB5ADF808003349BDF9080031F910203449D0015F
S325000056A800EB0230A0F58450085AADF80A000020009002200190BDF90A20BDF90800D3175A
S325000056C818F034F92649BDF9080031F910202949D00100EB0230A0F58450085AADF80A0026
S325000056E80220009002200190BDF90800BDF90A20D31718F01BF91A49BDF9080031F9102018
S325000057081D49D00100EB0230A0F58450085AADF80A000020009002200190BDF90800BDF9D6
S325000057280A20D31718F002F90D49BDF9080031F910201249D00100EB0230A0F58450085AC2
S32500005748ADF80A000020009000200190BDF90800BDF90A20D31718F0E9F80EBD78BF002098
S32500005768DC0C01206CBF00206EBF002018C20020280D00202A0D00202E0D00202C0D002020
S3250000578800B5ADF12C0DADF82000C949BDF9200031F91000401EADF824007549BDF92000CD
S325000057A840F2262212FB00F0085C302800F07082BDF9200040F2262111FB00F06C49085C62
S325000057C8BDF9201040F2262212FB01F1694A5054BDF92010644840F2262202FB0100A4490E
S325000057E8052226F022FEBDF92000B14931F91010C80100EB0130C849A0F5845008580690CF
S325000058080220009002200190BDF92000069AD31718F08CF8BDF92000A54931F91010C80152
S3250000582800EB01305149A0F584500858642190FBF1F006900320009002200190BDF9200018
S32500005848069AD31718F072F8BDF92000984931F91010C80100EB0130B049A0F58450085E90
S32500005868642111FB00F006900220009002200190BDF92000069AD31718F058F8BDF9200010
S325000058888B4931F91010C80100EB0130A449A0F58450401803C842F21072002325F0ABFFE6
S325000058A804AA82E803000320009002200190BDF9200004A991E80C0018F038F8BDF924003F
S325000058C8002113F0A9FD8DED070A079826F02BFD23A20CCA25F06AFE26F0DDF8024603201A
S325000058E8009002200190BDF920000B4618F01EF8BDF92400012113F08FFD8DED070A07985D
S3250000590826F011FD16A20CCA25F050FE26F0C3F802460320009002200190BDF920000B46BE
S3250000592818F004F8BDF92000614931F91010C80100EB01307749A0F58450085802AA400130
S32500005948C11782E80300774802AA00210CCA9042994111DA7348002102AA82E8030019E00D
S325000059680000000000408F40F4EB0020A80B002087E50020FDEB0020C44802AA4FF0FF317D
S325000059880CCA82428B4105DAC0484FF0FF3102AA82E803000020009002200190BDF92000EB
S325000059A802A991E80C0017F0C1FFBDF92410C80100EB0130AF49085E06900020009002204D
S325000059C80190BDF92000069AD31717F0AFFFBDF92410C80100EB0130A749085E0690002038
S325000059E8009002200190BDF92000069AD31717F09DFFBDF920002E4931F91010742010FB1D
S32500005A0801F09E497438085A0690BDF92000BDF8181003F03FF9BDF92010CC4840F22622AA
S32500005A2802FB01001249052226F0FFFCBDF92410C80100EB01309249085E00F0FF000002C6
S32500005A480690BDF92410C80100EB01308D49085E069900F0FF00091806910020009002207F
S32500005A680190BDF92000069AD31717F05FFF01E042160120BDF920000D4931F91000401EA4
S32500005A8800B213F0EDF806900020009002200190BDF92000069AD31717F048FFBDF92000E1
S32500005AA8034931F91020AA49D00100EB023001E0DC0C0120A0F58450085E06900020009052
S32500005AC802200190BDF92000069AD31717F02EFFBDF924206C49D00100EB0230085E41F637
S32500005AE8FF71A0F6FF70400290FBF1F006900020009002200190BDF92000069AD31717F015
S32500005B0815FFBDF92400CD494FF4747212FB00F0085E09E0580B0020B00B0020980B0020DD
S32500005B28F80C0020FFE0F50506900020009000200190BDF92000069AD31717F0F7FE0020E7
S32500005B48ADF82200BDF922000A281EDABDF92420BB49BDF92230D00100EB0230401830F9F9
S32500005B68130006900020009001200190BDF92000069AD31717F0DAFEBDF92200401CADF8F4
S32500005B882200BDF922000A28E0DB0020ADF82200BDF922000A281EDABDF92420A949BDF985
S32500005BA82230D00100EB0230401830F9130006900020009001200190BDF92000069AD317AB
S32500005BC817F0B4FEBDF92200401CADF82200BDF922000A28E0DB0020ADF82200BDF922007F
S32500005BE80A281EDABDF924209749BDF92230D00100EB0230401830F91300069000200090C3
S32500005C0801200190BDF92000069AD31717F08EFEBDF92200401CADF82200BDF922000A28CC
S32500005C28E0DB0020ADF82200BDF922000A2880F29E82BDF924208549BDF92230D00100EB8C
S32500005C480230401830F9130006900020009001200190BDF92000069AD31717F067FEBDF9F6
S32500005C682200401CADF82200BDF922000A28E0DB7DE2C0467C1000207E10002030F8002005
S32500005C884C0000204A00002012050020011F0AFABDF9200040F2262111FB00F07249085C5B
S32500005CA8BDF9201040F2262212FB01F16F4A5054BDF92010254840F2262202FB0100CA493C
S32500005CC8052226F0B2FBBDF92000C84931F910004FF4747111FB00F05D49A0F57470085808
S32500005CE8642190FBF1F006900220009002200190BDF92000069AD31717F018FEBDF9200057
S32500005D08BA4931F910004FF4747111FB00F05149A0F574700858642190FBF1F006900320F7
S32500005D28009002200190BDF92000069AD31717F0FDFDBDF92000AD4931F910004FF4747183
S32500005D4811FB00F04449A0F5747003E0F4EB002000000020095A6420484306900220009077
S32500005D6802200190BDF92000069AD31717F0DEFDBDF920009D4931F910004FF4747111FBF6
S32500005D8800F03649A0F57470401803C842F21072002325F030FD04AA82E803000320009001
S32500005DA802200190BDF9200004A991E80C0017F0BDFDBDF924004FF4747111FB00F02849EA
S32500005DC8085806900320009002200190BDF92000069AD31717F0AAFDBDF924004FF4747149
S32500005DE811FB00F01F49085806900320009002200190BDF92000069AD31717F097FDBDF924
S32500005E0820007A4931F910004FF4747111FB00F07749A0F57470085802AA4001C11782E86B
S32500005E280300744802AA00210CCA904299411FDA7048002102AA82E8030027E03ABF00203B
S32500005E48320500201E0500205A0500204605002028C100202CC1002030C1002038C1002070
S32500005E685CC1002060C1002087E50020FDEB0020C84802AA4FF0FF310CCA82428B4105DA92
S32500005E88C4484FF0FF3102AA82E803000020009002200190BDF9200002A991E80C0017F0F0
S32500005EA845FDBDF924004FF4747111FB00F0B149085E06900020009002200190BDF9200065
S32500005EC8069AD31717F032FDBDF924004FF4747111FB00F0A849085E069000200090022037
S32500005EE80190BDF92000069AD31717F01FFDBDF920003E4931F910004FF4747111FB00F0C5
S32500005F089E49A0F57470085A0690BDF92000BDF8181002F0BFFEBDF92010D04840F2262241
S32500005F2802FB01003049052226F07FFABDF924004FF4747111FB00F09149085A00F0FF00FD
S32500005F4800020690BDF924004FF4747111FB00F09149085A069900F0FF00091806910020FB
S32500005F68009002200190BDF92000069AD31717F0DDFCBDF920001D4931F910004FF47471F2
S32500005F8811FB00F08549A0F57470085A06900020009002200190BDF92000069AD31717F0EE
S32500005FA8C5FCBDF92000114931F910004FF4747111FB00F07A49A0F57470085A0690002030
S32500005FC8009002200190BDF92000069AD31717F0ADFCBDF924004FF4747111FB00F07149A8
S32500005FE8085A41F6FF7107E042160120DC0C012044C10020FFE0F505A0F6FF70400290FB51
S32500006008F1F006900020009002200190BDF92000069AD31717F08AFCBDF924004FF47471A9
S3250000602811FB00F05749085E06900020009000200190BDF92000069AD31717F077FC00205F
S32500006048ADF82200BDF922000A281EDABDF924104D4ABDF922004FF4747303FB012131F99C
S32500006068100006900020009001200190BDF92000069AD31717F05AFCBDF92200401CADF874
S325000060882200BDF922000A28E0DB0020ADF82200BDF922000A281EDABDF924103B4ABDF9FD
S325000060A822004FF4747303FB012131F9100006900020009001200190BDF92000069AD317D4
S325000060C817F034FCBDF92200401CADF82200BDF922000A28E0DB0020ADF82200BDF92200FC
S325000060E80A281EDABDF92410294ABDF922004FF4747303FB012131F9100006900020009069
S3250000610801200190BDF92000069AD31717F00EFCBDF92200401CADF82200BDF922000A2849
S32500006128E0DB0020ADF82200BDF922000A281EDABDF92410C94ABDF922004FF4747303FBB0
S32500006148012131F9100006900020009001200190BDF92000069AD31717F0E8FBBDF92200BB
S32500006168401CADF82200BDF922000A28E0DB0BB000BDC04658C100205AC100204CC100200A
S3250000618854C1002064C1002066C100207AC100208EC10020011F0AFA4EC1002050C10020E2
S325000061A852C1002040C1002030B5ADF1140DADF80800B549BDF90800BDF9083040F2262208
S325000061C812FB00F0B14A085C40F2262111FB03F15054A349BDF9080040F2262212FB00F017
S325000061E8085C2C2814D1BDF908001C4940F2262202FB0010A649052226F017F9BDF9080050
S32500006208984A40F22623302113FB00F0115427E0BDF908009249BDF9083040F2262212FB4A
S3250000622800F09C4A085C40F2262111FB03F150540A49BDF9080040F2262202FB0010944984
S32500006248052226F0F2F8BDF90800874A40F22623302113FB00F0115402E0C046F4EB002064
S32500006268BDF90800CC4931F910208049D00100EB0230A0F58450085E78B1FFE7BDF9080090
S32500006288C54931F910207A49D00100EB0230A0F58450085A10F0FF0F75D1BDF90800704941
S325000062A840F2262212FB00F0085C2C2836D1BDF90800754940F2262212FB00F0085C3038DB
S325000062C8ADF80E00BDF90E0000285CD10020ADF80A00BDF90A00B0F5967F54DABDF90800AF
S325000062E8AD4931F91020BDF90A30BDF90A40614D6149D00100EB0230A0F58450401830F821
S32500006308130025F81400BDF90A00401CADF80A00BDF90A00B0F5967FE0DB34E0BDF9080059
S325000063284F4940F2262212FB00F0085C3038ADF80E00BDF90E0030BB0020ADF80A00BDF98D
S325000063480A00B0F5967F1EDABDF90800924931F91020BDF90A30BDF90A40484D4849D00199
S3250000636800EB0230A0F58450401830F8130025F81400BDF90A00401CADF80A00BDF90A003A
S32500006388B0F5967FE0DBBDF90E00022846DC0020ADF80A00BDF90A0064285DDABDF908005A
S325000063A82F4940F2262212FB00F0085C2C2810D1BDF90E40BDF90A3032482E4A642101FBE0
S325000063C80433018832F91300401A0011ADF80C000FE0BDF90E40BDF90A302A48274A64214A
S325000063E801FB0433018832F91300401A0011ADF80C000020009001200190BDF90C20BDF97F
S325000064080800D31717F092FABDF90A00401CADF80A00BDF90A006428C0DB1DE00020ADF875
S325000064280A00BDF90A00642816DA0020ADF80C000020009001200190BDF90C20BDF9080035
S32500006448D31717F073FABDF90A00401CADF80A00BDF90A006428E8DB05B030BDA2C10020D1
S3250000646888E50020FFEB002000EC00201C0D0020240D0020000001205E00002058020120B7
S32500006488B6020020FE16012087E50020FDEB002042160120FEEB002000B5ADF12C0DADF89A
S325000064A810000021142206A825F0BCFA3A49BDF9100031F91000B5494FF4747212FB00F047
S325000064C8A0F57470085E02900020009002200190029ABDF91000D31717F028FA2E49BDF938
S325000064E8100031F91000AA494FF4747212FB00F0A0F57470085E0290012000900220019056
S32500006508029ABDF91000D31717F010FA2249BDF9100031F910009F494FF4747212FB00F097
